{
  "_format": "hh-sol-artifact-1",
  "contractName": "MyNFT",
  "sourceName": "contracts/MyNFT.sol",
  "abi": [
    {
      "inputs": [],
      "stateMutability": "nonpayable",
      "type": "constructor"
    },
    {
      "anonymous": false,
      "inputs": [
        {
          "indexed": false,
          "internalType": "uint256",
          "name": "appointmentId",
          "type": "uint256"
        },
        {
          "indexed": false,
          "internalType": "uint256",
          "name": "patientId",
          "type": "uint256"
        },
        {
          "indexed": false,
          "internalType": "uint256",
          "name": "hospitalId",
          "type": "uint256"
        },
        {
          "indexed": false,
          "internalType": "string",
          "name": "date",
          "type": "string"
        },
        {
          "indexed": false,
          "internalType": "string",
          "name": "description",
          "type": "string"
        }
      ],
      "name": "AppointmentCreated",
      "type": "event"
    },
    {
      "anonymous": false,
      "inputs": [
        {
          "indexed": true,
          "internalType": "address",
          "name": "owner",
          "type": "address"
        },
        {
          "indexed": true,
          "internalType": "address",
          "name": "approved",
          "type": "address"
        },
        {
          "indexed": true,
          "internalType": "uint256",
          "name": "tokenId",
          "type": "uint256"
        }
      ],
      "name": "Approval",
      "type": "event"
    },
    {
      "anonymous": false,
      "inputs": [
        {
          "indexed": true,
          "internalType": "address",
          "name": "owner",
          "type": "address"
        },
        {
          "indexed": true,
          "internalType": "address",
          "name": "operator",
          "type": "address"
        },
        {
          "indexed": false,
          "internalType": "bool",
          "name": "approved",
          "type": "bool"
        }
      ],
      "name": "ApprovalForAll",
      "type": "event"
    },
    {
      "anonymous": false,
      "inputs": [
        {
          "indexed": false,
          "internalType": "uint256",
          "name": "patientId",
          "type": "uint256"
        },
        {
          "indexed": false,
          "internalType": "address",
          "name": "viewer",
          "type": "address"
        }
      ],
      "name": "AuthorizedViewerAdded",
      "type": "event"
    },
    {
      "anonymous": false,
      "inputs": [
        {
          "indexed": false,
          "internalType": "uint256",
          "name": "patientId",
          "type": "uint256"
        },
        {
          "indexed": false,
          "internalType": "address",
          "name": "viewer",
          "type": "address"
        }
      ],
      "name": "AuthorizedViewerRemoved",
      "type": "event"
    },
    {
      "anonymous": false,
      "inputs": [
        {
          "indexed": false,
          "internalType": "uint256",
          "name": "_fromTokenId",
          "type": "uint256"
        },
        {
          "indexed": false,
          "internalType": "uint256",
          "name": "_toTokenId",
          "type": "uint256"
        }
      ],
      "name": "BatchMetadataUpdate",
      "type": "event"
    },
    {
      "anonymous": false,
      "inputs": [
        {
          "indexed": false,
          "internalType": "uint256",
          "name": "patientId",
          "type": "uint256"
        },
        {
          "indexed": false,
          "internalType": "string",
          "name": "ipfsHash",
          "type": "string"
        }
      ],
      "name": "HealthRecordAdded",
      "type": "event"
    },
    {
      "anonymous": false,
      "inputs": [
        {
          "indexed": false,
          "internalType": "uint256",
          "name": "hospitalId",
          "type": "uint256"
        },
        {
          "indexed": false,
          "internalType": "string",
          "name": "name",
          "type": "string"
        },
        {
          "indexed": false,
          "internalType": "string",
          "name": "h_type",
          "type": "string"
        },
        {
          "indexed": false,
          "internalType": "string",
          "name": "hospitalAddress",
          "type": "string"
        },
        {
          "indexed": false,
          "internalType": "string",
          "name": "state",
          "type": "string"
        },
        {
          "indexed": false,
          "internalType": "string",
          "name": "district",
          "type": "string"
        },
        {
          "indexed": false,
          "internalType": "string",
          "name": "link",
          "type": "string"
        },
        {
          "indexed": false,
          "internalType": "address",
          "name": "hospitalWallet",
          "type": "address"
        }
      ],
      "name": "HospitalRegistered",
      "type": "event"
    },
    {
      "anonymous": false,
      "inputs": [
        {
          "indexed": false,
          "internalType": "uint256",
          "name": "_tokenId",
          "type": "uint256"
        }
      ],
      "name": "MetadataUpdate",
      "type": "event"
    },
    {
      "anonymous": false,
      "inputs": [
        {
          "indexed": true,
          "internalType": "address",
          "name": "previousOwner",
          "type": "address"
        },
        {
          "indexed": true,
          "internalType": "address",
          "name": "newOwner",
          "type": "address"
        }
      ],
      "name": "OwnershipTransferred",
      "type": "event"
    },
    {
      "anonymous": false,
      "inputs": [
        {
          "indexed": false,
          "internalType": "uint256",
          "name": "patientId",
          "type": "uint256"
        },
        {
          "indexed": false,
          "internalType": "string",
          "name": "name",
          "type": "string"
        },
        {
          "indexed": false,
          "internalType": "uint256",
          "name": "age",
          "type": "uint256"
        },
        {
          "indexed": false,
          "internalType": "string",
          "name": "dob",
          "type": "string"
        },
        {
          "indexed": false,
          "internalType": "string",
          "name": "gender",
          "type": "string"
        },
        {
          "indexed": false,
          "internalType": "string",
          "name": "contactNumber",
          "type": "string"
        },
        {
          "indexed": false,
          "internalType": "string",
          "name": "email",
          "type": "string"
        },
        {
          "indexed": false,
          "internalType": "address",
          "name": "patientWallet",
          "type": "address"
        }
      ],
      "name": "PatientRegistered",
      "type": "event"
    },
    {
      "anonymous": false,
      "inputs": [
        {
          "indexed": true,
          "internalType": "address",
          "name": "from",
          "type": "address"
        },
        {
          "indexed": true,
          "internalType": "address",
          "name": "to",
          "type": "address"
        },
        {
          "indexed": true,
          "internalType": "uint256",
          "name": "tokenId",
          "type": "uint256"
        }
      ],
      "name": "Transfer",
      "type": "event"
    },
    {
      "inputs": [
        {
          "internalType": "uint256",
          "name": "_patientId",
          "type": "uint256"
        },
        {
          "internalType": "address",
          "name": "_viewer",
          "type": "address"
        }
      ],
      "name": "addAuthorizedViewer",
      "outputs": [],
      "stateMutability": "nonpayable",
      "type": "function"
    },
    {
      "inputs": [
        {
          "internalType": "uint256",
          "name": "_patientId",
          "type": "uint256"
        },
        {
          "internalType": "string",
          "name": "_ipfsHash",
          "type": "string"
        }
      ],
      "name": "addHealthRecord",
      "outputs": [],
      "stateMutability": "nonpayable",
      "type": "function"
    },
    {
      "inputs": [
        {
          "internalType": "address",
          "name": "to",
          "type": "address"
        },
        {
          "internalType": "uint256",
          "name": "tokenId",
          "type": "uint256"
        }
      ],
      "name": "approve",
      "outputs": [],
      "stateMutability": "nonpayable",
      "type": "function"
    },
    {
      "inputs": [
        {
          "internalType": "address",
          "name": "owner",
          "type": "address"
        }
      ],
      "name": "balanceOf",
      "outputs": [
        {
          "internalType": "uint256",
          "name": "",
          "type": "uint256"
        }
      ],
      "stateMutability": "view",
      "type": "function"
    },
    {
      "inputs": [],
      "name": "checkPatientRegistration",
      "outputs": [
        {
          "internalType": "bool",
          "name": "",
          "type": "bool"
        }
      ],
      "stateMutability": "view",
      "type": "function"
    },
    {
      "inputs": [
        {
          "internalType": "uint256",
          "name": "_patientId",
          "type": "uint256"
        },
        {
          "internalType": "uint256",
          "name": "_hospitalId",
          "type": "uint256"
        },
        {
          "internalType": "string",
          "name": "_date",
          "type": "string"
        },
        {
          "internalType": "string",
          "name": "_description",
          "type": "string"
        }
      ],
      "name": "createAppointment",
      "outputs": [],
      "stateMutability": "nonpayable",
      "type": "function"
    },
    {
      "inputs": [
        {
          "internalType": "uint256",
          "name": "_patientId",
          "type": "uint256"
        },
        {
          "internalType": "string",
          "name": "_height",
          "type": "string"
        },
        {
          "internalType": "string",
          "name": "_weight",
          "type": "string"
        },
        {
          "internalType": "string",
          "name": "_bloodPressure",
          "type": "string"
        }
      ],
      "name": "createHealthRecord",
      "outputs": [],
      "stateMutability": "nonpayable",
      "type": "function"
    },
    {
      "inputs": [
        {
          "internalType": "uint256",
          "name": "_app_id",
          "type": "uint256"
        },
        {
          "internalType": "string",
          "name": "_feild1",
          "type": "string"
        },
        {
          "internalType": "string",
          "name": "_f3",
          "type": "string"
        },
        {
          "internalType": "string",
          "name": "_f4",
          "type": "string"
        },
        {
          "internalType": "string",
          "name": "_f5",
          "type": "string"
        }
      ],
      "name": "createPrescription",
      "outputs": [],
      "stateMutability": "nonpayable",
      "type": "function"
    },
    {
      "inputs": [],
      "name": "getAllHospitals",
      "outputs": [
        {
          "internalType": "uint256[]",
          "name": "",
          "type": "uint256[]"
        }
      ],
      "stateMutability": "view",
      "type": "function"
    },
    {
      "inputs": [
        {
          "internalType": "uint256",
          "name": "_appointmentId",
          "type": "uint256"
        }
      ],
      "name": "getAppointmentDetails",
      "outputs": [
        {
          "internalType": "uint256",
          "name": "patientId",
          "type": "uint256"
        },
        {
          "internalType": "uint256",
          "name": "hospitalId",
          "type": "uint256"
        },
        {
          "internalType": "string",
          "name": "date",
          "type": "string"
        },
        {
          "internalType": "string",
          "name": "description",
          "type": "string"
        },
        {
          "internalType": "string",
          "name": "stringField1",
          "type": "string"
        },
        {
          "internalType": "string",
          "name": "stringField2",
          "type": "string"
        },
        {
          "internalType": "string",
          "name": "stringField3",
          "type": "string"
        },
        {
          "internalType": "string",
          "name": "followUpDate",
          "type": "string"
        }
      ],
      "stateMutability": "view",
      "type": "function"
    },
    {
      "inputs": [
        {
          "internalType": "uint256",
          "name": "tokenId",
          "type": "uint256"
        }
      ],
      "name": "getApproved",
      "outputs": [
        {
          "internalType": "address",
          "name": "",
          "type": "address"
        }
      ],
      "stateMutability": "view",
      "type": "function"
    },
    {
      "inputs": [
        {
          "internalType": "uint256",
          "name": "_patientId",
          "type": "uint256"
        }
      ],
      "name": "getHealthRecordIpfsHashes",
      "outputs": [
        {
          "internalType": "string[]",
          "name": "",
          "type": "string[]"
        }
      ],
      "stateMutability": "view",
      "type": "function"
    },
    {
      "inputs": [
        {
          "internalType": "uint256",
          "name": "_patientId",
          "type": "uint256"
        }
      ],
      "name": "getHealthRecords",
      "outputs": [
        {
          "internalType": "string[]",
          "name": "",
          "type": "string[]"
        }
      ],
      "stateMutability": "view",
      "type": "function"
    },
    {
      "inputs": [
        {
          "internalType": "uint256",
          "name": "_HospitalId",
          "type": "uint256"
        }
      ],
      "name": "getHospitalAppointments",
      "outputs": [
        {
          "internalType": "uint256[]",
          "name": "",
          "type": "uint256[]"
        }
      ],
      "stateMutability": "view",
      "type": "function"
    },
    {
      "inputs": [
        {
          "internalType": "uint256",
          "name": "_hospitalId",
          "type": "uint256"
        }
      ],
      "name": "getHospitalDetails",
      "outputs": [
        {
          "internalType": "string",
          "name": "name",
          "type": "string"
        },
        {
          "internalType": "string",
          "name": "h_type",
          "type": "string"
        },
        {
          "internalType": "string",
          "name": "hospitalAddress",
          "type": "string"
        },
        {
          "internalType": "string",
          "name": "state",
          "type": "string"
        },
        {
          "internalType": "string",
          "name": "district",
          "type": "string"
        },
        {
          "internalType": "string",
          "name": "link",
          "type": "string"
        }
      ],
      "stateMutability": "view",
      "type": "function"
    },
    {
      "inputs": [],
      "name": "getHospitalDetailsByAddress",
      "outputs": [
        {
          "internalType": "string",
          "name": "name",
          "type": "string"
        },
        {
          "internalType": "string",
          "name": "h_type",
          "type": "string"
        },
        {
          "internalType": "string",
          "name": "hospitalAddress",
          "type": "string"
        },
        {
          "internalType": "string",
          "name": "state",
          "type": "string"
        },
        {
          "internalType": "string",
          "name": "district",
          "type": "string"
        },
        {
          "internalType": "string",
          "name": "link",
          "type": "string"
        }
      ],
      "stateMutability": "view",
      "type": "function"
    },
    {
      "inputs": [],
      "name": "getHospitalIdByAddress",
      "outputs": [
        {
          "internalType": "uint256",
          "name": "",
          "type": "uint256"
        }
      ],
      "stateMutability": "view",
      "type": "function"
    },
    {
      "inputs": [
        {
          "internalType": "uint256",
          "name": "_patientId",
          "type": "uint256"
        }
      ],
      "name": "getPatientAppointments",
      "outputs": [
        {
          "internalType": "uint256[]",
          "name": "",
          "type": "uint256[]"
        }
      ],
      "stateMutability": "view",
      "type": "function"
    },
    {
      "inputs": [
        {
          "internalType": "uint256",
          "name": "_patientId",
          "type": "uint256"
        }
      ],
      "name": "getPatientDetails",
      "outputs": [
        {
          "internalType": "string",
          "name": "name",
          "type": "string"
        },
        {
          "internalType": "uint256",
          "name": "age",
          "type": "uint256"
        },
        {
          "internalType": "string",
          "name": "dob",
          "type": "string"
        },
        {
          "internalType": "string",
          "name": "gender",
          "type": "string"
        },
        {
          "internalType": "string",
          "name": "contactNumber",
          "type": "string"
        },
        {
          "internalType": "string",
          "name": "email",
          "type": "string"
        },
        {
          "internalType": "string",
          "name": "medicalHistory",
          "type": "string"
        },
        {
          "internalType": "string",
          "name": "height",
          "type": "string"
        },
        {
          "internalType": "string",
          "name": "weight",
          "type": "string"
        },
        {
          "internalType": "string",
          "name": "bloodPressure",
          "type": "string"
        }
      ],
      "stateMutability": "view",
      "type": "function"
    },
    {
      "inputs": [],
      "name": "getPatientDetailsByAddress",
      "outputs": [
        {
          "internalType": "string",
          "name": "name",
          "type": "string"
        },
        {
          "internalType": "uint256",
          "name": "age",
          "type": "uint256"
        },
        {
          "internalType": "string",
          "name": "dob",
          "type": "string"
        },
        {
          "internalType": "string",
          "name": "gender",
          "type": "string"
        },
        {
          "internalType": "string",
          "name": "contactNumber",
          "type": "string"
        },
        {
          "internalType": "string",
          "name": "email",
          "type": "string"
        },
        {
          "internalType": "string",
          "name": "medicalHistory",
          "type": "string"
        },
        {
          "internalType": "string",
          "name": "height",
          "type": "string"
        },
        {
          "internalType": "string",
          "name": "weight",
          "type": "string"
        },
        {
          "internalType": "string",
          "name": "bloodPressure",
          "type": "string"
        }
      ],
      "stateMutability": "view",
      "type": "function"
    },
    {
      "inputs": [],
      "name": "getPatientIdByAddress",
      "outputs": [
        {
          "internalType": "uint256",
          "name": "",
          "type": "uint256"
        }
      ],
      "stateMutability": "view",
      "type": "function"
    },
    {
      "inputs": [
        {
          "internalType": "address",
          "name": "owner",
          "type": "address"
        },
        {
          "internalType": "address",
          "name": "operator",
          "type": "address"
        }
      ],
      "name": "isApprovedForAll",
      "outputs": [
        {
          "internalType": "bool",
          "name": "",
          "type": "bool"
        }
      ],
      "stateMutability": "view",
      "type": "function"
    },
    {
      "inputs": [
        {
          "internalType": "uint256",
          "name": "_patientId",
          "type": "uint256"
        },
        {
          "internalType": "address",
          "name": "_viewer",
          "type": "address"
        }
      ],
      "name": "isAuthorizedViewer",
      "outputs": [
        {
          "internalType": "bool",
          "name": "",
          "type": "bool"
        }
      ],
      "stateMutability": "view",
      "type": "function"
    },
    {
      "inputs": [],
      "name": "name",
      "outputs": [
        {
          "internalType": "string",
          "name": "",
          "type": "string"
        }
      ],
      "stateMutability": "view",
      "type": "function"
    },
    {
      "inputs": [],
      "name": "owner",
      "outputs": [
        {
          "internalType": "address",
          "name": "",
          "type": "address"
        }
      ],
      "stateMutability": "view",
      "type": "function"
    },
    {
      "inputs": [
        {
          "internalType": "uint256",
          "name": "tokenId",
          "type": "uint256"
        }
      ],
      "name": "ownerOf",
      "outputs": [
        {
          "internalType": "address",
          "name": "",
          "type": "address"
        }
      ],
      "stateMutability": "view",
      "type": "function"
    },
    {
      "inputs": [
        {
          "internalType": "string",
          "name": "_name",
          "type": "string"
        },
        {
          "internalType": "string",
          "name": "_h_type",
          "type": "string"
        },
        {
          "internalType": "string",
          "name": "_address",
          "type": "string"
        },
        {
          "internalType": "string",
          "name": "_state",
          "type": "string"
        },
        {
          "internalType": "string",
          "name": "_district",
          "type": "string"
        },
        {
          "internalType": "string",
          "name": "_link",
          "type": "string"
        }
      ],
      "name": "registerHospital",
      "outputs": [],
      "stateMutability": "nonpayable",
      "type": "function"
    },
    {
      "inputs": [
        {
          "internalType": "string",
          "name": "_name",
          "type": "string"
        },
        {
          "internalType": "uint256",
          "name": "_age",
          "type": "uint256"
        },
        {
          "internalType": "string",
          "name": "_dob",
          "type": "string"
        },
        {
          "internalType": "string",
          "name": "_gender",
          "type": "string"
        },
        {
          "internalType": "string",
          "name": "_contactNumber",
          "type": "string"
        },
        {
          "internalType": "string",
          "name": "_email",
          "type": "string"
        },
        {
          "internalType": "string",
          "name": "_medicalHistory",
          "type": "string"
        }
      ],
      "name": "registerPatient",
      "outputs": [
        {
          "internalType": "uint256",
          "name": "",
          "type": "uint256"
        }
      ],
      "stateMutability": "nonpayable",
      "type": "function"
    },
    {
      "inputs": [
        {
          "internalType": "uint256",
          "name": "_patientId",
          "type": "uint256"
        },
        {
          "internalType": "address",
          "name": "_viewer",
          "type": "address"
        }
      ],
      "name": "removeAuthorizedViewer",
      "outputs": [],
      "stateMutability": "nonpayable",
      "type": "function"
    },
    {
      "inputs": [],
      "name": "renounceOwnership",
      "outputs": [],
      "stateMutability": "nonpayable",
      "type": "function"
    },
    {
      "inputs": [
        {
          "internalType": "address",
          "name": "from",
          "type": "address"
        },
        {
          "internalType": "address",
          "name": "to",
          "type": "address"
        },
        {
          "internalType": "uint256",
          "name": "tokenId",
          "type": "uint256"
        }
      ],
      "name": "safeTransferFrom",
      "outputs": [],
      "stateMutability": "nonpayable",
      "type": "function"
    },
    {
      "inputs": [
        {
          "internalType": "address",
          "name": "from",
          "type": "address"
        },
        {
          "internalType": "address",
          "name": "to",
          "type": "address"
        },
        {
          "internalType": "uint256",
          "name": "tokenId",
          "type": "uint256"
        },
        {
          "internalType": "bytes",
          "name": "data",
          "type": "bytes"
        }
      ],
      "name": "safeTransferFrom",
      "outputs": [],
      "stateMutability": "nonpayable",
      "type": "function"
    },
    {
      "inputs": [
        {
          "internalType": "address",
          "name": "operator",
          "type": "address"
        },
        {
          "internalType": "bool",
          "name": "approved",
          "type": "bool"
        }
      ],
      "name": "setApprovalForAll",
      "outputs": [],
      "stateMutability": "nonpayable",
      "type": "function"
    },
    {
      "inputs": [
        {
          "internalType": "bytes4",
          "name": "interfaceId",
          "type": "bytes4"
        }
      ],
      "name": "supportsInterface",
      "outputs": [
        {
          "internalType": "bool",
          "name": "",
          "type": "bool"
        }
      ],
      "stateMutability": "view",
      "type": "function"
    },
    {
      "inputs": [],
      "name": "symbol",
      "outputs": [
        {
          "internalType": "string",
          "name": "",
          "type": "string"
        }
      ],
      "stateMutability": "view",
      "type": "function"
    },
    {
      "inputs": [
        {
          "internalType": "uint256",
          "name": "tokenId",
          "type": "uint256"
        }
      ],
      "name": "tokenURI",
      "outputs": [
        {
          "internalType": "string",
          "name": "",
          "type": "string"
        }
      ],
      "stateMutability": "view",
      "type": "function"
    },
    {
      "inputs": [
        {
          "internalType": "address",
          "name": "from",
          "type": "address"
        },
        {
          "internalType": "address",
          "name": "to",
          "type": "address"
        },
        {
          "internalType": "uint256",
          "name": "tokenId",
          "type": "uint256"
        }
      ],
      "name": "transferFrom",
      "outputs": [],
      "stateMutability": "nonpayable",
      "type": "function"
    },
    {
      "inputs": [
        {
          "internalType": "address",
          "name": "newOwner",
          "type": "address"
        }
      ],
      "name": "transferOwnership",
      "outputs": [],
      "stateMutability": "nonpayable",
      "type": "function"
    },
    {
      "inputs": [
        {
          "internalType": "uint256",
          "name": "_patientId",
          "type": "uint256"
        },
        {
          "internalType": "string",
          "name": "_newMedicalHistory",
          "type": "string"
        }
      ],
      "name": "updateMedicalHistory",
      "outputs": [],
      "stateMutability": "nonpayable",
      "type": "function"
    }
  ],
  "bytecode": "0x60806040523480156200001157600080fd5b506040518060400160405280600d81526020016c1219585b1d1a18d85c99539195609a1b815250604051806040016040528060038152602001622421a760e91b815250816000908162000065919062000192565b50600162000074828262000192565b505050620000916200008b6200009760201b60201c565b6200009b565b6200025e565b3390565b600780546001600160a01b038381166001600160a01b0319831681179093556040519116919082907f8be0079c531659141344cd1fd0a4f28419497f9722a3daafe3b4186f6b6457e090600090a35050565b634e487b7160e01b600052604160045260246000fd5b600181811c908216806200011857607f821691505b6020821081036200013957634e487b7160e01b600052602260045260246000fd5b50919050565b601f8211156200018d57600081815260208120601f850160051c81016020861015620001685750805b601f850160051c820191505b81811015620001895782815560010162000174565b5050505b505050565b81516001600160401b03811115620001ae57620001ae620000ed565b620001c681620001bf845462000103565b846200013f565b602080601f831160018114620001fe5760008415620001e55750858301515b600019600386901b1c1916600185901b17855562000189565b600085815260208120601f198616915b828110156200022f578886015182559484019460019091019084016200020e565b50858210156200024e5787850151600019600388901b60f8161c191681555b5050505050600190811b01905550565b61461e806200026e6000396000f3fe608060405234801561001057600080fd5b506004361061023d5760003560e01c8063715018a61161013b578063ab0e52a8116100b8578063e0f496f81161007c578063e0f496f814610503578063e985e9c514610516578063ef1017c314610552578063f2fde38b14610565578063feb8cef31461057857600080fd5b8063ab0e52a8146104a4578063b88d4fde146104b7578063c87b56dd146104ca578063d20c2645146104dd578063d95a19a5146104f057600080fd5b806395d89b41116100ff57806395d89b41146104665780639a837c971461046e578063a22cb46514610476578063a4705d6414610489578063a98cd9e71461049157600080fd5b8063715018a61461042a5780637697d27b1461043257806389149296146104455780638c1f28f31461044d5780638da5cb5b1461045557600080fd5b8063389aec7f116101c95780636352211e1161018d5780636352211e146103c8578063652d7ded146103db578063675ec751146103ee5780636ccda1b51461040f57806370a082311461041757600080fd5b8063389aec7f1461034857806342842e0e1461035b5780634b0a75731461036e5780634e9f7154146103935780635deb444b146103a857600080fd5b806323b872dd1161021057806323b872dd146102bf578063274894d7146102d257806328b48042146102f9578063300c601c1461030c5780633343696c1461033557600080fd5b806301ffc9a71461024257806306fdde031461026a578063081812fc1461027f578063095ea7b3146102aa575b600080fd5b61025561025036600461382f565b61058b565b60405190151581526020015b60405180910390f35b6102726105b6565b604051610261919061389c565b61029261028d3660046138af565b610648565b6040516001600160a01b039091168152602001610261565b6102bd6102b83660046138e4565b61066f565b005b6102bd6102cd36600461390e565b610789565b6102e56102e03660046138af565b6107ba565b60405161026198979695949392919061394a565b6102bd610307366004613a89565b610b63565b61031f61031a3660046138af565b610c8b565b6040516102619a99989796959493929190613b00565b6102bd610343366004613bcd565b611260565b6102bd610356366004613c14565b6112be565b6102bd61036936600461390e565b6113a5565b61038161037c3660046138af565b6113c0565b60405161026196959493929190613d09565b61039b611756565b6040516102619190613d8b565b6103bb6103b63660046138af565b6117f3565b6040516102619190613dcf565b6102926103d63660046138af565b611960565b6102556103e9366004613e31565b6119c0565b6104016103fc366004613e5d565b611a3d565b604051908152602001610261565b61031f611bed565b610401610425366004613f5d565b612193565b6102bd612219565b61039b6104403660046138af565b61222d565b61025561228f565b6103816122a3565b6007546001600160a01b0316610292565b610272612682565b610401612691565b6102bd610484366004613f78565b6126a1565b6104016126b0565b6102bd61049f366004613bcd565b6126bb565b6102bd6104b2366004613fb4565b612764565b6102bd6104c536600461406b565b6127b6565b6102726104d83660046138af565b6127ee565b61039b6104eb3660046138af565b6128fe565b6103bb6104fe3660046138af565b61295e565b6102bd610511366004613e31565b612a85565b6102556105243660046140db565b6001600160a01b03918216600090815260056020908152604080832093909416825291909152205460ff1690565b6102bd610560366004614105565b612c7b565b6102bd610573366004613f5d565b612cf0565b6102bd610586366004613e31565b612d69565b60006001600160e01b03198216632483248360e11b14806105b057506105b082612e18565b92915050565b6060600080546105c59061415c565b80601f01602080910402602001604051908101604052809291908181526020018280546105f19061415c565b801561063e5780601f106106135761010080835404028352916020019161063e565b820191906000526020600020905b81548152906001019060200180831161062157829003601f168201915b5050505050905090565b600061065382612e68565b506000908152600460205260409020546001600160a01b031690565b600061067a82611960565b9050806001600160a01b0316836001600160a01b0316036106ec5760405162461bcd60e51b815260206004820152602160248201527f4552433732313a20617070726f76616c20746f2063757272656e74206f776e656044820152603960f91b60648201526084015b60405180910390fd5b336001600160a01b038216148061070857506107088133610524565b61077a5760405162461bcd60e51b815260206004820152603d60248201527f4552433732313a20617070726f76652063616c6c6572206973206e6f7420746f60448201527f6b656e206f776e6572206f7220617070726f76656420666f7220616c6c00000060648201526084016106e3565b6107848383612ec7565b505050565b6107933382612f35565b6107af5760405162461bcd60e51b81526004016106e390614190565b610784838383612fb3565b6000806060806060806060806000600d60008b815260200190815260200160002090508060000154816001015482600201836003018460040185600501866006018760090185805461080b9061415c565b80601f01602080910402602001604051908101604052809291908181526020018280546108379061415c565b80156108845780601f1061085957610100808354040283529160200191610884565b820191906000526020600020905b81548152906001019060200180831161086757829003601f168201915b505050505095508480546108979061415c565b80601f01602080910402602001604051908101604052809291908181526020018280546108c39061415c565b80156109105780601f106108e557610100808354040283529160200191610910565b820191906000526020600020905b8154815290600101906020018083116108f357829003601f168201915b505050505094508380546109239061415c565b80601f016020809104026020016040519081016040528092919081815260200182805461094f9061415c565b801561099c5780601f106109715761010080835404028352916020019161099c565b820191906000526020600020905b81548152906001019060200180831161097f57829003601f168201915b505050505093508280546109af9061415c565b80601f01602080910402602001604051908101604052809291908181526020018280546109db9061415c565b8015610a285780601f106109fd57610100808354040283529160200191610a28565b820191906000526020600020905b815481529060010190602001808311610a0b57829003601f168201915b50505050509250818054610a3b9061415c565b80601f0160208091040260200160405190810160405280929190818152602001828054610a679061415c565b8015610ab45780601f10610a8957610100808354040283529160200191610ab4565b820191906000526020600020905b815481529060010190602001808311610a9757829003601f168201915b50505050509150808054610ac79061415c565b80601f0160208091040260200160405190810160405280929190818152602001828054610af39061415c565b8015610b405780601f10610b1557610100808354040283529160200191610b40565b820191906000526020600020905b815481529060010190602001808311610b2357829003601f168201915b505050505090509850985098509850985098509850985050919395975091939597565b6000815111610bb45760405162461bcd60e51b815260206004820152601b60248201527f4465736372697074696f6e2063616e6e6f7420626520656d707479000000000060448201526064016106e3565b610bc2600a80546001019055565b6000610bcd600a5490565b6000818152600d602052604090208681556001810186905590915060028101610bf6858261422b565b5060038101610c05848261422b565b506000868152600e6020908152604080832080546001818101835591855283852001869055898452600f83528184208054918201815584529190922001839055517fc16a6c775a53f24d2dbd47b373bdf6f373783493e94e8ebaa3f4e06ca066932590610c7b90849089908990899089906142eb565b60405180910390a1505050505050565b6000818152600b6020526040812060078101546060929183918291829182918291829182918291906001600160a01b0316331480610cce5750610cce8c336119c0565b610d295760405162461bcd60e51b815260206004820152602660248201527f4e6f7420617574686f72697a656420746f20766965772070617469656e742064604482015265657461696c7360d01b60648201526084016106e3565b80600001816001015482600201836003018460040185600501866006018760090188600a0189600b01898054610d5e9061415c565b80601f0160208091040260200160405190810160405280929190818152602001828054610d8a9061415c565b8015610dd75780601f10610dac57610100808354040283529160200191610dd7565b820191906000526020600020905b815481529060010190602001808311610dba57829003601f168201915b50505050509950878054610dea9061415c565b80601f0160208091040260200160405190810160405280929190818152602001828054610e169061415c565b8015610e635780601f10610e3857610100808354040283529160200191610e63565b820191906000526020600020905b815481529060010190602001808311610e4657829003601f168201915b50505050509750868054610e769061415c565b80601f0160208091040260200160405190810160405280929190818152602001828054610ea29061415c565b8015610eef5780601f10610ec457610100808354040283529160200191610eef565b820191906000526020600020905b815481529060010190602001808311610ed257829003601f168201915b50505050509650858054610f029061415c565b80601f0160208091040260200160405190810160405280929190818152602001828054610f2e9061415c565b8015610f7b5780601f10610f5057610100808354040283529160200191610f7b565b820191906000526020600020905b815481529060010190602001808311610f5e57829003601f168201915b50505050509550848054610f8e9061415c565b80601f0160208091040260200160405190810160405280929190818152602001828054610fba9061415c565b80156110075780601f10610fdc57610100808354040283529160200191611007565b820191906000526020600020905b815481529060010190602001808311610fea57829003601f168201915b5050505050945083805461101a9061415c565b80601f01602080910402602001604051908101604052809291908181526020018280546110469061415c565b80156110935780601f1061106857610100808354040283529160200191611093565b820191906000526020600020905b81548152906001019060200180831161107657829003601f168201915b505050505093508280546110a69061415c565b80601f01602080910402602001604051908101604052809291908181526020018280546110d29061415c565b801561111f5780601f106110f45761010080835404028352916020019161111f565b820191906000526020600020905b81548152906001019060200180831161110257829003601f168201915b505050505092508180546111329061415c565b80601f016020809104026020016040519081016040528092919081815260200182805461115e9061415c565b80156111ab5780601f10611180576101008083540402835291602001916111ab565b820191906000526020600020905b81548152906001019060200180831161118e57829003601f168201915b505050505091508080546111be9061415c565b80601f01602080910402602001604051908101604052809291908181526020018280546111ea9061415c565b80156112375780601f1061120c57610100808354040283529160200191611237565b820191906000526020600020905b81548152906001019060200180831161121a57829003601f168201915b505050505090509a509a509a509a509a509a509a509a509a509a50509193959799509193959799565b6000828152600b602052604090206007015482906001600160a01b0316331461129b5760405162461bcd60e51b81526004016106e39061432e565b6000838152600b60205260409020600681016112b7848261422b565b5050505050565b6112cc600980546001019055565b60006112d760095490565b6000818152600c60205260409020909150806112f3898261422b565b5060018101611302888261422b565b5060028101611311878261422b565b5060038101611320868261422b565b506004810161132f858261422b565b506005810161133e848261422b565b506006810180546001600160a01b031916339081179091556040517f54477a198cd7bd702e1bd40898d7605acfe83e3d6c753840135f61088802ab1b916113939185918c918c918c918c918c918c9190614371565b60405180910390a15050505050505050565b610784838383604051806020016040528060008152506127b6565b6060806060806060806000600c600089815260200190815260200160002090508060000181600101826002018360030184600401856005018580546114049061415c565b80601f01602080910402602001604051908101604052809291908181526020018280546114309061415c565b801561147d5780601f106114525761010080835404028352916020019161147d565b820191906000526020600020905b81548152906001019060200180831161146057829003601f168201915b505050505095508480546114909061415c565b80601f01602080910402602001604051908101604052809291908181526020018280546114bc9061415c565b80156115095780601f106114de57610100808354040283529160200191611509565b820191906000526020600020905b8154815290600101906020018083116114ec57829003601f168201915b5050505050945083805461151c9061415c565b80601f01602080910402602001604051908101604052809291908181526020018280546115489061415c565b80156115955780601f1061156a57610100808354040283529160200191611595565b820191906000526020600020905b81548152906001019060200180831161157857829003601f168201915b505050505093508280546115a89061415c565b80601f01602080910402602001604051908101604052809291908181526020018280546115d49061415c565b80156116215780601f106115f657610100808354040283529160200191611621565b820191906000526020600020905b81548152906001019060200180831161160457829003601f168201915b505050505092508180546116349061415c565b80601f01602080910402602001604051908101604052809291908181526020018280546116609061415c565b80156116ad5780601f10611682576101008083540402835291602001916116ad565b820191906000526020600020905b81548152906001019060200180831161169057829003601f168201915b505050505091508080546116c09061415c565b80601f01602080910402602001604051908101604052809291908181526020018280546116ec9061415c565b80156117395780601f1061170e57610100808354040283529160200191611739565b820191906000526020600020905b81548152906001019060200180831161171c57829003601f168201915b505050505090509650965096509650965096505091939550919395565b6060600061176360095490565b67ffffffffffffffff81111561177b5761177b6139dd565b6040519080825280602002602001820160405280156117a4578160200160208202803683370190505b50905060015b60095481116117ed5780826117c0600183614423565b815181106117d0576117d0614436565b6020908102919091010152806117e58161444c565b9150506117aa565b50919050565b6000818152600b60205260409020600701546060906001600160a01b0316331480611823575061182382336119c0565b61187d5760405162461bcd60e51b815260206004820152602560248201527f4e6f7420617574686f72697a656420746f2076696577206865616c7468207265604482015264636f72647360d81b60648201526084016106e3565b6000828152600b60209081526040808320600c0180548251818502810185019093528083529193909284015b828210156119555783829060005260206000200180546118c89061415c565b80601f01602080910402602001604051908101604052809291908181526020018280546118f49061415c565b80156119415780601f1061191657610100808354040283529160200191611941565b820191906000526020600020905b81548152906001019060200180831161192457829003601f168201915b5050505050815260200190600101906118a9565b505050509050919050565b6000818152600260205260408120546001600160a01b0316806105b05760405162461bcd60e51b8152602060048201526018602482015277115490cdcc8c4e881a5b9d985b1a59081d1bdad95b88125160421b60448201526064016106e3565b6000828152600b60205260408120815b6008820154811015611a3257836001600160a01b03168260080182815481106119fb576119fb614436565b6000918252602090912001546001600160a01b031603611a20576001925050506105b0565b80611a2a8161444c565b9150506119d0565b506000949350505050565b600080885111611a8f5760405162461bcd60e51b815260206004820152601c60248201527f50617469656e74206e616d652063616e6e6f7420626520656d7074790000000060448201526064016106e3565b611a9833613117565b15611ae55760405162461bcd60e51b815260206004820152601d60248201527f50617469656e7420697320616c7265616479207265676973746572656400000060448201526064016106e3565b611af3600880546001019055565b6000611afe60085490565b9050611b0a338261316a565b6000818152600b6020526040902080611b238b8261422b565b506001810189905560028101611b39898261422b565b5060038101611b48888261422b565b5060048101611b57878261422b565b5060058101611b66868261422b565b5060068101611b75858261422b565b506007810180546001600160a01b031916339081179091556040517fd97b83316548098fb626d0b4c8bcd18e016277a4f778ec3540d1efa8f469516a91611bca9185918e918e918e918e918e918e9190614465565b60405180910390a1611be0600880546001019055565b5098975050505050505050565b606060006060806060806060806060806000611c0833613117565b6000818152600b60205260408120919250829003611c5c5760405162461bcd60e51b815260206004820152601160248201527014185d1a595b9d081b9bdd08199bdd5b99607a1b60448201526064016106e3565b80600001816001015482600201836003018460040185600501866006018760090188600a0189600b01898054611c919061415c565b80601f0160208091040260200160405190810160405280929190818152602001828054611cbd9061415c565b8015611d0a5780601f10611cdf57610100808354040283529160200191611d0a565b820191906000526020600020905b815481529060010190602001808311611ced57829003601f168201915b50505050509950878054611d1d9061415c565b80601f0160208091040260200160405190810160405280929190818152602001828054611d499061415c565b8015611d965780601f10611d6b57610100808354040283529160200191611d96565b820191906000526020600020905b815481529060010190602001808311611d7957829003601f168201915b50505050509750868054611da99061415c565b80601f0160208091040260200160405190810160405280929190818152602001828054611dd59061415c565b8015611e225780601f10611df757610100808354040283529160200191611e22565b820191906000526020600020905b815481529060010190602001808311611e0557829003601f168201915b50505050509650858054611e359061415c565b80601f0160208091040260200160405190810160405280929190818152602001828054611e619061415c565b8015611eae5780601f10611e8357610100808354040283529160200191611eae565b820191906000526020600020905b815481529060010190602001808311611e9157829003601f168201915b50505050509550848054611ec19061415c565b80601f0160208091040260200160405190810160405280929190818152602001828054611eed9061415c565b8015611f3a5780601f10611f0f57610100808354040283529160200191611f3a565b820191906000526020600020905b815481529060010190602001808311611f1d57829003601f168201915b50505050509450838054611f4d9061415c565b80601f0160208091040260200160405190810160405280929190818152602001828054611f799061415c565b8015611fc65780601f10611f9b57610100808354040283529160200191611fc6565b820191906000526020600020905b815481529060010190602001808311611fa957829003601f168201915b50505050509350828054611fd99061415c565b80601f01602080910402602001604051908101604052809291908181526020018280546120059061415c565b80156120525780601f1061202757610100808354040283529160200191612052565b820191906000526020600020905b81548152906001019060200180831161203557829003601f168201915b505050505092508180546120659061415c565b80601f01602080910402602001604051908101604052809291908181526020018280546120919061415c565b80156120de5780601f106120b3576101008083540402835291602001916120de565b820191906000526020600020905b8154815290600101906020018083116120c157829003601f168201915b505050505091508080546120f19061415c565b80601f016020809104026020016040519081016040528092919081815260200182805461211d9061415c565b801561216a5780601f1061213f5761010080835404028352916020019161216a565b820191906000526020600020905b81548152906001019060200180831161214d57829003601f168201915b505050505090509b509b509b509b509b509b509b509b509b509b50505090919293949596979899565b60006001600160a01b0382166121fd5760405162461bcd60e51b815260206004820152602960248201527f4552433732313a2061646472657373207a65726f206973206e6f7420612076616044820152683634b21037bbb732b960b91b60648201526084016106e3565b506001600160a01b031660009081526003602052604090205490565b612221613184565b61222b60006131de565b565b6000818152600e602090815260409182902080548351818402810184019094528084526060939283018282801561228357602002820191906000526020600020905b81548152602001906001019080831161226f575b50505050509050919050565b60008061229b33613117565b151592915050565b60608060608060608060006122b733613230565b6000818152600c6020526040812091925082900361230c5760405162461bcd60e51b8152602060048201526012602482015271121bdcdc1a5d185b081b9bdd08199bdd5b9960721b60448201526064016106e3565b8060000181600101826002018360030184600401856005018580546123309061415c565b80601f016020809104026020016040519081016040528092919081815260200182805461235c9061415c565b80156123a95780601f1061237e576101008083540402835291602001916123a9565b820191906000526020600020905b81548152906001019060200180831161238c57829003601f168201915b505050505095508480546123bc9061415c565b80601f01602080910402602001604051908101604052809291908181526020018280546123e89061415c565b80156124355780601f1061240a57610100808354040283529160200191612435565b820191906000526020600020905b81548152906001019060200180831161241857829003601f168201915b505050505094508380546124489061415c565b80601f01602080910402602001604051908101604052809291908181526020018280546124749061415c565b80156124c15780601f10612496576101008083540402835291602001916124c1565b820191906000526020600020905b8154815290600101906020018083116124a457829003601f168201915b505050505093508280546124d49061415c565b80601f01602080910402602001604051908101604052809291908181526020018280546125009061415c565b801561254d5780601f106125225761010080835404028352916020019161254d565b820191906000526020600020905b81548152906001019060200180831161253057829003601f168201915b505050505092508180546125609061415c565b80601f016020809104026020016040519081016040528092919081815260200182805461258c9061415c565b80156125d95780601f106125ae576101008083540402835291602001916125d9565b820191906000526020600020905b8154815290600101906020018083116125bc57829003601f168201915b505050505091508080546125ec9061415c565b80601f01602080910402602001604051908101604052809291908181526020018280546126189061415c565b80156126655780601f1061263a57610100808354040283529160200191612665565b820191906000526020600020905b81548152906001019060200180831161264857829003601f168201915b505050505090509750975097509750975097505050909192939495565b6060600180546105c59061415c565b600061269c33613117565b905090565b6126ac33838361327a565b5050565b600061269c33613230565b6000828152600b602052604090206007015482906001600160a01b031633146126f65760405162461bcd60e51b81526004016106e39061432e565b6000838152600b602090815260408220600c810180546001810182559084529190922001612724848261422b565b507f7753ae1630faa78a291b1cd31bc43c1fcbba106a1666394a44fadaab2a1dc0fe8484604051612756929190614499565b60405180910390a150505050565b6000858152600d6020526040902060048101612780868261422b565b506005810161278f858261422b565b506006810161279e848261422b565b50600981016127ad838261422b565b50505050505050565b6127c03383612f35565b6127dc5760405162461bcd60e51b81526004016106e390614190565b6127e884848484613348565b50505050565b60606127f982612e68565b600082815260066020526040812080546128129061415c565b80601f016020809104026020016040519081016040528092919081815260200182805461283e9061415c565b801561288b5780601f106128605761010080835404028352916020019161288b565b820191906000526020600020905b81548152906001019060200180831161286e57829003601f168201915b5050505050905060006128a960408051602081019091526000815290565b905080516000036128bb575092915050565b8151156128ed5780826040516020016128d59291906144b2565b60405160208183030381529060405292505050919050565b6128f68461337b565b949350505050565b6000818152600f6020908152604091829020805483518184028101840190945280845260609392830182828015612283576020028201919060005260206000209081548152602001906001019080831161226f5750505050509050919050565b6000818152600b602052604090206007015460609082906001600160a01b0316331461299c5760405162461bcd60e51b81526004016106e39061432e565b6000838152600b60209081526040808320600c810180548351818602810186019094528084529194929390929084015b82821015612a785783829060005260206000200180546129eb9061415c565b80601f0160208091040260200160405190810160405280929190818152602001828054612a179061415c565b8015612a645780601f10612a3957610100808354040283529160200191612a64565b820191906000526020600020905b815481529060010190602001808311612a4757829003601f168201915b5050505050815260200190600101906129cc565b5050505092505050919050565b6000828152600b602052604090206007015482906001600160a01b03163314612ac05760405162461bcd60e51b81526004016106e39061432e565b6000838152600b602052604090206001600160a01b038316612b1d5760405162461bcd60e51b8152602060048201526016602482015275496e76616c696420766965776572206164647265737360501b60448201526064016106e3565b60005b60088201548110156112b757836001600160a01b0316826008018281548110612b4b57612b4b614436565b6000918252602090912001546001600160a01b031603612c6957600882018054612b7790600190614423565b81548110612b8757612b87614436565b6000918252602090912001546008830180546001600160a01b039092169183908110612bb557612bb5614436565b9060005260206000200160006101000a8154816001600160a01b0302191690836001600160a01b0316021790555081600801805480612bf657612bf66144e1565b600082815260209020810160001990810180546001600160a01b03191690550190556040517f5dbe2203a32c28f0202307d2aaf701d7927539cf61569040ae884fffb37e098290612c5c90879087909182526001600160a01b0316602082015260400190565b60405180910390a16112b7565b80612c738161444c565b915050612b20565b6000848152600b602052604090206007015484906001600160a01b03163314612cb65760405162461bcd60e51b81526004016106e39061432e565b6000858152600b6020526040902060098101612cd2868261422b565b50600a8101612ce1858261422b565b50600b81016127ad848261422b565b612cf8613184565b6001600160a01b038116612d5d5760405162461bcd60e51b815260206004820152602660248201527f4f776e61626c653a206e6577206f776e657220697320746865207a65726f206160448201526564647265737360d01b60648201526084016106e3565b612d66816131de565b50565b6000828152600b602052604090206007015482906001600160a01b03163314612da45760405162461bcd60e51b81526004016106e39061432e565b6000838152600b602090815260408083206008810180546001810182559085529383902090930180546001600160a01b0319166001600160a01b0387169081179091558151878152928301527ff16e9a03b0c54bb809a906ea44c85061c5b52ccbf9d5b6fe883ab548d5e31d8a9101612756565b60006001600160e01b031982166380ac58cd60e01b1480612e4957506001600160e01b03198216635b5e139f60e01b145b806105b057506301ffc9a760e01b6001600160e01b03198316146105b0565b6000818152600260205260409020546001600160a01b0316612d665760405162461bcd60e51b8152602060048201526018602482015277115490cdcc8c4e881a5b9d985b1a59081d1bdad95b88125160421b60448201526064016106e3565b600081815260046020526040902080546001600160a01b0319166001600160a01b0384169081179091558190612efc82611960565b6001600160a01b03167f8c5be1e5ebec7d5bd14f71427d1e84f3dd0314c0f7b2291e5b200ac8c7c3b92560405160405180910390a45050565b600080612f4183611960565b9050806001600160a01b0316846001600160a01b03161480612f8857506001600160a01b0380821660009081526005602090815260408083209388168352929052205460ff165b806128f65750836001600160a01b0316612fa184610648565b6001600160a01b031614949350505050565b826001600160a01b0316612fc682611960565b6001600160a01b031614612fec5760405162461bcd60e51b81526004016106e3906144f7565b6001600160a01b03821661304e5760405162461bcd60e51b8152602060048201526024808201527f4552433732313a207472616e7366657220746f20746865207a65726f206164646044820152637265737360e01b60648201526084016106e3565b826001600160a01b031661306182611960565b6001600160a01b0316146130875760405162461bcd60e51b81526004016106e3906144f7565b600081815260046020908152604080832080546001600160a01b03199081169091556001600160a01b0387811680865260038552838620805460001901905590871680865283862080546001019055868652600290945282852080549092168417909155905184937fddf252ad1be2c89b69c2b068fc378daa952ba7f163c4a11628f55a4df523b3ef91a4505050565b600060015b6008548111613161576000818152600b60205260409020600701546001600160a01b0380851691160361314f5792915050565b806131598161444c565b91505061311c565b50600092915050565b6126ac8282604051806020016040528060008152506133ef565b6007546001600160a01b0316331461222b5760405162461bcd60e51b815260206004820181905260248201527f4f776e61626c653a2063616c6c6572206973206e6f7420746865206f776e657260448201526064016106e3565b600780546001600160a01b038381166001600160a01b0319831681179093556040519116919082907f8be0079c531659141344cd1fd0a4f28419497f9722a3daafe3b4186f6b6457e090600090a35050565b600060015b6009548111613161576000818152600c60205260409020600601546001600160a01b038085169116036132685792915050565b806132728161444c565b915050613235565b816001600160a01b0316836001600160a01b0316036132db5760405162461bcd60e51b815260206004820152601960248201527f4552433732313a20617070726f766520746f2063616c6c65720000000000000060448201526064016106e3565b6001600160a01b03838116600081815260056020908152604080832094871680845294825291829020805460ff191686151590811790915591519182527f17307eab39ab6107e8899845ad3d59bd9653f200f220920489ca2b5937696c31910160405180910390a3505050565b613353848484612fb3565b61335f84848484613422565b6127e85760405162461bcd60e51b81526004016106e39061453c565b606061338682612e68565b600061339d60408051602081019091526000815290565b905060008151116133bd57604051806020016040528060008152506133e8565b806133c784613523565b6040516020016133d89291906144b2565b6040516020818303038152906040525b9392505050565b6133f983836135b6565b6134066000848484613422565b6107845760405162461bcd60e51b81526004016106e39061453c565b60006001600160a01b0384163b1561351857604051630a85bd0160e11b81526001600160a01b0385169063150b7a029061346690339089908890889060040161458e565b6020604051808303816000875af19250505080156134a1575060408051601f3d908101601f1916820190925261349e918101906145cb565b60015b6134fe573d8080156134cf576040519150601f19603f3d011682016040523d82523d6000602084013e6134d4565b606091505b5080516000036134f65760405162461bcd60e51b81526004016106e39061453c565b805181602001fd5b6001600160e01b031916630a85bd0160e11b1490506128f6565b506001949350505050565b6060600061353083613741565b600101905060008167ffffffffffffffff811115613550576135506139dd565b6040519080825280601f01601f19166020018201604052801561357a576020820181803683370190505b5090508181016020015b600019016f181899199a1a9b1b9c1cb0b131b232b360811b600a86061a8153600a850494508461358457509392505050565b6001600160a01b03821661360c5760405162461bcd60e51b815260206004820181905260248201527f4552433732313a206d696e7420746f20746865207a65726f206164647265737360448201526064016106e3565b6000818152600260205260409020546001600160a01b0316156136715760405162461bcd60e51b815260206004820152601c60248201527f4552433732313a20746f6b656e20616c7265616479206d696e7465640000000060448201526064016106e3565b6000818152600260205260409020546001600160a01b0316156136d65760405162461bcd60e51b815260206004820152601c60248201527f4552433732313a20746f6b656e20616c7265616479206d696e7465640000000060448201526064016106e3565b6001600160a01b038216600081815260036020908152604080832080546001019055848352600290915280822080546001600160a01b0319168417905551839291907fddf252ad1be2c89b69c2b068fc378daa952ba7f163c4a11628f55a4df523b3ef908290a45050565b60008072184f03e93ff9f4daa797ed6e38ed64bf6a1f0160401b83106137805772184f03e93ff9f4daa797ed6e38ed64bf6a1f0160401b830492506040015b6d04ee2d6d415b85acef810000000083106137ac576d04ee2d6d415b85acef8100000000830492506020015b662386f26fc1000083106137ca57662386f26fc10000830492506010015b6305f5e10083106137e2576305f5e100830492506008015b61271083106137f657612710830492506004015b60648310613808576064830492506002015b600a83106105b05760010192915050565b6001600160e01b031981168114612d6657600080fd5b60006020828403121561384157600080fd5b81356133e881613819565b60005b8381101561386757818101518382015260200161384f565b50506000910152565b6000815180845261388881602086016020860161384c565b601f01601f19169290920160200192915050565b6020815260006133e86020830184613870565b6000602082840312156138c157600080fd5b5035919050565b80356001600160a01b03811681146138df57600080fd5b919050565b600080604083850312156138f757600080fd5b613900836138c8565b946020939093013593505050565b60008060006060848603121561392357600080fd5b61392c846138c8565b925061393a602085016138c8565b9150604084013590509250925092565b60006101008a835289602084015280604084015261396a8184018a613870565b9050828103606084015261397e8189613870565b905082810360808401526139928188613870565b905082810360a08401526139a68187613870565b905082810360c08401526139ba8186613870565b905082810360e08401526139ce8185613870565b9b9a5050505050505050505050565b634e487b7160e01b600052604160045260246000fd5b600067ffffffffffffffff80841115613a0e57613a0e6139dd565b604051601f8501601f19908116603f01168101908282118183101715613a3657613a366139dd565b81604052809350858152868686011115613a4f57600080fd5b858560208301376000602087830101525050509392505050565b600082601f830112613a7a57600080fd5b6133e8838335602085016139f3565b60008060008060808587031215613a9f57600080fd5b8435935060208501359250604085013567ffffffffffffffff80821115613ac557600080fd5b613ad188838901613a69565b93506060870135915080821115613ae757600080fd5b50613af487828801613a69565b91505092959194509250565b6000610140808352613b148184018e613870565b90508b60208401528281036040840152613b2e818c613870565b90508281036060840152613b42818b613870565b90508281036080840152613b56818a613870565b905082810360a0840152613b6a8189613870565b905082810360c0840152613b7e8188613870565b905082810360e0840152613b928187613870565b9050828103610100840152613ba78186613870565b9050828103610120840152613bbc8185613870565b9d9c50505050505050505050505050565b60008060408385031215613be057600080fd5b82359150602083013567ffffffffffffffff811115613bfe57600080fd5b613c0a85828601613a69565b9150509250929050565b60008060008060008060c08789031215613c2d57600080fd5b863567ffffffffffffffff80821115613c4557600080fd5b613c518a838b01613a69565b97506020890135915080821115613c6757600080fd5b613c738a838b01613a69565b96506040890135915080821115613c8957600080fd5b613c958a838b01613a69565b95506060890135915080821115613cab57600080fd5b613cb78a838b01613a69565b94506080890135915080821115613ccd57600080fd5b613cd98a838b01613a69565b935060a0890135915080821115613cef57600080fd5b50613cfc89828a01613a69565b9150509295509295509295565b60c081526000613d1c60c0830189613870565b8281036020840152613d2e8189613870565b90508281036040840152613d428188613870565b90508281036060840152613d568187613870565b90508281036080840152613d6a8186613870565b905082810360a0840152613d7e8185613870565b9998505050505050505050565b6020808252825182820181905260009190848201906040850190845b81811015613dc357835183529284019291840191600101613da7565b50909695505050505050565b6000602080830181845280855180835260408601915060408160051b870101925083870160005b82811015613e2457603f19888603018452613e12858351613870565b94509285019290850190600101613df6565b5092979650505050505050565b60008060408385031215613e4457600080fd5b82359150613e54602084016138c8565b90509250929050565b600080600080600080600060e0888a031215613e7857600080fd5b873567ffffffffffffffff80821115613e9057600080fd5b613e9c8b838c01613a69565b985060208a0135975060408a0135915080821115613eb957600080fd5b613ec58b838c01613a69565b965060608a0135915080821115613edb57600080fd5b613ee78b838c01613a69565b955060808a0135915080821115613efd57600080fd5b613f098b838c01613a69565b945060a08a0135915080821115613f1f57600080fd5b613f2b8b838c01613a69565b935060c08a0135915080821115613f4157600080fd5b50613f4e8a828b01613a69565b91505092959891949750929550565b600060208284031215613f6f57600080fd5b6133e8826138c8565b60008060408385031215613f8b57600080fd5b613f94836138c8565b915060208301358015158114613fa957600080fd5b809150509250929050565b600080600080600060a08688031215613fcc57600080fd5b85359450602086013567ffffffffffffffff80821115613feb57600080fd5b613ff789838a01613a69565b9550604088013591508082111561400d57600080fd5b61401989838a01613a69565b9450606088013591508082111561402f57600080fd5b61403b89838a01613a69565b9350608088013591508082111561405157600080fd5b5061405e88828901613a69565b9150509295509295909350565b6000806000806080858703121561408157600080fd5b61408a856138c8565b9350614098602086016138c8565b925060408501359150606085013567ffffffffffffffff8111156140bb57600080fd5b8501601f810187136140cc57600080fd5b613af4878235602084016139f3565b600080604083850312156140ee57600080fd5b6140f7836138c8565b9150613e54602084016138c8565b6000806000806080858703121561411b57600080fd5b84359350602085013567ffffffffffffffff8082111561413a57600080fd5b61414688838901613a69565b94506040870135915080821115613ac557600080fd5b600181811c9082168061417057607f821691505b6020821081036117ed57634e487b7160e01b600052602260045260246000fd5b6020808252602d908201527f4552433732313a2063616c6c6572206973206e6f7420746f6b656e206f776e6560408201526c1c881bdc88185c1c1c9bdd9959609a1b606082015260800190565b601f82111561078457600081815260208120601f850160051c810160208610156142045750805b601f850160051c820191505b8181101561422357828155600101614210565b505050505050565b815167ffffffffffffffff811115614245576142456139dd565b61425981614253845461415c565b846141dd565b602080601f83116001811461428e57600084156142765750858301515b600019600386901b1c1916600185901b178555614223565b600085815260208120601f198616915b828110156142bd5788860151825594840194600190910190840161429e565b50858210156142db5787850151600019600388901b60f8161c191681555b5050505050600190811b01905550565b85815284602082015283604082015260a06060820152600061431060a0830185613870565b82810360808401526143228185613870565b98975050505050505050565b60208082526023908201527f4e6f7420746865206f776e6572206f66207468652070617469656e74207265636040820152621bdc9960ea1b606082015260800190565b60006101008a835280602084015261438b8184018b613870565b9050828103604084015261439f818a613870565b905082810360608401526143b38189613870565b905082810360808401526143c78188613870565b905082810360a08401526143db8187613870565b905082810360c08401526143ef8186613870565b91505060018060a01b03831660e08301529998505050505050505050565b634e487b7160e01b600052601160045260246000fd5b818103818111156105b0576105b061440d565b634e487b7160e01b600052603260045260246000fd5b60006001820161445e5761445e61440d565b5060010190565b60006101008a835280602084015261447f8184018b613870565b905088604084015282810360608401526143b38189613870565b8281526040602082015260006128f66040830184613870565b600083516144c481846020880161384c565b8351908301906144d881836020880161384c565b01949350505050565b634e487b7160e01b600052603160045260246000fd5b60208082526025908201527f4552433732313a207472616e736665722066726f6d20696e636f72726563742060408201526437bbb732b960d91b606082015260800190565b60208082526032908201527f4552433732313a207472616e7366657220746f206e6f6e20455243373231526560408201527131b2b4bb32b91034b6b83632b6b2b73a32b960711b606082015260800190565b6001600160a01b03858116825284166020820152604081018390526080606082018190526000906145c190830184613870565b9695505050505050565b6000602082840312156145dd57600080fd5b81516133e88161381956fea2646970667358221220b1d86091705f83e8e4cc42b241b9e47fcae1cce7413b73ec459f876cc941d94864736f6c63430008110033",
  "linkReferences": {},
  "deployedLinkReferences": {}
}