{
  "_format": "hh-sol-artifact-1",
  "contractName": "MyNFT",
  "sourceName": "contracts/MyNFT.sol",
  "abi": [
    {
      "inputs": [],
      "stateMutability": "nonpayable",
      "type": "constructor"
    },
    {
      "anonymous": false,
      "inputs": [
        {
          "indexed": false,
          "internalType": "uint256",
          "name": "appointmentId",
          "type": "uint256"
        },
        {
          "indexed": false,
          "internalType": "uint256",
          "name": "patientId",
          "type": "uint256"
        },
        {
          "indexed": false,
          "internalType": "uint256",
          "name": "hospitalId",
          "type": "uint256"
        },
        {
          "indexed": false,
          "internalType": "string",
          "name": "date",
          "type": "string"
        },
        {
          "indexed": false,
          "internalType": "string",
          "name": "description",
          "type": "string"
        }
      ],
      "name": "AppointmentCreated",
      "type": "event"
    },
    {
      "anonymous": false,
      "inputs": [
        {
          "indexed": true,
          "internalType": "address",
          "name": "owner",
          "type": "address"
        },
        {
          "indexed": true,
          "internalType": "address",
          "name": "approved",
          "type": "address"
        },
        {
          "indexed": true,
          "internalType": "uint256",
          "name": "tokenId",
          "type": "uint256"
        }
      ],
      "name": "Approval",
      "type": "event"
    },
    {
      "anonymous": false,
      "inputs": [
        {
          "indexed": true,
          "internalType": "address",
          "name": "owner",
          "type": "address"
        },
        {
          "indexed": true,
          "internalType": "address",
          "name": "operator",
          "type": "address"
        },
        {
          "indexed": false,
          "internalType": "bool",
          "name": "approved",
          "type": "bool"
        }
      ],
      "name": "ApprovalForAll",
      "type": "event"
    },
    {
      "anonymous": false,
      "inputs": [
        {
          "indexed": false,
          "internalType": "uint256",
          "name": "patientId",
          "type": "uint256"
        },
        {
          "indexed": false,
          "internalType": "address",
          "name": "viewer",
          "type": "address"
        }
      ],
      "name": "AuthorizedViewerAdded",
      "type": "event"
    },
    {
      "anonymous": false,
      "inputs": [
        {
          "indexed": false,
          "internalType": "uint256",
          "name": "patientId",
          "type": "uint256"
        },
        {
          "indexed": false,
          "internalType": "address",
          "name": "viewer",
          "type": "address"
        }
      ],
      "name": "AuthorizedViewerRemoved",
      "type": "event"
    },
    {
      "anonymous": false,
      "inputs": [
        {
          "indexed": false,
          "internalType": "uint256",
          "name": "_fromTokenId",
          "type": "uint256"
        },
        {
          "indexed": false,
          "internalType": "uint256",
          "name": "_toTokenId",
          "type": "uint256"
        }
      ],
      "name": "BatchMetadataUpdate",
      "type": "event"
    },
    {
      "anonymous": false,
      "inputs": [
        {
          "indexed": false,
          "internalType": "uint256",
          "name": "patientId",
          "type": "uint256"
        },
        {
          "indexed": false,
          "internalType": "string",
          "name": "ipfsHash",
          "type": "string"
        }
      ],
      "name": "HealthRecordAdded",
      "type": "event"
    },
    {
      "anonymous": false,
      "inputs": [
        {
          "indexed": false,
          "internalType": "uint256",
          "name": "hospitalId",
          "type": "uint256"
        },
        {
          "indexed": false,
          "internalType": "string",
          "name": "name",
          "type": "string"
        },
        {
          "indexed": false,
          "internalType": "string",
          "name": "h_type",
          "type": "string"
        },
        {
          "indexed": false,
          "internalType": "string",
          "name": "hospitalAddress",
          "type": "string"
        },
        {
          "indexed": false,
          "internalType": "string",
          "name": "state",
          "type": "string"
        },
        {
          "indexed": false,
          "internalType": "string",
          "name": "district",
          "type": "string"
        },
        {
          "indexed": false,
          "internalType": "string",
          "name": "link",
          "type": "string"
        },
        {
          "indexed": false,
          "internalType": "address",
          "name": "hospitalWallet",
          "type": "address"
        }
      ],
      "name": "HospitalRegistered",
      "type": "event"
    },
    {
      "anonymous": false,
      "inputs": [
        {
          "indexed": false,
          "internalType": "uint256",
          "name": "_tokenId",
          "type": "uint256"
        }
      ],
      "name": "MetadataUpdate",
      "type": "event"
    },
    {
      "anonymous": false,
      "inputs": [
        {
          "indexed": true,
          "internalType": "address",
          "name": "previousOwner",
          "type": "address"
        },
        {
          "indexed": true,
          "internalType": "address",
          "name": "newOwner",
          "type": "address"
        }
      ],
      "name": "OwnershipTransferred",
      "type": "event"
    },
    {
      "anonymous": false,
      "inputs": [
        {
          "indexed": false,
          "internalType": "uint256",
          "name": "patientId",
          "type": "uint256"
        },
        {
          "indexed": false,
          "internalType": "string",
          "name": "name",
          "type": "string"
        },
        {
          "indexed": false,
          "internalType": "uint256",
          "name": "age",
          "type": "uint256"
        },
        {
          "indexed": false,
          "internalType": "string",
          "name": "dob",
          "type": "string"
        },
        {
          "indexed": false,
          "internalType": "string",
          "name": "gender",
          "type": "string"
        },
        {
          "indexed": false,
          "internalType": "string",
          "name": "contactNumber",
          "type": "string"
        },
        {
          "indexed": false,
          "internalType": "string",
          "name": "email",
          "type": "string"
        },
        {
          "indexed": false,
          "internalType": "address",
          "name": "patientWallet",
          "type": "address"
        }
      ],
      "name": "PatientRegistered",
      "type": "event"
    },
    {
      "anonymous": false,
      "inputs": [
        {
          "indexed": true,
          "internalType": "address",
          "name": "from",
          "type": "address"
        },
        {
          "indexed": true,
          "internalType": "address",
          "name": "to",
          "type": "address"
        },
        {
          "indexed": true,
          "internalType": "uint256",
          "name": "tokenId",
          "type": "uint256"
        }
      ],
      "name": "Transfer",
      "type": "event"
    },
    {
      "inputs": [
        {
          "internalType": "uint256",
          "name": "_patientId",
          "type": "uint256"
        },
        {
          "internalType": "address",
          "name": "_viewer",
          "type": "address"
        }
      ],
      "name": "addAuthorizedViewer",
      "outputs": [],
      "stateMutability": "nonpayable",
      "type": "function"
    },
    {
      "inputs": [
        {
          "internalType": "uint256",
          "name": "_patientId",
          "type": "uint256"
        },
        {
          "internalType": "string",
          "name": "_ipfsHash",
          "type": "string"
        }
      ],
      "name": "addHealthRecord",
      "outputs": [],
      "stateMutability": "nonpayable",
      "type": "function"
    },
    {
      "inputs": [
        {
          "internalType": "address",
          "name": "to",
          "type": "address"
        },
        {
          "internalType": "uint256",
          "name": "tokenId",
          "type": "uint256"
        }
      ],
      "name": "approve",
      "outputs": [],
      "stateMutability": "nonpayable",
      "type": "function"
    },
    {
      "inputs": [
        {
          "internalType": "address",
          "name": "owner",
          "type": "address"
        }
      ],
      "name": "balanceOf",
      "outputs": [
        {
          "internalType": "uint256",
          "name": "",
          "type": "uint256"
        }
      ],
      "stateMutability": "view",
      "type": "function"
    },
    {
      "inputs": [],
      "name": "checkPatientRegistration",
      "outputs": [
        {
          "internalType": "bool",
          "name": "",
          "type": "bool"
        }
      ],
      "stateMutability": "view",
      "type": "function"
    },
    {
      "inputs": [
        {
          "internalType": "uint256",
          "name": "_patientId",
          "type": "uint256"
        },
        {
          "internalType": "uint256",
          "name": "_hospitalId",
          "type": "uint256"
        },
        {
          "internalType": "string",
          "name": "_date",
          "type": "string"
        },
        {
          "internalType": "string",
          "name": "_description",
          "type": "string"
        }
      ],
      "name": "createAppointment",
      "outputs": [],
      "stateMutability": "nonpayable",
      "type": "function"
    },
    {
      "inputs": [
        {
          "internalType": "uint256",
          "name": "_patientId",
          "type": "uint256"
        },
        {
          "internalType": "string",
          "name": "_height",
          "type": "string"
        },
        {
          "internalType": "string",
          "name": "_weight",
          "type": "string"
        },
        {
          "internalType": "string",
          "name": "_bloodPressure",
          "type": "string"
        }
      ],
      "name": "createHealthRecord",
      "outputs": [],
      "stateMutability": "nonpayable",
      "type": "function"
    },
    {
      "inputs": [
        {
          "internalType": "uint256",
          "name": "_app_id",
          "type": "uint256"
        },
        {
          "internalType": "string",
          "name": "_feild1",
          "type": "string"
        },
        {
          "internalType": "string",
          "name": "_f3",
          "type": "string"
        },
        {
          "internalType": "string",
          "name": "_f4",
          "type": "string"
        },
        {
          "internalType": "string",
          "name": "_f5",
          "type": "string"
        }
      ],
      "name": "createPrescription",
      "outputs": [],
      "stateMutability": "nonpayable",
      "type": "function"
    },
    {
      "inputs": [],
      "name": "getAllHospitals",
      "outputs": [
        {
          "internalType": "uint256[]",
          "name": "",
          "type": "uint256[]"
        }
      ],
      "stateMutability": "view",
      "type": "function"
    },
    {
      "inputs": [
        {
          "internalType": "uint256",
          "name": "_appointmentId",
          "type": "uint256"
        }
      ],
      "name": "getAppointmentDetails",
      "outputs": [
        {
          "internalType": "uint256",
          "name": "patientId",
          "type": "uint256"
        },
        {
          "internalType": "uint256",
          "name": "hospitalId",
          "type": "uint256"
        },
        {
          "internalType": "string",
          "name": "date",
          "type": "string"
        },
        {
          "internalType": "string",
          "name": "description",
          "type": "string"
        },
        {
          "internalType": "string",
          "name": "stringField1",
          "type": "string"
        },
        {
          "internalType": "string",
          "name": "stringField2",
          "type": "string"
        },
        {
          "internalType": "string",
          "name": "stringField3",
          "type": "string"
        },
        {
          "internalType": "string",
          "name": "followUpDate",
          "type": "string"
        }
      ],
      "stateMutability": "view",
      "type": "function"
    },
    {
      "inputs": [
        {
          "internalType": "uint256",
          "name": "tokenId",
          "type": "uint256"
        }
      ],
      "name": "getApproved",
      "outputs": [
        {
          "internalType": "address",
          "name": "",
          "type": "address"
        }
      ],
      "stateMutability": "view",
      "type": "function"
    },
    {
      "inputs": [
        {
          "internalType": "uint256",
          "name": "_patientId",
          "type": "uint256"
        }
      ],
      "name": "getHealthRecordIpfsHashes",
      "outputs": [
        {
          "internalType": "string[]",
          "name": "",
          "type": "string[]"
        }
      ],
      "stateMutability": "view",
      "type": "function"
    },
    {
      "inputs": [
        {
          "internalType": "uint256",
          "name": "_patientId",
          "type": "uint256"
        }
      ],
      "name": "getHealthRecords",
      "outputs": [
        {
          "internalType": "string[]",
          "name": "",
          "type": "string[]"
        }
      ],
      "stateMutability": "view",
      "type": "function"
    },
    {
      "inputs": [
        {
          "internalType": "uint256",
          "name": "_HospitalId",
          "type": "uint256"
        }
      ],
      "name": "getHospitalAppointments",
      "outputs": [
        {
          "internalType": "uint256[]",
          "name": "",
          "type": "uint256[]"
        }
      ],
      "stateMutability": "view",
      "type": "function"
    },
    {
      "inputs": [
        {
          "internalType": "uint256",
          "name": "_hospitalId",
          "type": "uint256"
        }
      ],
      "name": "getHospitalDetails",
      "outputs": [
        {
          "internalType": "string",
          "name": "name",
          "type": "string"
        },
        {
          "internalType": "string",
          "name": "h_type",
          "type": "string"
        },
        {
          "internalType": "string",
          "name": "hospitalAddress",
          "type": "string"
        },
        {
          "internalType": "string",
          "name": "state",
          "type": "string"
        },
        {
          "internalType": "string",
          "name": "district",
          "type": "string"
        },
        {
          "internalType": "string",
          "name": "link",
          "type": "string"
        }
      ],
      "stateMutability": "view",
      "type": "function"
    },
    {
      "inputs": [],
      "name": "getHospitalDetailsByAddress",
      "outputs": [
        {
          "internalType": "string",
          "name": "name",
          "type": "string"
        },
        {
          "internalType": "string",
          "name": "h_type",
          "type": "string"
        },
        {
          "internalType": "string",
          "name": "hospitalAddress",
          "type": "string"
        }
      ],
      "stateMutability": "view",
      "type": "function"
    },
    {
      "inputs": [],
      "name": "getHospitalIdByAddress",
      "outputs": [
        {
          "internalType": "uint256",
          "name": "",
          "type": "uint256"
        }
      ],
      "stateMutability": "view",
      "type": "function"
    },
    {
      "inputs": [
        {
          "internalType": "uint256",
          "name": "_patientId",
          "type": "uint256"
        }
      ],
      "name": "getPatientAppointments",
      "outputs": [
        {
          "internalType": "uint256[]",
          "name": "",
          "type": "uint256[]"
        }
      ],
      "stateMutability": "view",
      "type": "function"
    },
    {
      "inputs": [
        {
          "internalType": "uint256",
          "name": "_patientId",
          "type": "uint256"
        }
      ],
      "name": "getPatientDetails",
      "outputs": [
        {
          "internalType": "string",
          "name": "name",
          "type": "string"
        },
        {
          "internalType": "uint256",
          "name": "age",
          "type": "uint256"
        },
        {
          "internalType": "string",
          "name": "dob",
          "type": "string"
        },
        {
          "internalType": "string",
          "name": "gender",
          "type": "string"
        },
        {
          "internalType": "string",
          "name": "contactNumber",
          "type": "string"
        },
        {
          "internalType": "string",
          "name": "email",
          "type": "string"
        },
        {
          "internalType": "string",
          "name": "medicalHistory",
          "type": "string"
        },
        {
          "internalType": "string",
          "name": "height",
          "type": "string"
        },
        {
          "internalType": "string",
          "name": "weight",
          "type": "string"
        },
        {
          "internalType": "string",
          "name": "bloodPressure",
          "type": "string"
        }
      ],
      "stateMutability": "view",
      "type": "function"
    },
    {
      "inputs": [],
      "name": "getPatientDetailsByAddress",
      "outputs": [
        {
          "internalType": "string",
          "name": "name",
          "type": "string"
        },
        {
          "internalType": "uint256",
          "name": "age",
          "type": "uint256"
        },
        {
          "internalType": "string",
          "name": "dob",
          "type": "string"
        },
        {
          "internalType": "string",
          "name": "gender",
          "type": "string"
        },
        {
          "internalType": "string",
          "name": "contactNumber",
          "type": "string"
        },
        {
          "internalType": "string",
          "name": "email",
          "type": "string"
        },
        {
          "internalType": "string",
          "name": "medicalHistory",
          "type": "string"
        },
        {
          "internalType": "string",
          "name": "height",
          "type": "string"
        },
        {
          "internalType": "string",
          "name": "weight",
          "type": "string"
        },
        {
          "internalType": "string",
          "name": "bloodPressure",
          "type": "string"
        }
      ],
      "stateMutability": "view",
      "type": "function"
    },
    {
      "inputs": [],
      "name": "getPatientIdByAddress",
      "outputs": [
        {
          "internalType": "uint256",
          "name": "",
          "type": "uint256"
        }
      ],
      "stateMutability": "view",
      "type": "function"
    },
    {
      "inputs": [
        {
          "internalType": "address",
          "name": "owner",
          "type": "address"
        },
        {
          "internalType": "address",
          "name": "operator",
          "type": "address"
        }
      ],
      "name": "isApprovedForAll",
      "outputs": [
        {
          "internalType": "bool",
          "name": "",
          "type": "bool"
        }
      ],
      "stateMutability": "view",
      "type": "function"
    },
    {
      "inputs": [
        {
          "internalType": "uint256",
          "name": "_patientId",
          "type": "uint256"
        },
        {
          "internalType": "address",
          "name": "_viewer",
          "type": "address"
        }
      ],
      "name": "isAuthorizedViewer",
      "outputs": [
        {
          "internalType": "bool",
          "name": "",
          "type": "bool"
        }
      ],
      "stateMutability": "view",
      "type": "function"
    },
    {
      "inputs": [],
      "name": "name",
      "outputs": [
        {
          "internalType": "string",
          "name": "",
          "type": "string"
        }
      ],
      "stateMutability": "view",
      "type": "function"
    },
    {
      "inputs": [],
      "name": "owner",
      "outputs": [
        {
          "internalType": "address",
          "name": "",
          "type": "address"
        }
      ],
      "stateMutability": "view",
      "type": "function"
    },
    {
      "inputs": [
        {
          "internalType": "uint256",
          "name": "tokenId",
          "type": "uint256"
        }
      ],
      "name": "ownerOf",
      "outputs": [
        {
          "internalType": "address",
          "name": "",
          "type": "address"
        }
      ],
      "stateMutability": "view",
      "type": "function"
    },
    {
      "inputs": [
        {
          "internalType": "string",
          "name": "_name",
          "type": "string"
        },
        {
          "internalType": "string",
          "name": "_h_type",
          "type": "string"
        },
        {
          "internalType": "string",
          "name": "_address",
          "type": "string"
        },
        {
          "internalType": "string",
          "name": "_state",
          "type": "string"
        },
        {
          "internalType": "string",
          "name": "_district",
          "type": "string"
        },
        {
          "internalType": "string",
          "name": "_link",
          "type": "string"
        }
      ],
      "name": "registerHospital",
      "outputs": [],
      "stateMutability": "nonpayable",
      "type": "function"
    },
    {
      "inputs": [
        {
          "internalType": "string",
          "name": "_name",
          "type": "string"
        },
        {
          "internalType": "uint256",
          "name": "_age",
          "type": "uint256"
        },
        {
          "internalType": "string",
          "name": "_dob",
          "type": "string"
        },
        {
          "internalType": "string",
          "name": "_gender",
          "type": "string"
        },
        {
          "internalType": "string",
          "name": "_contactNumber",
          "type": "string"
        },
        {
          "internalType": "string",
          "name": "_email",
          "type": "string"
        },
        {
          "internalType": "string",
          "name": "_medicalHistory",
          "type": "string"
        }
      ],
      "name": "registerPatient",
      "outputs": [
        {
          "internalType": "uint256",
          "name": "",
          "type": "uint256"
        }
      ],
      "stateMutability": "nonpayable",
      "type": "function"
    },
    {
      "inputs": [
        {
          "internalType": "uint256",
          "name": "_patientId",
          "type": "uint256"
        },
        {
          "internalType": "address",
          "name": "_viewer",
          "type": "address"
        }
      ],
      "name": "removeAuthorizedViewer",
      "outputs": [],
      "stateMutability": "nonpayable",
      "type": "function"
    },
    {
      "inputs": [],
      "name": "renounceOwnership",
      "outputs": [],
      "stateMutability": "nonpayable",
      "type": "function"
    },
    {
      "inputs": [
        {
          "internalType": "address",
          "name": "from",
          "type": "address"
        },
        {
          "internalType": "address",
          "name": "to",
          "type": "address"
        },
        {
          "internalType": "uint256",
          "name": "tokenId",
          "type": "uint256"
        }
      ],
      "name": "safeTransferFrom",
      "outputs": [],
      "stateMutability": "nonpayable",
      "type": "function"
    },
    {
      "inputs": [
        {
          "internalType": "address",
          "name": "from",
          "type": "address"
        },
        {
          "internalType": "address",
          "name": "to",
          "type": "address"
        },
        {
          "internalType": "uint256",
          "name": "tokenId",
          "type": "uint256"
        },
        {
          "internalType": "bytes",
          "name": "data",
          "type": "bytes"
        }
      ],
      "name": "safeTransferFrom",
      "outputs": [],
      "stateMutability": "nonpayable",
      "type": "function"
    },
    {
      "inputs": [
        {
          "internalType": "address",
          "name": "operator",
          "type": "address"
        },
        {
          "internalType": "bool",
          "name": "approved",
          "type": "bool"
        }
      ],
      "name": "setApprovalForAll",
      "outputs": [],
      "stateMutability": "nonpayable",
      "type": "function"
    },
    {
      "inputs": [
        {
          "internalType": "bytes4",
          "name": "interfaceId",
          "type": "bytes4"
        }
      ],
      "name": "supportsInterface",
      "outputs": [
        {
          "internalType": "bool",
          "name": "",
          "type": "bool"
        }
      ],
      "stateMutability": "view",
      "type": "function"
    },
    {
      "inputs": [],
      "name": "symbol",
      "outputs": [
        {
          "internalType": "string",
          "name": "",
          "type": "string"
        }
      ],
      "stateMutability": "view",
      "type": "function"
    },
    {
      "inputs": [
        {
          "internalType": "uint256",
          "name": "tokenId",
          "type": "uint256"
        }
      ],
      "name": "tokenURI",
      "outputs": [
        {
          "internalType": "string",
          "name": "",
          "type": "string"
        }
      ],
      "stateMutability": "view",
      "type": "function"
    },
    {
      "inputs": [
        {
          "internalType": "address",
          "name": "from",
          "type": "address"
        },
        {
          "internalType": "address",
          "name": "to",
          "type": "address"
        },
        {
          "internalType": "uint256",
          "name": "tokenId",
          "type": "uint256"
        }
      ],
      "name": "transferFrom",
      "outputs": [],
      "stateMutability": "nonpayable",
      "type": "function"
    },
    {
      "inputs": [
        {
          "internalType": "address",
          "name": "newOwner",
          "type": "address"
        }
      ],
      "name": "transferOwnership",
      "outputs": [],
      "stateMutability": "nonpayable",
      "type": "function"
    },
    {
      "inputs": [
        {
          "internalType": "uint256",
          "name": "_patientId",
          "type": "uint256"
        },
        {
          "internalType": "string",
          "name": "_newMedicalHistory",
          "type": "string"
        }
      ],
      "name": "updateMedicalHistory",
      "outputs": [],
      "stateMutability": "nonpayable",
      "type": "function"
    }
  ],
  "bytecode": "0x60806040523480156200001157600080fd5b506040518060400160405280600d81526020016c1219585b1d1a18d85c99539195609a1b815250604051806040016040528060038152602001622421a760e91b815250816000908162000065919062000192565b50600162000074828262000192565b505050620000916200008b6200009760201b60201c565b6200009b565b6200025e565b3390565b600780546001600160a01b038381166001600160a01b0319831681179093556040519116919082907f8be0079c531659141344cd1fd0a4f28419497f9722a3daafe3b4186f6b6457e090600090a35050565b634e487b7160e01b600052604160045260246000fd5b600181811c908216806200011857607f821691505b6020821081036200013957634e487b7160e01b600052602260045260246000fd5b50919050565b601f8211156200018d57600081815260208120601f850160051c81016020861015620001685750805b601f850160051c820191505b81811015620001895782815560010162000174565b5050505b505050565b81516001600160401b03811115620001ae57620001ae620000ed565b620001c681620001bf845462000103565b846200013f565b602080601f831160018114620001fe5760008415620001e55750858301515b600019600386901b1c1916600185901b17855562000189565b600085815260208120601f198616915b828110156200022f578886015182559484019460019091019084016200020e565b50858210156200024e5787850151600019600388901b60f8161c191681555b5050505050600190811b01905550565b6144a9806200026e6000396000f3fe608060405234801561001057600080fd5b506004361061023d5760003560e01c8063715018a61161013b578063ab0e52a8116100b8578063e0f496f81161007c578063e0f496f814610512578063e985e9c514610525578063ef1017c314610561578063f2fde38b14610574578063feb8cef31461058757600080fd5b8063ab0e52a8146104b3578063b88d4fde146104c6578063c87b56dd146104d9578063d20c2645146104ec578063d95a19a5146104ff57600080fd5b806395d89b41116100ff57806395d89b41146104755780639a837c971461047d578063a22cb46514610485578063a4705d6414610498578063a98cd9e7146104a057600080fd5b8063715018a61461042a5780637697d27b1461043257806389149296146104455780638c1f28f31461044d5780638da5cb5b1461046457600080fd5b8063389aec7f116101c95780636352211e1161018d5780636352211e146103c8578063652d7ded146103db578063675ec751146103ee5780636ccda1b51461040f57806370a082311461041757600080fd5b8063389aec7f1461034857806342842e0e1461035b5780634b0a75731461036e5780634e9f7154146103935780635deb444b146103a857600080fd5b806323b872dd1161021057806323b872dd146102bf578063274894d7146102d257806328b48042146102f9578063300c601c1461030c5780633343696c1461033557600080fd5b806301ffc9a71461024257806306fdde031461026a578063081812fc1461027f578063095ea7b3146102aa575b600080fd5b610255610250366004613681565b61059a565b60405190151581526020015b60405180910390f35b6102726105c5565b60405161026191906136ee565b61029261028d366004613701565b610657565b6040516001600160a01b039091168152602001610261565b6102bd6102b8366004613736565b61067e565b005b6102bd6102cd366004613760565b610798565b6102e56102e0366004613701565b6107c9565b60405161026198979695949392919061379c565b6102bd6103073660046138db565b610b72565b61031f61031a366004613701565b610c9a565b6040516102619a99989796959493929190613952565b6102bd610343366004613a1f565b61126f565b6102bd610356366004613a66565b6112cd565b6102bd610369366004613760565b6113b4565b61038161037c366004613701565b6113cf565b60405161026196959493929190613b5b565b61039b611765565b6040516102619190613bdd565b6103bb6103b6366004613701565b611802565b6040516102619190613c21565b6102926103d6366004613701565b61196f565b6102556103e9366004613c83565b6119cf565b6104016103fc366004613caf565b611a4c565b604051908152602001610261565b61031f611bfc565b610401610425366004613daf565b6121a2565b6102bd612228565b61039b610440366004613701565b61223c565b61025561229e565b6104556122b2565b60405161026193929190613dca565b6007546001600160a01b0316610292565b6102726124d4565b6104016124e3565b6102bd610493366004613e0d565b6124f3565b610401612502565b6102bd6104ae366004613a1f565b61250d565b6102bd6104c1366004613e49565b6125b6565b6102bd6104d4366004613f00565b612608565b6102726104e7366004613701565b612640565b61039b6104fa366004613701565b612750565b6103bb61050d366004613701565b6127b0565b6102bd610520366004613c83565b6128d7565b610255610533366004613f70565b6001600160a01b03918216600090815260056020908152604080832093909416825291909152205460ff1690565b6102bd61056f366004613f9a565b612acd565b6102bd610582366004613daf565b612b42565b6102bd610595366004613c83565b612bbb565b60006001600160e01b03198216632483248360e11b14806105bf57506105bf82612c6a565b92915050565b6060600080546105d490613ff1565b80601f016020809104026020016040519081016040528092919081815260200182805461060090613ff1565b801561064d5780601f106106225761010080835404028352916020019161064d565b820191906000526020600020905b81548152906001019060200180831161063057829003601f168201915b5050505050905090565b600061066282612cba565b506000908152600460205260409020546001600160a01b031690565b60006106898261196f565b9050806001600160a01b0316836001600160a01b0316036106fb5760405162461bcd60e51b815260206004820152602160248201527f4552433732313a20617070726f76616c20746f2063757272656e74206f776e656044820152603960f91b60648201526084015b60405180910390fd5b336001600160a01b038216148061071757506107178133610533565b6107895760405162461bcd60e51b815260206004820152603d60248201527f4552433732313a20617070726f76652063616c6c6572206973206e6f7420746f60448201527f6b656e206f776e6572206f7220617070726f76656420666f7220616c6c00000060648201526084016106f2565b6107938383612d19565b505050565b6107a23382612d87565b6107be5760405162461bcd60e51b81526004016106f290614025565b610793838383612e05565b6000806060806060806060806000600d60008b815260200190815260200160002090508060000154816001015482600201836003018460040185600501866006018760090185805461081a90613ff1565b80601f016020809104026020016040519081016040528092919081815260200182805461084690613ff1565b80156108935780601f1061086857610100808354040283529160200191610893565b820191906000526020600020905b81548152906001019060200180831161087657829003601f168201915b505050505095508480546108a690613ff1565b80601f01602080910402602001604051908101604052809291908181526020018280546108d290613ff1565b801561091f5780601f106108f45761010080835404028352916020019161091f565b820191906000526020600020905b81548152906001019060200180831161090257829003601f168201915b5050505050945083805461093290613ff1565b80601f016020809104026020016040519081016040528092919081815260200182805461095e90613ff1565b80156109ab5780601f10610980576101008083540402835291602001916109ab565b820191906000526020600020905b81548152906001019060200180831161098e57829003601f168201915b505050505093508280546109be90613ff1565b80601f01602080910402602001604051908101604052809291908181526020018280546109ea90613ff1565b8015610a375780601f10610a0c57610100808354040283529160200191610a37565b820191906000526020600020905b815481529060010190602001808311610a1a57829003601f168201915b50505050509250818054610a4a90613ff1565b80601f0160208091040260200160405190810160405280929190818152602001828054610a7690613ff1565b8015610ac35780601f10610a9857610100808354040283529160200191610ac3565b820191906000526020600020905b815481529060010190602001808311610aa657829003601f168201915b50505050509150808054610ad690613ff1565b80601f0160208091040260200160405190810160405280929190818152602001828054610b0290613ff1565b8015610b4f5780601f10610b2457610100808354040283529160200191610b4f565b820191906000526020600020905b815481529060010190602001808311610b3257829003601f168201915b505050505090509850985098509850985098509850985050919395975091939597565b6000815111610bc35760405162461bcd60e51b815260206004820152601b60248201527f4465736372697074696f6e2063616e6e6f7420626520656d707479000000000060448201526064016106f2565b610bd1600a80546001019055565b6000610bdc600a5490565b6000818152600d602052604090208681556001810186905590915060028101610c0585826140c0565b5060038101610c1484826140c0565b506000868152600e6020908152604080832080546001818101835591855283852001869055898452600f83528184208054918201815584529190922001839055517fc16a6c775a53f24d2dbd47b373bdf6f373783493e94e8ebaa3f4e06ca066932590610c8a9084908990899089908990614180565b60405180910390a1505050505050565b6000818152600b6020526040812060078101546060929183918291829182918291829182918291906001600160a01b0316331480610cdd5750610cdd8c336119cf565b610d385760405162461bcd60e51b815260206004820152602660248201527f4e6f7420617574686f72697a656420746f20766965772070617469656e742064604482015265657461696c7360d01b60648201526084016106f2565b80600001816001015482600201836003018460040185600501866006018760090188600a0189600b01898054610d6d90613ff1565b80601f0160208091040260200160405190810160405280929190818152602001828054610d9990613ff1565b8015610de65780601f10610dbb57610100808354040283529160200191610de6565b820191906000526020600020905b815481529060010190602001808311610dc957829003601f168201915b50505050509950878054610df990613ff1565b80601f0160208091040260200160405190810160405280929190818152602001828054610e2590613ff1565b8015610e725780601f10610e4757610100808354040283529160200191610e72565b820191906000526020600020905b815481529060010190602001808311610e5557829003601f168201915b50505050509750868054610e8590613ff1565b80601f0160208091040260200160405190810160405280929190818152602001828054610eb190613ff1565b8015610efe5780601f10610ed357610100808354040283529160200191610efe565b820191906000526020600020905b815481529060010190602001808311610ee157829003601f168201915b50505050509650858054610f1190613ff1565b80601f0160208091040260200160405190810160405280929190818152602001828054610f3d90613ff1565b8015610f8a5780601f10610f5f57610100808354040283529160200191610f8a565b820191906000526020600020905b815481529060010190602001808311610f6d57829003601f168201915b50505050509550848054610f9d90613ff1565b80601f0160208091040260200160405190810160405280929190818152602001828054610fc990613ff1565b80156110165780601f10610feb57610100808354040283529160200191611016565b820191906000526020600020905b815481529060010190602001808311610ff957829003601f168201915b5050505050945083805461102990613ff1565b80601f016020809104026020016040519081016040528092919081815260200182805461105590613ff1565b80156110a25780601f10611077576101008083540402835291602001916110a2565b820191906000526020600020905b81548152906001019060200180831161108557829003601f168201915b505050505093508280546110b590613ff1565b80601f01602080910402602001604051908101604052809291908181526020018280546110e190613ff1565b801561112e5780601f106111035761010080835404028352916020019161112e565b820191906000526020600020905b81548152906001019060200180831161111157829003601f168201915b5050505050925081805461114190613ff1565b80601f016020809104026020016040519081016040528092919081815260200182805461116d90613ff1565b80156111ba5780601f1061118f576101008083540402835291602001916111ba565b820191906000526020600020905b81548152906001019060200180831161119d57829003601f168201915b505050505091508080546111cd90613ff1565b80601f01602080910402602001604051908101604052809291908181526020018280546111f990613ff1565b80156112465780601f1061121b57610100808354040283529160200191611246565b820191906000526020600020905b81548152906001019060200180831161122957829003601f168201915b505050505090509a509a509a509a509a509a509a509a509a509a50509193959799509193959799565b6000828152600b602052604090206007015482906001600160a01b031633146112aa5760405162461bcd60e51b81526004016106f2906141c3565b6000838152600b60205260409020600681016112c684826140c0565b5050505050565b6112db600980546001019055565b60006112e660095490565b6000818152600c602052604090209091508061130289826140c0565b506001810161131188826140c0565b506002810161132087826140c0565b506003810161132f86826140c0565b506004810161133e85826140c0565b506005810161134d84826140c0565b506006810180546001600160a01b031916339081179091556040517f54477a198cd7bd702e1bd40898d7605acfe83e3d6c753840135f61088802ab1b916113a29185918c918c918c918c918c918c9190614206565b60405180910390a15050505050505050565b61079383838360405180602001604052806000815250612608565b6060806060806060806000600c6000898152602001908152602001600020905080600001816001018260020183600301846004018560050185805461141390613ff1565b80601f016020809104026020016040519081016040528092919081815260200182805461143f90613ff1565b801561148c5780601f106114615761010080835404028352916020019161148c565b820191906000526020600020905b81548152906001019060200180831161146f57829003601f168201915b5050505050955084805461149f90613ff1565b80601f01602080910402602001604051908101604052809291908181526020018280546114cb90613ff1565b80156115185780601f106114ed57610100808354040283529160200191611518565b820191906000526020600020905b8154815290600101906020018083116114fb57829003601f168201915b5050505050945083805461152b90613ff1565b80601f016020809104026020016040519081016040528092919081815260200182805461155790613ff1565b80156115a45780601f10611579576101008083540402835291602001916115a4565b820191906000526020600020905b81548152906001019060200180831161158757829003601f168201915b505050505093508280546115b790613ff1565b80601f01602080910402602001604051908101604052809291908181526020018280546115e390613ff1565b80156116305780601f1061160557610100808354040283529160200191611630565b820191906000526020600020905b81548152906001019060200180831161161357829003601f168201915b5050505050925081805461164390613ff1565b80601f016020809104026020016040519081016040528092919081815260200182805461166f90613ff1565b80156116bc5780601f10611691576101008083540402835291602001916116bc565b820191906000526020600020905b81548152906001019060200180831161169f57829003601f168201915b505050505091508080546116cf90613ff1565b80601f01602080910402602001604051908101604052809291908181526020018280546116fb90613ff1565b80156117485780601f1061171d57610100808354040283529160200191611748565b820191906000526020600020905b81548152906001019060200180831161172b57829003601f168201915b505050505090509650965096509650965096505091939550919395565b6060600061177260095490565b67ffffffffffffffff81111561178a5761178a61382f565b6040519080825280602002602001820160405280156117b3578160200160208202803683370190505b50905060015b60095481116117fc5780826117cf6001836142b8565b815181106117df576117df6142cb565b6020908102919091010152806117f4816142e1565b9150506117b9565b50919050565b6000818152600b60205260409020600701546060906001600160a01b0316331480611832575061183282336119cf565b61188c5760405162461bcd60e51b815260206004820152602560248201527f4e6f7420617574686f72697a656420746f2076696577206865616c7468207265604482015264636f72647360d81b60648201526084016106f2565b6000828152600b60209081526040808320600c0180548251818502810185019093528083529193909284015b828210156119645783829060005260206000200180546118d790613ff1565b80601f016020809104026020016040519081016040528092919081815260200182805461190390613ff1565b80156119505780601f1061192557610100808354040283529160200191611950565b820191906000526020600020905b81548152906001019060200180831161193357829003601f168201915b5050505050815260200190600101906118b8565b505050509050919050565b6000818152600260205260408120546001600160a01b0316806105bf5760405162461bcd60e51b8152602060048201526018602482015277115490cdcc8c4e881a5b9d985b1a59081d1bdad95b88125160421b60448201526064016106f2565b6000828152600b60205260408120815b6008820154811015611a4157836001600160a01b0316826008018281548110611a0a57611a0a6142cb565b6000918252602090912001546001600160a01b031603611a2f576001925050506105bf565b80611a39816142e1565b9150506119df565b506000949350505050565b600080885111611a9e5760405162461bcd60e51b815260206004820152601c60248201527f50617469656e74206e616d652063616e6e6f7420626520656d7074790000000060448201526064016106f2565b611aa733612f69565b15611af45760405162461bcd60e51b815260206004820152601d60248201527f50617469656e7420697320616c7265616479207265676973746572656400000060448201526064016106f2565b611b02600880546001019055565b6000611b0d60085490565b9050611b193382612fbc565b6000818152600b6020526040902080611b328b826140c0565b506001810189905560028101611b4889826140c0565b5060038101611b5788826140c0565b5060048101611b6687826140c0565b5060058101611b7586826140c0565b5060068101611b8485826140c0565b506007810180546001600160a01b031916339081179091556040517fd97b83316548098fb626d0b4c8bcd18e016277a4f778ec3540d1efa8f469516a91611bd99185918e918e918e918e918e918e91906142fa565b60405180910390a1611bef600880546001019055565b5098975050505050505050565b606060006060806060806060806060806000611c1733612f69565b6000818152600b60205260408120919250829003611c6b5760405162461bcd60e51b815260206004820152601160248201527014185d1a595b9d081b9bdd08199bdd5b99607a1b60448201526064016106f2565b80600001816001015482600201836003018460040185600501866006018760090188600a0189600b01898054611ca090613ff1565b80601f0160208091040260200160405190810160405280929190818152602001828054611ccc90613ff1565b8015611d195780601f10611cee57610100808354040283529160200191611d19565b820191906000526020600020905b815481529060010190602001808311611cfc57829003601f168201915b50505050509950878054611d2c90613ff1565b80601f0160208091040260200160405190810160405280929190818152602001828054611d5890613ff1565b8015611da55780601f10611d7a57610100808354040283529160200191611da5565b820191906000526020600020905b815481529060010190602001808311611d8857829003601f168201915b50505050509750868054611db890613ff1565b80601f0160208091040260200160405190810160405280929190818152602001828054611de490613ff1565b8015611e315780601f10611e0657610100808354040283529160200191611e31565b820191906000526020600020905b815481529060010190602001808311611e1457829003601f168201915b50505050509650858054611e4490613ff1565b80601f0160208091040260200160405190810160405280929190818152602001828054611e7090613ff1565b8015611ebd5780601f10611e9257610100808354040283529160200191611ebd565b820191906000526020600020905b815481529060010190602001808311611ea057829003601f168201915b50505050509550848054611ed090613ff1565b80601f0160208091040260200160405190810160405280929190818152602001828054611efc90613ff1565b8015611f495780601f10611f1e57610100808354040283529160200191611f49565b820191906000526020600020905b815481529060010190602001808311611f2c57829003601f168201915b50505050509450838054611f5c90613ff1565b80601f0160208091040260200160405190810160405280929190818152602001828054611f8890613ff1565b8015611fd55780601f10611faa57610100808354040283529160200191611fd5565b820191906000526020600020905b815481529060010190602001808311611fb857829003601f168201915b50505050509350828054611fe890613ff1565b80601f016020809104026020016040519081016040528092919081815260200182805461201490613ff1565b80156120615780601f1061203657610100808354040283529160200191612061565b820191906000526020600020905b81548152906001019060200180831161204457829003601f168201915b5050505050925081805461207490613ff1565b80601f01602080910402602001604051908101604052809291908181526020018280546120a090613ff1565b80156120ed5780601f106120c2576101008083540402835291602001916120ed565b820191906000526020600020905b8154815290600101906020018083116120d057829003601f168201915b5050505050915080805461210090613ff1565b80601f016020809104026020016040519081016040528092919081815260200182805461212c90613ff1565b80156121795780601f1061214e57610100808354040283529160200191612179565b820191906000526020600020905b81548152906001019060200180831161215c57829003601f168201915b505050505090509b509b509b509b509b509b509b509b509b509b50505090919293949596979899565b60006001600160a01b03821661220c5760405162461bcd60e51b815260206004820152602960248201527f4552433732313a2061646472657373207a65726f206973206e6f7420612076616044820152683634b21037bbb732b960b91b60648201526084016106f2565b506001600160a01b031660009081526003602052604090205490565b612230612fd6565b61223a6000613030565b565b6000818152600e602090815260409182902080548351818402810184019094528084526060939283018282801561229257602002820191906000526020600020905b81548152602001906001019080831161227e575b50505050509050919050565b6000806122aa33612f69565b151592915050565b606080606060006122c233613082565b6000818152600c602052604081209192508290036123175760405162461bcd60e51b8152602060048201526012602482015271121bdcdc1a5d185b081b9bdd08199bdd5b9960721b60448201526064016106f2565b80600001816001018260020182805461232f90613ff1565b80601f016020809104026020016040519081016040528092919081815260200182805461235b90613ff1565b80156123a85780601f1061237d576101008083540402835291602001916123a8565b820191906000526020600020905b81548152906001019060200180831161238b57829003601f168201915b505050505092508180546123bb90613ff1565b80601f01602080910402602001604051908101604052809291908181526020018280546123e790613ff1565b80156124345780601f1061240957610100808354040283529160200191612434565b820191906000526020600020905b81548152906001019060200180831161241757829003601f168201915b5050505050915080805461244790613ff1565b80601f016020809104026020016040519081016040528092919081815260200182805461247390613ff1565b80156124c05780601f10612495576101008083540402835291602001916124c0565b820191906000526020600020905b8154815290600101906020018083116124a357829003601f168201915b505050505090509450945094505050909192565b6060600180546105d490613ff1565b60006124ee33612f69565b905090565b6124fe3383836130cc565b5050565b60006124ee33613082565b6000828152600b602052604090206007015482906001600160a01b031633146125485760405162461bcd60e51b81526004016106f2906141c3565b6000838152600b602090815260408220600c81018054600181018255908452919092200161257684826140c0565b507f7753ae1630faa78a291b1cd31bc43c1fcbba106a1666394a44fadaab2a1dc0fe84846040516125a892919061432e565b60405180910390a150505050565b6000858152600d60205260409020600481016125d286826140c0565b50600581016125e185826140c0565b50600681016125f084826140c0565b50600981016125ff83826140c0565b50505050505050565b6126123383612d87565b61262e5760405162461bcd60e51b81526004016106f290614025565b61263a8484848461319a565b50505050565b606061264b82612cba565b6000828152600660205260408120805461266490613ff1565b80601f016020809104026020016040519081016040528092919081815260200182805461269090613ff1565b80156126dd5780601f106126b2576101008083540402835291602001916126dd565b820191906000526020600020905b8154815290600101906020018083116126c057829003601f168201915b5050505050905060006126fb60408051602081019091526000815290565b9050805160000361270d575092915050565b81511561273f578082604051602001612727929190614347565b60405160208183030381529060405292505050919050565b612748846131cd565b949350505050565b6000818152600f6020908152604091829020805483518184028101840190945280845260609392830182828015612292576020028201919060005260206000209081548152602001906001019080831161227e5750505050509050919050565b6000818152600b602052604090206007015460609082906001600160a01b031633146127ee5760405162461bcd60e51b81526004016106f2906141c3565b6000838152600b60209081526040808320600c810180548351818602810186019094528084529194929390929084015b828210156128ca57838290600052602060002001805461283d90613ff1565b80601f016020809104026020016040519081016040528092919081815260200182805461286990613ff1565b80156128b65780601f1061288b576101008083540402835291602001916128b6565b820191906000526020600020905b81548152906001019060200180831161289957829003601f168201915b50505050508152602001906001019061281e565b5050505092505050919050565b6000828152600b602052604090206007015482906001600160a01b031633146129125760405162461bcd60e51b81526004016106f2906141c3565b6000838152600b602052604090206001600160a01b03831661296f5760405162461bcd60e51b8152602060048201526016602482015275496e76616c696420766965776572206164647265737360501b60448201526064016106f2565b60005b60088201548110156112c657836001600160a01b031682600801828154811061299d5761299d6142cb565b6000918252602090912001546001600160a01b031603612abb576008820180546129c9906001906142b8565b815481106129d9576129d96142cb565b6000918252602090912001546008830180546001600160a01b039092169183908110612a0757612a076142cb565b9060005260206000200160006101000a8154816001600160a01b0302191690836001600160a01b0316021790555081600801805480612a4857612a48614376565b600082815260209020810160001990810180546001600160a01b03191690550190556040517f5dbe2203a32c28f0202307d2aaf701d7927539cf61569040ae884fffb37e098290612aae90879087909182526001600160a01b0316602082015260400190565b60405180910390a16112c6565b80612ac5816142e1565b915050612972565b6000848152600b602052604090206007015484906001600160a01b03163314612b085760405162461bcd60e51b81526004016106f2906141c3565b6000858152600b6020526040902060098101612b2486826140c0565b50600a8101612b3385826140c0565b50600b81016125ff84826140c0565b612b4a612fd6565b6001600160a01b038116612baf5760405162461bcd60e51b815260206004820152602660248201527f4f776e61626c653a206e6577206f776e657220697320746865207a65726f206160448201526564647265737360d01b60648201526084016106f2565b612bb881613030565b50565b6000828152600b602052604090206007015482906001600160a01b03163314612bf65760405162461bcd60e51b81526004016106f2906141c3565b6000838152600b602090815260408083206008810180546001810182559085529383902090930180546001600160a01b0319166001600160a01b0387169081179091558151878152928301527ff16e9a03b0c54bb809a906ea44c85061c5b52ccbf9d5b6fe883ab548d5e31d8a91016125a8565b60006001600160e01b031982166380ac58cd60e01b1480612c9b57506001600160e01b03198216635b5e139f60e01b145b806105bf57506301ffc9a760e01b6001600160e01b03198316146105bf565b6000818152600260205260409020546001600160a01b0316612bb85760405162461bcd60e51b8152602060048201526018602482015277115490cdcc8c4e881a5b9d985b1a59081d1bdad95b88125160421b60448201526064016106f2565b600081815260046020526040902080546001600160a01b0319166001600160a01b0384169081179091558190612d4e8261196f565b6001600160a01b03167f8c5be1e5ebec7d5bd14f71427d1e84f3dd0314c0f7b2291e5b200ac8c7c3b92560405160405180910390a45050565b600080612d938361196f565b9050806001600160a01b0316846001600160a01b03161480612dda57506001600160a01b0380821660009081526005602090815260408083209388168352929052205460ff165b806127485750836001600160a01b0316612df384610657565b6001600160a01b031614949350505050565b826001600160a01b0316612e188261196f565b6001600160a01b031614612e3e5760405162461bcd60e51b81526004016106f29061438c565b6001600160a01b038216612ea05760405162461bcd60e51b8152602060048201526024808201527f4552433732313a207472616e7366657220746f20746865207a65726f206164646044820152637265737360e01b60648201526084016106f2565b826001600160a01b0316612eb38261196f565b6001600160a01b031614612ed95760405162461bcd60e51b81526004016106f29061438c565b600081815260046020908152604080832080546001600160a01b03199081169091556001600160a01b0387811680865260038552838620805460001901905590871680865283862080546001019055868652600290945282852080549092168417909155905184937fddf252ad1be2c89b69c2b068fc378daa952ba7f163c4a11628f55a4df523b3ef91a4505050565b600060015b6008548111612fb3576000818152600b60205260409020600701546001600160a01b03808516911603612fa15792915050565b80612fab816142e1565b915050612f6e565b50600092915050565b6124fe828260405180602001604052806000815250613241565b6007546001600160a01b0316331461223a5760405162461bcd60e51b815260206004820181905260248201527f4f776e61626c653a2063616c6c6572206973206e6f7420746865206f776e657260448201526064016106f2565b600780546001600160a01b038381166001600160a01b0319831681179093556040519116919082907f8be0079c531659141344cd1fd0a4f28419497f9722a3daafe3b4186f6b6457e090600090a35050565b600060015b6009548111612fb3576000818152600c60205260409020600601546001600160a01b038085169116036130ba5792915050565b806130c4816142e1565b915050613087565b816001600160a01b0316836001600160a01b03160361312d5760405162461bcd60e51b815260206004820152601960248201527f4552433732313a20617070726f766520746f2063616c6c65720000000000000060448201526064016106f2565b6001600160a01b03838116600081815260056020908152604080832094871680845294825291829020805460ff191686151590811790915591519182527f17307eab39ab6107e8899845ad3d59bd9653f200f220920489ca2b5937696c31910160405180910390a3505050565b6131a5848484612e05565b6131b184848484613274565b61263a5760405162461bcd60e51b81526004016106f2906143d1565b60606131d882612cba565b60006131ef60408051602081019091526000815290565b9050600081511161320f576040518060200160405280600081525061323a565b8061321984613375565b60405160200161322a929190614347565b6040516020818303038152906040525b9392505050565b61324b8383613408565b6132586000848484613274565b6107935760405162461bcd60e51b81526004016106f2906143d1565b60006001600160a01b0384163b1561336a57604051630a85bd0160e11b81526001600160a01b0385169063150b7a02906132b8903390899088908890600401614423565b6020604051808303816000875af19250505080156132f3575060408051601f3d908101601f191682019092526132f091810190614456565b60015b613350573d808015613321576040519150601f19603f3d011682016040523d82523d6000602084013e613326565b606091505b5080516000036133485760405162461bcd60e51b81526004016106f2906143d1565b805181602001fd5b6001600160e01b031916630a85bd0160e11b149050612748565b506001949350505050565b6060600061338283613593565b600101905060008167ffffffffffffffff8111156133a2576133a261382f565b6040519080825280601f01601f1916602001820160405280156133cc576020820181803683370190505b5090508181016020015b600019016f181899199a1a9b1b9c1cb0b131b232b360811b600a86061a8153600a85049450846133d657509392505050565b6001600160a01b03821661345e5760405162461bcd60e51b815260206004820181905260248201527f4552433732313a206d696e7420746f20746865207a65726f206164647265737360448201526064016106f2565b6000818152600260205260409020546001600160a01b0316156134c35760405162461bcd60e51b815260206004820152601c60248201527f4552433732313a20746f6b656e20616c7265616479206d696e7465640000000060448201526064016106f2565b6000818152600260205260409020546001600160a01b0316156135285760405162461bcd60e51b815260206004820152601c60248201527f4552433732313a20746f6b656e20616c7265616479206d696e7465640000000060448201526064016106f2565b6001600160a01b038216600081815260036020908152604080832080546001019055848352600290915280822080546001600160a01b0319168417905551839291907fddf252ad1be2c89b69c2b068fc378daa952ba7f163c4a11628f55a4df523b3ef908290a45050565b60008072184f03e93ff9f4daa797ed6e38ed64bf6a1f0160401b83106135d25772184f03e93ff9f4daa797ed6e38ed64bf6a1f0160401b830492506040015b6d04ee2d6d415b85acef810000000083106135fe576d04ee2d6d415b85acef8100000000830492506020015b662386f26fc10000831061361c57662386f26fc10000830492506010015b6305f5e1008310613634576305f5e100830492506008015b612710831061364857612710830492506004015b6064831061365a576064830492506002015b600a83106105bf5760010192915050565b6001600160e01b031981168114612bb857600080fd5b60006020828403121561369357600080fd5b813561323a8161366b565b60005b838110156136b95781810151838201526020016136a1565b50506000910152565b600081518084526136da81602086016020860161369e565b601f01601f19169290920160200192915050565b60208152600061323a60208301846136c2565b60006020828403121561371357600080fd5b5035919050565b80356001600160a01b038116811461373157600080fd5b919050565b6000806040838503121561374957600080fd5b6137528361371a565b946020939093013593505050565b60008060006060848603121561377557600080fd5b61377e8461371a565b925061378c6020850161371a565b9150604084013590509250925092565b60006101008a83528960208401528060408401526137bc8184018a6136c2565b905082810360608401526137d081896136c2565b905082810360808401526137e481886136c2565b905082810360a08401526137f881876136c2565b905082810360c084015261380c81866136c2565b905082810360e084015261382081856136c2565b9b9a5050505050505050505050565b634e487b7160e01b600052604160045260246000fd5b600067ffffffffffffffff808411156138605761386061382f565b604051601f8501601f19908116603f011681019082821181831017156138885761388861382f565b816040528093508581528686860111156138a157600080fd5b858560208301376000602087830101525050509392505050565b600082601f8301126138cc57600080fd5b61323a83833560208501613845565b600080600080608085870312156138f157600080fd5b8435935060208501359250604085013567ffffffffffffffff8082111561391757600080fd5b613923888389016138bb565b9350606087013591508082111561393957600080fd5b50613946878288016138bb565b91505092959194509250565b60006101408083526139668184018e6136c2565b90508b60208401528281036040840152613980818c6136c2565b90508281036060840152613994818b6136c2565b905082810360808401526139a8818a6136c2565b905082810360a08401526139bc81896136c2565b905082810360c08401526139d081886136c2565b905082810360e08401526139e481876136c2565b90508281036101008401526139f981866136c2565b9050828103610120840152613a0e81856136c2565b9d9c50505050505050505050505050565b60008060408385031215613a3257600080fd5b82359150602083013567ffffffffffffffff811115613a5057600080fd5b613a5c858286016138bb565b9150509250929050565b60008060008060008060c08789031215613a7f57600080fd5b863567ffffffffffffffff80821115613a9757600080fd5b613aa38a838b016138bb565b97506020890135915080821115613ab957600080fd5b613ac58a838b016138bb565b96506040890135915080821115613adb57600080fd5b613ae78a838b016138bb565b95506060890135915080821115613afd57600080fd5b613b098a838b016138bb565b94506080890135915080821115613b1f57600080fd5b613b2b8a838b016138bb565b935060a0890135915080821115613b4157600080fd5b50613b4e89828a016138bb565b9150509295509295509295565b60c081526000613b6e60c08301896136c2565b8281036020840152613b8081896136c2565b90508281036040840152613b9481886136c2565b90508281036060840152613ba881876136c2565b90508281036080840152613bbc81866136c2565b905082810360a0840152613bd081856136c2565b9998505050505050505050565b6020808252825182820181905260009190848201906040850190845b81811015613c1557835183529284019291840191600101613bf9565b50909695505050505050565b6000602080830181845280855180835260408601915060408160051b870101925083870160005b82811015613c7657603f19888603018452613c648583516136c2565b94509285019290850190600101613c48565b5092979650505050505050565b60008060408385031215613c9657600080fd5b82359150613ca66020840161371a565b90509250929050565b600080600080600080600060e0888a031215613cca57600080fd5b873567ffffffffffffffff80821115613ce257600080fd5b613cee8b838c016138bb565b985060208a0135975060408a0135915080821115613d0b57600080fd5b613d178b838c016138bb565b965060608a0135915080821115613d2d57600080fd5b613d398b838c016138bb565b955060808a0135915080821115613d4f57600080fd5b613d5b8b838c016138bb565b945060a08a0135915080821115613d7157600080fd5b613d7d8b838c016138bb565b935060c08a0135915080821115613d9357600080fd5b50613da08a828b016138bb565b91505092959891949750929550565b600060208284031215613dc157600080fd5b61323a8261371a565b606081526000613ddd60608301866136c2565b8281036020840152613def81866136c2565b90508281036040840152613e0381856136c2565b9695505050505050565b60008060408385031215613e2057600080fd5b613e298361371a565b915060208301358015158114613e3e57600080fd5b809150509250929050565b600080600080600060a08688031215613e6157600080fd5b85359450602086013567ffffffffffffffff80821115613e8057600080fd5b613e8c89838a016138bb565b95506040880135915080821115613ea257600080fd5b613eae89838a016138bb565b94506060880135915080821115613ec457600080fd5b613ed089838a016138bb565b93506080880135915080821115613ee657600080fd5b50613ef3888289016138bb565b9150509295509295909350565b60008060008060808587031215613f1657600080fd5b613f1f8561371a565b9350613f2d6020860161371a565b925060408501359150606085013567ffffffffffffffff811115613f5057600080fd5b8501601f81018713613f6157600080fd5b61394687823560208401613845565b60008060408385031215613f8357600080fd5b613f8c8361371a565b9150613ca66020840161371a565b60008060008060808587031215613fb057600080fd5b84359350602085013567ffffffffffffffff80821115613fcf57600080fd5b613fdb888389016138bb565b9450604087013591508082111561391757600080fd5b600181811c9082168061400557607f821691505b6020821081036117fc57634e487b7160e01b600052602260045260246000fd5b6020808252602d908201527f4552433732313a2063616c6c6572206973206e6f7420746f6b656e206f776e6560408201526c1c881bdc88185c1c1c9bdd9959609a1b606082015260800190565b601f82111561079357600081815260208120601f850160051c810160208610156140995750805b601f850160051c820191505b818110156140b8578281556001016140a5565b505050505050565b815167ffffffffffffffff8111156140da576140da61382f565b6140ee816140e88454613ff1565b84614072565b602080601f831160018114614123576000841561410b5750858301515b600019600386901b1c1916600185901b1785556140b8565b600085815260208120601f198616915b8281101561415257888601518255948401946001909101908401614133565b50858210156141705787850151600019600388901b60f8161c191681555b5050505050600190811b01905550565b85815284602082015283604082015260a0606082015260006141a560a08301856136c2565b82810360808401526141b781856136c2565b98975050505050505050565b60208082526023908201527f4e6f7420746865206f776e6572206f66207468652070617469656e74207265636040820152621bdc9960ea1b606082015260800190565b60006101008a83528060208401526142208184018b6136c2565b90508281036040840152614234818a6136c2565b9050828103606084015261424881896136c2565b9050828103608084015261425c81886136c2565b905082810360a084015261427081876136c2565b905082810360c084015261428481866136c2565b91505060018060a01b03831660e08301529998505050505050505050565b634e487b7160e01b600052601160045260246000fd5b818103818111156105bf576105bf6142a2565b634e487b7160e01b600052603260045260246000fd5b6000600182016142f3576142f36142a2565b5060010190565b60006101008a83528060208401526143148184018b6136c2565b9050886040840152828103606084015261424881896136c2565b82815260406020820152600061274860408301846136c2565b6000835161435981846020880161369e565b83519083019061436d81836020880161369e565b01949350505050565b634e487b7160e01b600052603160045260246000fd5b60208082526025908201527f4552433732313a207472616e736665722066726f6d20696e636f72726563742060408201526437bbb732b960d91b606082015260800190565b60208082526032908201527f4552433732313a207472616e7366657220746f206e6f6e20455243373231526560408201527131b2b4bb32b91034b6b83632b6b2b73a32b960711b606082015260800190565b6001600160a01b0385811682528416602082015260408101839052608060608201819052600090613e03908301846136c2565b60006020828403121561446857600080fd5b815161323a8161366b56fea26469706673582212203f6caef96dc9bd7fd68836d2308bd7c6153fb7196dd8ede4fbac778aced6bb5064736f6c63430008110033",
  "linkReferences": {},
  "deployedLinkReferences": {}
}