{
  "_format": "hh-sol-artifact-1",
  "contractName": "MyNFT",
  "sourceName": "contracts/MyNFT.sol",
  "abi": [
    {
      "inputs": [],
      "stateMutability": "nonpayable",
      "type": "constructor"
    },
    {
      "anonymous": false,
      "inputs": [
        {
          "indexed": true,
          "internalType": "address",
          "name": "owner",
          "type": "address"
        },
        {
          "indexed": true,
          "internalType": "address",
          "name": "approved",
          "type": "address"
        },
        {
          "indexed": true,
          "internalType": "uint256",
          "name": "tokenId",
          "type": "uint256"
        }
      ],
      "name": "Approval",
      "type": "event"
    },
    {
      "anonymous": false,
      "inputs": [
        {
          "indexed": true,
          "internalType": "address",
          "name": "owner",
          "type": "address"
        },
        {
          "indexed": true,
          "internalType": "address",
          "name": "operator",
          "type": "address"
        },
        {
          "indexed": false,
          "internalType": "bool",
          "name": "approved",
          "type": "bool"
        }
      ],
      "name": "ApprovalForAll",
      "type": "event"
    },
    {
      "anonymous": false,
      "inputs": [
        {
          "indexed": false,
          "internalType": "uint256",
          "name": "patientId",
          "type": "uint256"
        },
        {
          "indexed": false,
          "internalType": "address",
          "name": "viewer",
          "type": "address"
        }
      ],
      "name": "AuthorizedViewerAdded",
      "type": "event"
    },
    {
      "anonymous": false,
      "inputs": [
        {
          "indexed": false,
          "internalType": "uint256",
          "name": "patientId",
          "type": "uint256"
        },
        {
          "indexed": false,
          "internalType": "address",
          "name": "viewer",
          "type": "address"
        }
      ],
      "name": "AuthorizedViewerRemoved",
      "type": "event"
    },
    {
      "anonymous": false,
      "inputs": [
        {
          "indexed": false,
          "internalType": "uint256",
          "name": "_fromTokenId",
          "type": "uint256"
        },
        {
          "indexed": false,
          "internalType": "uint256",
          "name": "_toTokenId",
          "type": "uint256"
        }
      ],
      "name": "BatchMetadataUpdate",
      "type": "event"
    },
    {
      "anonymous": false,
      "inputs": [
        {
          "indexed": false,
          "internalType": "uint256",
          "name": "patientId",
          "type": "uint256"
        },
        {
          "indexed": false,
          "internalType": "string",
          "name": "ipfsHash",
          "type": "string"
        }
      ],
      "name": "HealthRecordAdded",
      "type": "event"
    },
    {
      "anonymous": false,
      "inputs": [
        {
          "indexed": false,
          "internalType": "uint256",
          "name": "hospitalId",
          "type": "uint256"
        },
        {
          "indexed": false,
          "internalType": "string",
          "name": "name",
          "type": "string"
        },
        {
          "indexed": false,
          "internalType": "string",
          "name": "h_type",
          "type": "string"
        },
        {
          "indexed": false,
          "internalType": "string",
          "name": "hospitalAddress",
          "type": "string"
        },
        {
          "indexed": false,
          "internalType": "string",
          "name": "state",
          "type": "string"
        },
        {
          "indexed": false,
          "internalType": "string",
          "name": "district",
          "type": "string"
        },
        {
          "indexed": false,
          "internalType": "string",
          "name": "link",
          "type": "string"
        },
        {
          "indexed": false,
          "internalType": "address",
          "name": "hospitalWallet",
          "type": "address"
        }
      ],
      "name": "HospitalRegistered",
      "type": "event"
    },
    {
      "anonymous": false,
      "inputs": [
        {
          "indexed": false,
          "internalType": "uint256",
          "name": "_tokenId",
          "type": "uint256"
        }
      ],
      "name": "MetadataUpdate",
      "type": "event"
    },
    {
      "anonymous": false,
      "inputs": [
        {
          "indexed": true,
          "internalType": "address",
          "name": "previousOwner",
          "type": "address"
        },
        {
          "indexed": true,
          "internalType": "address",
          "name": "newOwner",
          "type": "address"
        }
      ],
      "name": "OwnershipTransferred",
      "type": "event"
    },
    {
      "anonymous": false,
      "inputs": [
        {
          "indexed": false,
          "internalType": "uint256",
          "name": "patientId",
          "type": "uint256"
        },
        {
          "indexed": false,
          "internalType": "string",
          "name": "name",
          "type": "string"
        },
        {
          "indexed": false,
          "internalType": "uint256",
          "name": "age",
          "type": "uint256"
        },
        {
          "indexed": false,
          "internalType": "string",
          "name": "dob",
          "type": "string"
        },
        {
          "indexed": false,
          "internalType": "string",
          "name": "gender",
          "type": "string"
        },
        {
          "indexed": false,
          "internalType": "string",
          "name": "contactNumber",
          "type": "string"
        },
        {
          "indexed": false,
          "internalType": "string",
          "name": "email",
          "type": "string"
        },
        {
          "indexed": false,
          "internalType": "address",
          "name": "patientWallet",
          "type": "address"
        }
      ],
      "name": "PatientRegistered",
      "type": "event"
    },
    {
      "anonymous": false,
      "inputs": [
        {
          "indexed": true,
          "internalType": "address",
          "name": "from",
          "type": "address"
        },
        {
          "indexed": true,
          "internalType": "address",
          "name": "to",
          "type": "address"
        },
        {
          "indexed": true,
          "internalType": "uint256",
          "name": "tokenId",
          "type": "uint256"
        }
      ],
      "name": "Transfer",
      "type": "event"
    },
    {
      "inputs": [
        {
          "internalType": "uint256",
          "name": "_patientId",
          "type": "uint256"
        },
        {
          "internalType": "address",
          "name": "_viewer",
          "type": "address"
        }
      ],
      "name": "addAuthorizedViewer",
      "outputs": [],
      "stateMutability": "nonpayable",
      "type": "function"
    },
    {
      "inputs": [
        {
          "internalType": "uint256",
          "name": "_patientId",
          "type": "uint256"
        },
        {
          "internalType": "string",
          "name": "_ipfsHash",
          "type": "string"
        }
      ],
      "name": "addHealthRecord",
      "outputs": [],
      "stateMutability": "nonpayable",
      "type": "function"
    },
    {
      "inputs": [
        {
          "internalType": "address",
          "name": "to",
          "type": "address"
        },
        {
          "internalType": "uint256",
          "name": "tokenId",
          "type": "uint256"
        }
      ],
      "name": "approve",
      "outputs": [],
      "stateMutability": "nonpayable",
      "type": "function"
    },
    {
      "inputs": [
        {
          "internalType": "address",
          "name": "owner",
          "type": "address"
        }
      ],
      "name": "balanceOf",
      "outputs": [
        {
          "internalType": "uint256",
          "name": "",
          "type": "uint256"
        }
      ],
      "stateMutability": "view",
      "type": "function"
    },
    {
      "inputs": [],
      "name": "checkPatientRegistration",
      "outputs": [
        {
          "internalType": "bool",
          "name": "",
          "type": "bool"
        }
      ],
      "stateMutability": "view",
      "type": "function"
    },
    {
      "inputs": [
        {
          "internalType": "uint256",
          "name": "_patientId",
          "type": "uint256"
        },
        {
          "internalType": "string",
          "name": "_height",
          "type": "string"
        },
        {
          "internalType": "string",
          "name": "_weight",
          "type": "string"
        },
        {
          "internalType": "string",
          "name": "_bloodPressure",
          "type": "string"
        }
      ],
      "name": "createHealthRecord",
      "outputs": [],
      "stateMutability": "nonpayable",
      "type": "function"
    },
    {
      "inputs": [],
      "name": "getAllHospitals",
      "outputs": [
        {
          "internalType": "uint256[]",
          "name": "",
          "type": "uint256[]"
        }
      ],
      "stateMutability": "view",
      "type": "function"
    },
    {
      "inputs": [
        {
          "internalType": "uint256",
          "name": "tokenId",
          "type": "uint256"
        }
      ],
      "name": "getApproved",
      "outputs": [
        {
          "internalType": "address",
          "name": "",
          "type": "address"
        }
      ],
      "stateMutability": "view",
      "type": "function"
    },
    {
      "inputs": [
        {
          "internalType": "uint256",
          "name": "_patientId",
          "type": "uint256"
        }
      ],
      "name": "getHealthRecords",
      "outputs": [
        {
          "internalType": "string[]",
          "name": "",
          "type": "string[]"
        }
      ],
      "stateMutability": "view",
      "type": "function"
    },
    {
      "inputs": [
        {
          "internalType": "uint256",
          "name": "_hospitalId",
          "type": "uint256"
        }
      ],
      "name": "getHospitalDetails",
      "outputs": [
        {
          "internalType": "string",
          "name": "name",
          "type": "string"
        },
        {
          "internalType": "string",
          "name": "h_type",
          "type": "string"
        },
        {
          "internalType": "string",
          "name": "hospitalAddress",
          "type": "string"
        },
        {
          "internalType": "string",
          "name": "state",
          "type": "string"
        },
        {
          "internalType": "string",
          "name": "district",
          "type": "string"
        },
        {
          "internalType": "string",
          "name": "link",
          "type": "string"
        }
      ],
      "stateMutability": "view",
      "type": "function"
    },
    {
      "inputs": [],
      "name": "getHospitalDetailsByAddress",
      "outputs": [
        {
          "internalType": "string",
          "name": "name",
          "type": "string"
        },
        {
          "internalType": "string",
          "name": "h_type",
          "type": "string"
        },
        {
          "internalType": "string",
          "name": "hospitalAddress",
          "type": "string"
        }
      ],
      "stateMutability": "view",
      "type": "function"
    },
    {
      "inputs": [],
      "name": "getHospitalIdByAddress",
      "outputs": [
        {
          "internalType": "uint256",
          "name": "",
          "type": "uint256"
        }
      ],
      "stateMutability": "view",
      "type": "function"
    },
    {
      "inputs": [
        {
          "internalType": "uint256",
          "name": "_patientId",
          "type": "uint256"
        }
      ],
      "name": "getPatientDetails",
      "outputs": [
        {
          "internalType": "string",
          "name": "name",
          "type": "string"
        },
        {
          "internalType": "uint256",
          "name": "age",
          "type": "uint256"
        },
        {
          "internalType": "string",
          "name": "dob",
          "type": "string"
        },
        {
          "internalType": "string",
          "name": "gender",
          "type": "string"
        },
        {
          "internalType": "string",
          "name": "contactNumber",
          "type": "string"
        },
        {
          "internalType": "string",
          "name": "email",
          "type": "string"
        },
        {
          "internalType": "string",
          "name": "medicalHistory",
          "type": "string"
        },
        {
          "internalType": "string",
          "name": "height",
          "type": "string"
        },
        {
          "internalType": "string",
          "name": "weight",
          "type": "string"
        },
        {
          "internalType": "string",
          "name": "bloodPressure",
          "type": "string"
        }
      ],
      "stateMutability": "view",
      "type": "function"
    },
    {
      "inputs": [],
      "name": "getPatientDetailsByAddress",
      "outputs": [
        {
          "internalType": "string",
          "name": "name",
          "type": "string"
        },
        {
          "internalType": "uint256",
          "name": "age",
          "type": "uint256"
        },
        {
          "internalType": "string",
          "name": "dob",
          "type": "string"
        },
        {
          "internalType": "string",
          "name": "gender",
          "type": "string"
        },
        {
          "internalType": "string",
          "name": "contactNumber",
          "type": "string"
        },
        {
          "internalType": "string",
          "name": "email",
          "type": "string"
        },
        {
          "internalType": "string",
          "name": "medicalHistory",
          "type": "string"
        },
        {
          "internalType": "string",
          "name": "height",
          "type": "string"
        },
        {
          "internalType": "string",
          "name": "weight",
          "type": "string"
        },
        {
          "internalType": "string",
          "name": "bloodPressure",
          "type": "string"
        }
      ],
      "stateMutability": "view",
      "type": "function"
    },
    {
      "inputs": [],
      "name": "getPatientIdByAddress",
      "outputs": [
        {
          "internalType": "uint256",
          "name": "",
          "type": "uint256"
        }
      ],
      "stateMutability": "view",
      "type": "function"
    },
    {
      "inputs": [
        {
          "internalType": "address",
          "name": "owner",
          "type": "address"
        },
        {
          "internalType": "address",
          "name": "operator",
          "type": "address"
        }
      ],
      "name": "isApprovedForAll",
      "outputs": [
        {
          "internalType": "bool",
          "name": "",
          "type": "bool"
        }
      ],
      "stateMutability": "view",
      "type": "function"
    },
    {
      "inputs": [
        {
          "internalType": "uint256",
          "name": "_patientId",
          "type": "uint256"
        },
        {
          "internalType": "address",
          "name": "_viewer",
          "type": "address"
        }
      ],
      "name": "isAuthorizedViewer",
      "outputs": [
        {
          "internalType": "bool",
          "name": "",
          "type": "bool"
        }
      ],
      "stateMutability": "view",
      "type": "function"
    },
    {
      "inputs": [],
      "name": "name",
      "outputs": [
        {
          "internalType": "string",
          "name": "",
          "type": "string"
        }
      ],
      "stateMutability": "view",
      "type": "function"
    },
    {
      "inputs": [],
      "name": "owner",
      "outputs": [
        {
          "internalType": "address",
          "name": "",
          "type": "address"
        }
      ],
      "stateMutability": "view",
      "type": "function"
    },
    {
      "inputs": [
        {
          "internalType": "uint256",
          "name": "tokenId",
          "type": "uint256"
        }
      ],
      "name": "ownerOf",
      "outputs": [
        {
          "internalType": "address",
          "name": "",
          "type": "address"
        }
      ],
      "stateMutability": "view",
      "type": "function"
    },
    {
      "inputs": [
        {
          "internalType": "string",
          "name": "_name",
          "type": "string"
        },
        {
          "internalType": "string",
          "name": "_h_type",
          "type": "string"
        },
        {
          "internalType": "string",
          "name": "_address",
          "type": "string"
        },
        {
          "internalType": "string",
          "name": "_state",
          "type": "string"
        },
        {
          "internalType": "string",
          "name": "_district",
          "type": "string"
        },
        {
          "internalType": "string",
          "name": "_link",
          "type": "string"
        }
      ],
      "name": "registerHospital",
      "outputs": [],
      "stateMutability": "nonpayable",
      "type": "function"
    },
    {
      "inputs": [
        {
          "internalType": "string",
          "name": "_name",
          "type": "string"
        },
        {
          "internalType": "uint256",
          "name": "_age",
          "type": "uint256"
        },
        {
          "internalType": "string",
          "name": "_dob",
          "type": "string"
        },
        {
          "internalType": "string",
          "name": "_gender",
          "type": "string"
        },
        {
          "internalType": "string",
          "name": "_contactNumber",
          "type": "string"
        },
        {
          "internalType": "string",
          "name": "_email",
          "type": "string"
        },
        {
          "internalType": "string",
          "name": "_medicalHistory",
          "type": "string"
        }
      ],
      "name": "registerPatient",
      "outputs": [
        {
          "internalType": "uint256",
          "name": "",
          "type": "uint256"
        }
      ],
      "stateMutability": "nonpayable",
      "type": "function"
    },
    {
      "inputs": [
        {
          "internalType": "uint256",
          "name": "_patientId",
          "type": "uint256"
        },
        {
          "internalType": "address",
          "name": "_viewer",
          "type": "address"
        }
      ],
      "name": "removeAuthorizedViewer",
      "outputs": [],
      "stateMutability": "nonpayable",
      "type": "function"
    },
    {
      "inputs": [],
      "name": "renounceOwnership",
      "outputs": [],
      "stateMutability": "nonpayable",
      "type": "function"
    },
    {
      "inputs": [
        {
          "internalType": "address",
          "name": "from",
          "type": "address"
        },
        {
          "internalType": "address",
          "name": "to",
          "type": "address"
        },
        {
          "internalType": "uint256",
          "name": "tokenId",
          "type": "uint256"
        }
      ],
      "name": "safeTransferFrom",
      "outputs": [],
      "stateMutability": "nonpayable",
      "type": "function"
    },
    {
      "inputs": [
        {
          "internalType": "address",
          "name": "from",
          "type": "address"
        },
        {
          "internalType": "address",
          "name": "to",
          "type": "address"
        },
        {
          "internalType": "uint256",
          "name": "tokenId",
          "type": "uint256"
        },
        {
          "internalType": "bytes",
          "name": "data",
          "type": "bytes"
        }
      ],
      "name": "safeTransferFrom",
      "outputs": [],
      "stateMutability": "nonpayable",
      "type": "function"
    },
    {
      "inputs": [
        {
          "internalType": "address",
          "name": "operator",
          "type": "address"
        },
        {
          "internalType": "bool",
          "name": "approved",
          "type": "bool"
        }
      ],
      "name": "setApprovalForAll",
      "outputs": [],
      "stateMutability": "nonpayable",
      "type": "function"
    },
    {
      "inputs": [
        {
          "internalType": "bytes4",
          "name": "interfaceId",
          "type": "bytes4"
        }
      ],
      "name": "supportsInterface",
      "outputs": [
        {
          "internalType": "bool",
          "name": "",
          "type": "bool"
        }
      ],
      "stateMutability": "view",
      "type": "function"
    },
    {
      "inputs": [],
      "name": "symbol",
      "outputs": [
        {
          "internalType": "string",
          "name": "",
          "type": "string"
        }
      ],
      "stateMutability": "view",
      "type": "function"
    },
    {
      "inputs": [
        {
          "internalType": "uint256",
          "name": "tokenId",
          "type": "uint256"
        }
      ],
      "name": "tokenURI",
      "outputs": [
        {
          "internalType": "string",
          "name": "",
          "type": "string"
        }
      ],
      "stateMutability": "view",
      "type": "function"
    },
    {
      "inputs": [
        {
          "internalType": "address",
          "name": "from",
          "type": "address"
        },
        {
          "internalType": "address",
          "name": "to",
          "type": "address"
        },
        {
          "internalType": "uint256",
          "name": "tokenId",
          "type": "uint256"
        }
      ],
      "name": "transferFrom",
      "outputs": [],
      "stateMutability": "nonpayable",
      "type": "function"
    },
    {
      "inputs": [
        {
          "internalType": "address",
          "name": "newOwner",
          "type": "address"
        }
      ],
      "name": "transferOwnership",
      "outputs": [],
      "stateMutability": "nonpayable",
      "type": "function"
    },
    {
      "inputs": [
        {
          "internalType": "uint256",
          "name": "_patientId",
          "type": "uint256"
        },
        {
          "internalType": "string",
          "name": "_height",
          "type": "string"
        },
        {
          "internalType": "string",
          "name": "_weight",
          "type": "string"
        },
        {
          "internalType": "string",
          "name": "_bloodPressure",
          "type": "string"
        }
      ],
      "name": "updateHealthRecord",
      "outputs": [],
      "stateMutability": "nonpayable",
      "type": "function"
    },
    {
      "inputs": [
        {
          "internalType": "uint256",
          "name": "_patientId",
          "type": "uint256"
        },
        {
          "internalType": "string",
          "name": "_newMedicalHistory",
          "type": "string"
        }
      ],
      "name": "updateMedicalHistory",
      "outputs": [],
      "stateMutability": "nonpayable",
      "type": "function"
    }
  ],
  "bytecode": "0x60806040523480156200001157600080fd5b506040518060400160405280600d81526020017f4865616c7468636172654e4654000000000000000000000000000000000000008152506040518060400160405280600381526020017f48434e000000000000000000000000000000000000000000000000000000000081525081600090816200008f919062000412565b508060019081620000a1919062000412565b505050620000c4620000b8620000ca60201b60201c565b620000d260201b60201c565b620004f9565b600033905090565b6000600760009054906101000a900473ffffffffffffffffffffffffffffffffffffffff16905081600760006101000a81548173ffffffffffffffffffffffffffffffffffffffff021916908373ffffffffffffffffffffffffffffffffffffffff1602179055508173ffffffffffffffffffffffffffffffffffffffff168173ffffffffffffffffffffffffffffffffffffffff167f8be0079c531659141344cd1fd0a4f28419497f9722a3daafe3b4186f6b6457e060405160405180910390a35050565b600081519050919050565b7f4e487b7100000000000000000000000000000000000000000000000000000000600052604160045260246000fd5b7f4e487b7100000000000000000000000000000000000000000000000000000000600052602260045260246000fd5b600060028204905060018216806200021a57607f821691505b60208210810362000230576200022f620001d2565b5b50919050565b60008190508160005260206000209050919050565b60006020601f8301049050919050565b600082821b905092915050565b6000600883026200029a7fffffffffffffffffffffffffffffffffffffffffffffffffffffffffffffffff826200025b565b620002a686836200025b565b95508019841693508086168417925050509392505050565b6000819050919050565b6000819050919050565b6000620002f3620002ed620002e784620002be565b620002c8565b620002be565b9050919050565b6000819050919050565b6200030f83620002d2565b620003276200031e82620002fa565b84845462000268565b825550505050565b600090565b6200033e6200032f565b6200034b81848462000304565b505050565b5b8181101562000373576200036760008262000334565b60018101905062000351565b5050565b601f821115620003c2576200038c8162000236565b62000397846200024b565b81016020851015620003a7578190505b620003bf620003b6856200024b565b83018262000350565b50505b505050565b600082821c905092915050565b6000620003e760001984600802620003c7565b1980831691505092915050565b6000620004028383620003d4565b9150826002028217905092915050565b6200041d8262000198565b67ffffffffffffffff811115620004395762000438620001a3565b5b62000445825462000201565b6200045282828562000377565b600060209050601f8311600181146200048a576000841562000475578287015190505b620004818582620003f4565b865550620004f1565b601f1984166200049a8662000236565b60005b82811015620004c4578489015182556001820191506020850194506020810190506200049d565b86831015620004e45784890151620004e0601f891682620003d4565b8355505b6001600288020188555050505b505050505050565b615fbf80620005096000396000f3fe608060405234801561001057600080fd5b50600436106102065760003560e01c8063715018a61161011a578063a98cd9e7116100ad578063e0f496f81161007c578063e0f496f814610618578063e985e9c514610634578063ef1017c314610664578063f2fde38b14610680578063feb8cef31461069c57610206565b8063a98cd9e714610580578063b88d4fde1461059c578063c87b56dd146105b8578063d95a19a5146105e857610206565b806395d89b41116100e957806395d89b411461050a5780639a837c9714610528578063a22cb46514610546578063a4705d641461056257610206565b8063715018a6146104a457806389149296146104ae5780638c1f28f3146104cc5780638da5cb5b146104ec57610206565b8063389aec7f1161019d5780636352211e1161016c5780636352211e146103bd578063652d7ded146103ed578063675ec7511461041d5780636ccda1b51461044d57806370a082311461047457610206565b8063389aec7f1461033257806342842e0e1461034e5780634b0a75731461036a5780634e9f71541461039f57610206565b806323b872dd116101d957806323b872dd146102a557806324d413c5146102c1578063300c601c146102dd5780633343696c1461031657610206565b806301ffc9a71461020b57806306fdde031461023b578063081812fc14610259578063095ea7b314610289575b600080fd5b6102256004803603810190610220919061411d565b6106b8565b6040516102329190614165565b60405180910390f35b610243610719565b6040516102509190614210565b60405180910390f35b610273600480360381019061026e9190614268565b6107ab565b60405161028091906142d6565b60405180910390f35b6102a3600480360381019061029e919061431d565b6107f1565b005b6102bf60048036038101906102ba919061435d565b610908565b005b6102db60048036038101906102d691906144e5565b610968565b005b6102f760048036038101906102f29190614268565b610a62565b60405161030d9a999897969594939291906145af565b60405180910390f35b610330600480360381019061032b919061468a565b611075565b005b61034c600480360381019061034791906146e6565b611149565b005b6103686004803603810190610363919061435d565b611276565b005b610384600480360381019061037f9190614268565b611296565b6040516103969695949392919061481b565b60405180910390f35b6103a761162c565b6040516103b49190614964565b60405180910390f35b6103d760048036038101906103d29190614268565b6116e2565b6040516103e491906142d6565b60405180910390f35b61040760048036038101906104029190614986565b611768565b6040516104149190614165565b60405180910390f35b610437600480360381019061043291906149c6565b611830565b6040516104449190614b10565b60405180910390f35b610455611a10565b60405161046b9a999897969594939291906145af565b60405180910390f35b61048e60048036038101906104899190614b2b565b611fbe565b60405161049b9190614b10565b60405180910390f35b6104ac612075565b005b6104b6612089565b6040516104c39190614165565b60405180910390f35b6104d46120a2565b6040516104e393929190614b58565b60405180910390f35b6104f46122cb565b60405161050191906142d6565b60405180910390f35b6105126122f5565b60405161051f9190614210565b60405180910390f35b610530612387565b60405161053d9190614b10565b60405180910390f35b610560600480360381019061055b9190614bd0565b612397565b005b61056a6123ad565b6040516105779190614b10565b60405180910390f35b61059a6004803603810190610595919061468a565b6123bd565b005b6105b660048036038101906105b19190614cb1565b6124ef565b005b6105d260048036038101906105cd9190614268565b612551565b6040516105df9190614210565b60405180910390f35b61060260048036038101906105fd9190614268565b612663565b60405161060f9190614e40565b60405180910390f35b610632600480360381019061062d9190614986565b6127fe565b005b61064e60048036038101906106499190614e62565b612b01565b60405161065b9190614165565b60405180910390f35b61067e600480360381019061067991906144e5565b612b95565b005b61069a60048036038101906106959190614b2b565b612c8f565b005b6106b660048036038101906106b19190614986565b612d12565b005b6000634906490660e01b7bffffffffffffffffffffffffffffffffffffffffffffffffffffffff1916827bffffffffffffffffffffffffffffffffffffffffffffffffffffffff19161480610712575061071182612ee1565b5b9050919050565b60606000805461072890614ed1565b80601f016020809104026020016040519081016040528092919081815260200182805461075490614ed1565b80156107a15780601f10610776576101008083540402835291602001916107a1565b820191906000526020600020905b81548152906001019060200180831161078457829003601f168201915b5050505050905090565b60006107b682612fc3565b6004600083815260200190815260200160002060009054906101000a900473ffffffffffffffffffffffffffffffffffffffff169050919050565b60006107fc826116e2565b90508073ffffffffffffffffffffffffffffffffffffffff168373ffffffffffffffffffffffffffffffffffffffff160361086c576040517f08c379a000000000000000000000000000000000000000000000000000000000815260040161086390614f74565b60405180910390fd5b8073ffffffffffffffffffffffffffffffffffffffff1661088b61300e565b73ffffffffffffffffffffffffffffffffffffffff1614806108ba57506108b9816108b461300e565b612b01565b5b6108f9576040517f08c379a00000000000000000000000000000000000000000000000000000000081526004016108f090615006565b60405180910390fd5b6109038383613016565b505050565b61091961091361300e565b826130cf565b610958576040517f08c379a000000000000000000000000000000000000000000000000000000000815260040161094f90615098565b60405180910390fd5b610963838383613164565b505050565b833373ffffffffffffffffffffffffffffffffffffffff16600a600083815260200190815260200160002060070160009054906101000a900473ffffffffffffffffffffffffffffffffffffffff1673ffffffffffffffffffffffffffffffffffffffff1614610a0d576040517f08c379a0000000000000000000000000000000000000000000000000000000008152600401610a049061512a565b60405180910390fd5b6000600a6000878152602001908152602001600020905084816009019081610a3591906152f6565b508381600a019081610a4791906152f6565b508281600b019081610a5991906152f6565b50505050505050565b606060006060806060806060806060806000600a60008d81526020019081526020016000209050600a60008d815260200190815260200160002060070160009054906101000a900473ffffffffffffffffffffffffffffffffffffffff1673ffffffffffffffffffffffffffffffffffffffff163373ffffffffffffffffffffffffffffffffffffffff161480610aff5750610afe8c33611768565b5b610b3e576040517f08c379a0000000000000000000000000000000000000000000000000000000008152600401610b359061543a565b60405180910390fd5b80600001816001015482600201836003018460040185600501866006018760090188600a0189600b01898054610b7390614ed1565b80601f0160208091040260200160405190810160405280929190818152602001828054610b9f90614ed1565b8015610bec5780601f10610bc157610100808354040283529160200191610bec565b820191906000526020600020905b815481529060010190602001808311610bcf57829003601f168201915b50505050509950878054610bff90614ed1565b80601f0160208091040260200160405190810160405280929190818152602001828054610c2b90614ed1565b8015610c785780601f10610c4d57610100808354040283529160200191610c78565b820191906000526020600020905b815481529060010190602001808311610c5b57829003601f168201915b50505050509750868054610c8b90614ed1565b80601f0160208091040260200160405190810160405280929190818152602001828054610cb790614ed1565b8015610d045780601f10610cd957610100808354040283529160200191610d04565b820191906000526020600020905b815481529060010190602001808311610ce757829003601f168201915b50505050509650858054610d1790614ed1565b80601f0160208091040260200160405190810160405280929190818152602001828054610d4390614ed1565b8015610d905780601f10610d6557610100808354040283529160200191610d90565b820191906000526020600020905b815481529060010190602001808311610d7357829003601f168201915b50505050509550848054610da390614ed1565b80601f0160208091040260200160405190810160405280929190818152602001828054610dcf90614ed1565b8015610e1c5780601f10610df157610100808354040283529160200191610e1c565b820191906000526020600020905b815481529060010190602001808311610dff57829003601f168201915b50505050509450838054610e2f90614ed1565b80601f0160208091040260200160405190810160405280929190818152602001828054610e5b90614ed1565b8015610ea85780601f10610e7d57610100808354040283529160200191610ea8565b820191906000526020600020905b815481529060010190602001808311610e8b57829003601f168201915b50505050509350828054610ebb90614ed1565b80601f0160208091040260200160405190810160405280929190818152602001828054610ee790614ed1565b8015610f345780601f10610f0957610100808354040283529160200191610f34565b820191906000526020600020905b815481529060010190602001808311610f1757829003601f168201915b50505050509250818054610f4790614ed1565b80601f0160208091040260200160405190810160405280929190818152602001828054610f7390614ed1565b8015610fc05780601f10610f9557610100808354040283529160200191610fc0565b820191906000526020600020905b815481529060010190602001808311610fa357829003601f168201915b50505050509150808054610fd390614ed1565b80601f0160208091040260200160405190810160405280929190818152602001828054610fff90614ed1565b801561104c5780601f106110215761010080835404028352916020019161104c565b820191906000526020600020905b81548152906001019060200180831161102f57829003601f168201915b505050505090509a509a509a509a509a509a509a509a509a509a50509193959799509193959799565b813373ffffffffffffffffffffffffffffffffffffffff16600a600083815260200190815260200160002060070160009054906101000a900473ffffffffffffffffffffffffffffffffffffffff1673ffffffffffffffffffffffffffffffffffffffff161461111a576040517f08c379a00000000000000000000000000000000000000000000000000000000081526004016111119061512a565b60405180910390fd5b6000600a600085815260200190815260200160002090508281600601908161114291906152f6565b5050505050565b611153600961345d565b600061115f6009613473565b90506000600b600083815260200190815260200160002090508781600001908161118991906152f6565b508681600101908161119b91906152f6565b50858160020190816111ad91906152f6565b50848160030190816111bf91906152f6565b50838160040190816111d191906152f6565b50828160050190816111e391906152f6565b50338160060160006101000a81548173ffffffffffffffffffffffffffffffffffffffff021916908373ffffffffffffffffffffffffffffffffffffffff1602179055507f54477a198cd7bd702e1bd40898d7605acfe83e3d6c753840135f61088802ab1b828989898989893360405161126498979695949392919061545a565b60405180910390a15050505050505050565b611291838383604051806020016040528060008152506124ef565b505050565b6060806060806060806000600b600089815260200190815260200160002090508060000181600101826002018360030184600401856005018580546112da90614ed1565b80601f016020809104026020016040519081016040528092919081815260200182805461130690614ed1565b80156113535780601f1061132857610100808354040283529160200191611353565b820191906000526020600020905b81548152906001019060200180831161133657829003601f168201915b5050505050955084805461136690614ed1565b80601f016020809104026020016040519081016040528092919081815260200182805461139290614ed1565b80156113df5780601f106113b4576101008083540402835291602001916113df565b820191906000526020600020905b8154815290600101906020018083116113c257829003601f168201915b505050505094508380546113f290614ed1565b80601f016020809104026020016040519081016040528092919081815260200182805461141e90614ed1565b801561146b5780601f106114405761010080835404028352916020019161146b565b820191906000526020600020905b81548152906001019060200180831161144e57829003601f168201915b5050505050935082805461147e90614ed1565b80601f01602080910402602001604051908101604052809291908181526020018280546114aa90614ed1565b80156114f75780601f106114cc576101008083540402835291602001916114f7565b820191906000526020600020905b8154815290600101906020018083116114da57829003601f168201915b5050505050925081805461150a90614ed1565b80601f016020809104026020016040519081016040528092919081815260200182805461153690614ed1565b80156115835780601f1061155857610100808354040283529160200191611583565b820191906000526020600020905b81548152906001019060200180831161156657829003601f168201915b5050505050915080805461159690614ed1565b80601f01602080910402602001604051908101604052809291908181526020018280546115c290614ed1565b801561160f5780601f106115e45761010080835404028352916020019161160f565b820191906000526020600020905b8154815290600101906020018083116115f257829003601f168201915b505050505090509650965096509650965096505091939550919395565b6060600061163a6009613473565b67ffffffffffffffff811115611653576116526143ba565b5b6040519080825280602002602001820160405280156116815781602001602082028036833780820191505090505b5090506000600190505b6116956009613473565b81116116da5780826001836116aa9190615531565b815181106116bb576116ba615565565b5b60200260200101818152505080806116d290615594565b91505061168b565b508091505090565b6000806116ee83613481565b9050600073ffffffffffffffffffffffffffffffffffffffff168173ffffffffffffffffffffffffffffffffffffffff160361175f576040517f08c379a000000000000000000000000000000000000000000000000000000000815260040161175690615628565b60405180910390fd5b80915050919050565b600080600a6000858152602001908152602001600020905060005b8160080180549050811015611823578373ffffffffffffffffffffffffffffffffffffffff168260080182815481106117bf576117be615565565b5b9060005260206000200160009054906101000a900473ffffffffffffffffffffffffffffffffffffffff1673ffffffffffffffffffffffffffffffffffffffff16036118105760019250505061182a565b808061181b90615594565b915050611783565b5060009150505b92915050565b600080885111611875576040517f08c379a000000000000000000000000000000000000000000000000000000000815260040161186c90615694565b60405180910390fd5b6000611880336134be565b146118c0576040517f08c379a00000000000000000000000000000000000000000000000000000000081526004016118b790615700565b60405180910390fd5b6118ca600861345d565b60006118d66008613473565b90506118e23382613566565b6000600a600083815260200190815260200160002090508981600001908161190a91906152f6565b508881600101819055508781600201908161192591906152f6565b508681600301908161193791906152f6565b508581600401908161194991906152f6565b508481600501908161195b91906152f6565b508381600601908161196d91906152f6565b50338160070160006101000a81548173ffffffffffffffffffffffffffffffffffffffff021916908373ffffffffffffffffffffffffffffffffffffffff1602179055507fd97b83316548098fb626d0b4c8bcd18e016277a4f778ec3540d1efa8f469516a828b8b8b8b8b8b336040516119ee989796959493929190615720565b60405180910390a1611a00600861345d565b8192505050979650505050505050565b606060006060806060806060806060806000611a2b336134be565b90506000600a6000838152602001908152602001600020905060008203611a87576040517f08c379a0000000000000000000000000000000000000000000000000000000008152600401611a7e9061580d565b60405180910390fd5b80600001816001015482600201836003018460040185600501866006018760090188600a0189600b01898054611abc90614ed1565b80601f0160208091040260200160405190810160405280929190818152602001828054611ae890614ed1565b8015611b355780601f10611b0a57610100808354040283529160200191611b35565b820191906000526020600020905b815481529060010190602001808311611b1857829003601f168201915b50505050509950878054611b4890614ed1565b80601f0160208091040260200160405190810160405280929190818152602001828054611b7490614ed1565b8015611bc15780601f10611b9657610100808354040283529160200191611bc1565b820191906000526020600020905b815481529060010190602001808311611ba457829003601f168201915b50505050509750868054611bd490614ed1565b80601f0160208091040260200160405190810160405280929190818152602001828054611c0090614ed1565b8015611c4d5780601f10611c2257610100808354040283529160200191611c4d565b820191906000526020600020905b815481529060010190602001808311611c3057829003601f168201915b50505050509650858054611c6090614ed1565b80601f0160208091040260200160405190810160405280929190818152602001828054611c8c90614ed1565b8015611cd95780601f10611cae57610100808354040283529160200191611cd9565b820191906000526020600020905b815481529060010190602001808311611cbc57829003601f168201915b50505050509550848054611cec90614ed1565b80601f0160208091040260200160405190810160405280929190818152602001828054611d1890614ed1565b8015611d655780601f10611d3a57610100808354040283529160200191611d65565b820191906000526020600020905b815481529060010190602001808311611d4857829003601f168201915b50505050509450838054611d7890614ed1565b80601f0160208091040260200160405190810160405280929190818152602001828054611da490614ed1565b8015611df15780601f10611dc657610100808354040283529160200191611df1565b820191906000526020600020905b815481529060010190602001808311611dd457829003601f168201915b50505050509350828054611e0490614ed1565b80601f0160208091040260200160405190810160405280929190818152602001828054611e3090614ed1565b8015611e7d5780601f10611e5257610100808354040283529160200191611e7d565b820191906000526020600020905b815481529060010190602001808311611e6057829003601f168201915b50505050509250818054611e9090614ed1565b80601f0160208091040260200160405190810160405280929190818152602001828054611ebc90614ed1565b8015611f095780601f10611ede57610100808354040283529160200191611f09565b820191906000526020600020905b815481529060010190602001808311611eec57829003601f168201915b50505050509150808054611f1c90614ed1565b80601f0160208091040260200160405190810160405280929190818152602001828054611f4890614ed1565b8015611f955780601f10611f6a57610100808354040283529160200191611f95565b820191906000526020600020905b815481529060010190602001808311611f7857829003601f168201915b505050505090509b509b509b509b509b509b509b509b509b509b50505090919293949596979899565b60008073ffffffffffffffffffffffffffffffffffffffff168273ffffffffffffffffffffffffffffffffffffffff160361202e576040517f08c379a00000000000000000000000000000000000000000000000000000000081526004016120259061589f565b60405180910390fd5b600360008373ffffffffffffffffffffffffffffffffffffffff1673ffffffffffffffffffffffffffffffffffffffff168152602001908152602001600020549050919050565b61207d613584565b6120876000613602565b565b600080612095336134be565b9050600081141591505090565b606080606060006120b2336136c8565b90506000600b600083815260200190815260200160002090506000820361210e576040517f08c379a00000000000000000000000000000000000000000000000000000000081526004016121059061590b565b60405180910390fd5b80600001816001018260020182805461212690614ed1565b80601f016020809104026020016040519081016040528092919081815260200182805461215290614ed1565b801561219f5780601f106121745761010080835404028352916020019161219f565b820191906000526020600020905b81548152906001019060200180831161218257829003601f168201915b505050505092508180546121b290614ed1565b80601f01602080910402602001604051908101604052809291908181526020018280546121de90614ed1565b801561222b5780601f106122005761010080835404028352916020019161222b565b820191906000526020600020905b81548152906001019060200180831161220e57829003601f168201915b5050505050915080805461223e90614ed1565b80601f016020809104026020016040519081016040528092919081815260200182805461226a90614ed1565b80156122b75780601f1061228c576101008083540402835291602001916122b7565b820191906000526020600020905b81548152906001019060200180831161229a57829003601f168201915b505050505090509450945094505050909192565b6000600760009054906101000a900473ffffffffffffffffffffffffffffffffffffffff16905090565b60606001805461230490614ed1565b80601f016020809104026020016040519081016040528092919081815260200182805461233090614ed1565b801561237d5780601f106123525761010080835404028352916020019161237d565b820191906000526020600020905b81548152906001019060200180831161236057829003601f168201915b5050505050905090565b6000612392336134be565b905090565b6123a96123a261300e565b8383613770565b5050565b60006123b8336136c8565b905090565b813373ffffffffffffffffffffffffffffffffffffffff16600a600083815260200190815260200160002060070160009054906101000a900473ffffffffffffffffffffffffffffffffffffffff1673ffffffffffffffffffffffffffffffffffffffff1614612462576040517f08c379a00000000000000000000000000000000000000000000000000000000081526004016124599061512a565b60405180910390fd5b6000600a6000858152602001908152602001600020905080600c01839080600181540180825580915050600190039060005260206000200160009091909190915090816124af91906152f6565b507f7753ae1630faa78a291b1cd31bc43c1fcbba106a1666394a44fadaab2a1dc0fe84846040516124e192919061592b565b60405180910390a150505050565b6125006124fa61300e565b836130cf565b61253f576040517f08c379a000000000000000000000000000000000000000000000000000000000815260040161253690615098565b60405180910390fd5b61254b848484846138dc565b50505050565b606061255c82612fc3565b600060066000848152602001908152602001600020805461257c90614ed1565b80601f01602080910402602001604051908101604052809291908181526020018280546125a890614ed1565b80156125f55780601f106125ca576101008083540402835291602001916125f5565b820191906000526020600020905b8154815290600101906020018083116125d857829003601f168201915b505050505090506000612606613938565b9050600081510361261b57819250505061265e565b600082511115612650578082604051602001612638929190615997565b6040516020818303038152906040529250505061265e565b6126598461394f565b925050505b919050565b6060813373ffffffffffffffffffffffffffffffffffffffff16600a600083815260200190815260200160002060070160009054906101000a900473ffffffffffffffffffffffffffffffffffffffff1673ffffffffffffffffffffffffffffffffffffffff161461270a576040517f08c379a00000000000000000000000000000000000000000000000000000000081526004016127019061512a565b60405180910390fd5b6000600a6000858152602001908152602001600020905080600c01805480602002602001604051908101604052809291908181526020016000905b828210156127f157838290600052602060002001805461276490614ed1565b80601f016020809104026020016040519081016040528092919081815260200182805461279090614ed1565b80156127dd5780601f106127b2576101008083540402835291602001916127dd565b820191906000526020600020905b8154815290600101906020018083116127c057829003601f168201915b505050505081526020019060010190612745565b5050505092505050919050565b813373ffffffffffffffffffffffffffffffffffffffff16600a600083815260200190815260200160002060070160009054906101000a900473ffffffffffffffffffffffffffffffffffffffff1673ffffffffffffffffffffffffffffffffffffffff16146128a3576040517f08c379a000000000000000000000000000000000000000000000000000000000815260040161289a9061512a565b60405180910390fd5b6000600a60008581526020019081526020016000209050600073ffffffffffffffffffffffffffffffffffffffff168373ffffffffffffffffffffffffffffffffffffffff1603612929576040517f08c379a000000000000000000000000000000000000000000000000000000000815260040161292090615a07565b60405180910390fd5b60005b8160080180549050811015612afa578373ffffffffffffffffffffffffffffffffffffffff1682600801828154811061296857612967615565565b5b9060005260206000200160009054906101000a900473ffffffffffffffffffffffffffffffffffffffff1673ffffffffffffffffffffffffffffffffffffffff1603612ae75781600801600183600801805490506129c69190615531565b815481106129d7576129d6615565565b5b9060005260206000200160009054906101000a900473ffffffffffffffffffffffffffffffffffffffff16826008018281548110612a1857612a17615565565b5b9060005260206000200160006101000a81548173ffffffffffffffffffffffffffffffffffffffff021916908373ffffffffffffffffffffffffffffffffffffffff16021790555081600801805480612a7457612a73615a27565b5b6001900381819060005260206000200160006101000a81549073ffffffffffffffffffffffffffffffffffffffff021916905590557f5dbe2203a32c28f0202307d2aaf701d7927539cf61569040ae884fffb37e09828585604051612ada929190615a56565b60405180910390a1612afa565b8080612af290615594565b91505061292c565b5050505050565b6000600560008473ffffffffffffffffffffffffffffffffffffffff1673ffffffffffffffffffffffffffffffffffffffff16815260200190815260200160002060008373ffffffffffffffffffffffffffffffffffffffff1673ffffffffffffffffffffffffffffffffffffffff16815260200190815260200160002060009054906101000a900460ff16905092915050565b833373ffffffffffffffffffffffffffffffffffffffff16600a600083815260200190815260200160002060070160009054906101000a900473ffffffffffffffffffffffffffffffffffffffff1673ffffffffffffffffffffffffffffffffffffffff1614612c3a576040517f08c379a0000000000000000000000000000000000000000000000000000000008152600401612c319061512a565b60405180910390fd5b6000600a6000878152602001908152602001600020905084816009019081612c6291906152f6565b508381600a019081612c7491906152f6565b508281600b019081612c8691906152f6565b50505050505050565b612c97613584565b600073ffffffffffffffffffffffffffffffffffffffff168173ffffffffffffffffffffffffffffffffffffffff1603612d06576040517f08c379a0000000000000000000000000000000000000000000000000000000008152600401612cfd90615af1565b60405180910390fd5b612d0f81613602565b50565b813373ffffffffffffffffffffffffffffffffffffffff16600a600083815260200190815260200160002060070160009054906101000a900473ffffffffffffffffffffffffffffffffffffffff1673ffffffffffffffffffffffffffffffffffffffff1614612db7576040517f08c379a0000000000000000000000000000000000000000000000000000000008152600401612dae9061512a565b60405180910390fd5b6000600a60008581526020019081526020016000209050600073ffffffffffffffffffffffffffffffffffffffff168373ffffffffffffffffffffffffffffffffffffffff1603612e3d576040517f08c379a0000000000000000000000000000000000000000000000000000000008152600401612e3490615a07565b60405180910390fd5b80600801839080600181540180825580915050600190039060005260206000200160009091909190916101000a81548173ffffffffffffffffffffffffffffffffffffffff021916908373ffffffffffffffffffffffffffffffffffffffff1602179055507ff16e9a03b0c54bb809a906ea44c85061c5b52ccbf9d5b6fe883ab548d5e31d8a8484604051612ed3929190615a56565b60405180910390a150505050565b60007f80ac58cd000000000000000000000000000000000000000000000000000000007bffffffffffffffffffffffffffffffffffffffffffffffffffffffff1916827bffffffffffffffffffffffffffffffffffffffffffffffffffffffff19161480612fac57507f5b5e139f000000000000000000000000000000000000000000000000000000007bffffffffffffffffffffffffffffffffffffffffffffffffffffffff1916827bffffffffffffffffffffffffffffffffffffffffffffffffffffffff1916145b80612fbc5750612fbb826139b7565b5b9050919050565b612fcc81613a21565b61300b576040517f08c379a000000000000000000000000000000000000000000000000000000000815260040161300290615628565b60405180910390fd5b50565b600033905090565b816004600083815260200190815260200160002060006101000a81548173ffffffffffffffffffffffffffffffffffffffff021916908373ffffffffffffffffffffffffffffffffffffffff160217905550808273ffffffffffffffffffffffffffffffffffffffff16613089836116e2565b73ffffffffffffffffffffffffffffffffffffffff167f8c5be1e5ebec7d5bd14f71427d1e84f3dd0314c0f7b2291e5b200ac8c7c3b92560405160405180910390a45050565b6000806130db836116e2565b90508073ffffffffffffffffffffffffffffffffffffffff168473ffffffffffffffffffffffffffffffffffffffff16148061311d575061311c8185612b01565b5b8061315b57508373ffffffffffffffffffffffffffffffffffffffff16613143846107ab565b73ffffffffffffffffffffffffffffffffffffffff16145b91505092915050565b8273ffffffffffffffffffffffffffffffffffffffff16613184826116e2565b73ffffffffffffffffffffffffffffffffffffffff16146131da576040517f08c379a00000000000000000000000000000000000000000000000000000000081526004016131d190615b83565b60405180910390fd5b600073ffffffffffffffffffffffffffffffffffffffff168273ffffffffffffffffffffffffffffffffffffffff1603613249576040517f08c379a000000000000000000000000000000000000000000000000000000000815260040161324090615c15565b60405180910390fd5b6132568383836001613a62565b8273ffffffffffffffffffffffffffffffffffffffff16613276826116e2565b73ffffffffffffffffffffffffffffffffffffffff16146132cc576040517f08c379a00000000000000000000000000000000000000000000000000000000081526004016132c390615b83565b60405180910390fd5b6004600082815260200190815260200160002060006101000a81549073ffffffffffffffffffffffffffffffffffffffff02191690556001600360008573ffffffffffffffffffffffffffffffffffffffff1673ffffffffffffffffffffffffffffffffffffffff168152602001908152602001600020600082825403925050819055506001600360008473ffffffffffffffffffffffffffffffffffffffff1673ffffffffffffffffffffffffffffffffffffffff16815260200190815260200160002060008282540192505081905550816002600083815260200190815260200160002060006101000a81548173ffffffffffffffffffffffffffffffffffffffff021916908373ffffffffffffffffffffffffffffffffffffffff160217905550808273ffffffffffffffffffffffffffffffffffffffff168473ffffffffffffffffffffffffffffffffffffffff167fddf252ad1be2c89b69c2b068fc378daa952ba7f163c4a11628f55a4df523b3ef60405160405180910390a46134588383836001613a68565b505050565b6001816000016000828254019250508190555050565b600081600001549050919050565b60006002600083815260200190815260200160002060009054906101000a900473ffffffffffffffffffffffffffffffffffffffff169050919050565b600080600190505b6134d06008613473565b811161355b578273ffffffffffffffffffffffffffffffffffffffff16600a600083815260200190815260200160002060070160009054906101000a900473ffffffffffffffffffffffffffffffffffffffff1673ffffffffffffffffffffffffffffffffffffffff16036135485780915050613561565b808061355390615594565b9150506134c6565b50600090505b919050565b613580828260405180602001604052806000815250613a6e565b5050565b61358c61300e565b73ffffffffffffffffffffffffffffffffffffffff166135aa6122cb565b73ffffffffffffffffffffffffffffffffffffffff1614613600576040517f08c379a00000000000000000000000000000000000000000000000000000000081526004016135f790615c81565b60405180910390fd5b565b6000600760009054906101000a900473ffffffffffffffffffffffffffffffffffffffff16905081600760006101000a81548173ffffffffffffffffffffffffffffffffffffffff021916908373ffffffffffffffffffffffffffffffffffffffff1602179055508173ffffffffffffffffffffffffffffffffffffffff168173ffffffffffffffffffffffffffffffffffffffff167f8be0079c531659141344cd1fd0a4f28419497f9722a3daafe3b4186f6b6457e060405160405180910390a35050565b600080600190505b6136da6009613473565b8111613765578273ffffffffffffffffffffffffffffffffffffffff16600b600083815260200190815260200160002060060160009054906101000a900473ffffffffffffffffffffffffffffffffffffffff1673ffffffffffffffffffffffffffffffffffffffff1603613752578091505061376b565b808061375d90615594565b9150506136d0565b50600090505b919050565b8173ffffffffffffffffffffffffffffffffffffffff168373ffffffffffffffffffffffffffffffffffffffff16036137de576040517f08c379a00000000000000000000000000000000000000000000000000000000081526004016137d590615ced565b60405180910390fd5b80600560008573ffffffffffffffffffffffffffffffffffffffff1673ffffffffffffffffffffffffffffffffffffffff16815260200190815260200160002060008473ffffffffffffffffffffffffffffffffffffffff1673ffffffffffffffffffffffffffffffffffffffff16815260200190815260200160002060006101000a81548160ff0219169083151502179055508173ffffffffffffffffffffffffffffffffffffffff168373ffffffffffffffffffffffffffffffffffffffff167f17307eab39ab6107e8899845ad3d59bd9653f200f220920489ca2b5937696c31836040516138cf9190614165565b60405180910390a3505050565b6138e7848484613164565b6138f384848484613ac9565b613932576040517f08c379a000000000000000000000000000000000000000000000000000000000815260040161392990615d7f565b60405180910390fd5b50505050565b606060405180602001604052806000815250905090565b606061395a82612fc3565b6000613964613938565b9050600081511161398457604051806020016040528060008152506139af565b8061398e84613c50565b60405160200161399f929190615997565b6040516020818303038152906040525b915050919050565b60007f01ffc9a7000000000000000000000000000000000000000000000000000000007bffffffffffffffffffffffffffffffffffffffffffffffffffffffff1916827bffffffffffffffffffffffffffffffffffffffffffffffffffffffff1916149050919050565b60008073ffffffffffffffffffffffffffffffffffffffff16613a4383613481565b73ffffffffffffffffffffffffffffffffffffffff1614159050919050565b50505050565b50505050565b613a788383613d1e565b613a856000848484613ac9565b613ac4576040517f08c379a0000000000000000000000000000000000000000000000000000000008152600401613abb90615d7f565b60405180910390fd5b505050565b6000613aea8473ffffffffffffffffffffffffffffffffffffffff16613f3b565b15613c43578373ffffffffffffffffffffffffffffffffffffffff1663150b7a02613b1361300e565b8786866040518563ffffffff1660e01b8152600401613b359493929190615df4565b6020604051808303816000875af1925050508015613b7157506040513d601f19601f82011682018060405250810190613b6e9190615e55565b60015b613bf3573d8060008114613ba1576040519150601f19603f3d011682016040523d82523d6000602084013e613ba6565b606091505b506000815103613beb576040517f08c379a0000000000000000000000000000000000000000000000000000000008152600401613be290615d7f565b60405180910390fd5b805181602001fd5b63150b7a0260e01b7bffffffffffffffffffffffffffffffffffffffffffffffffffffffff1916817bffffffffffffffffffffffffffffffffffffffffffffffffffffffff191614915050613c48565b600190505b949350505050565b606060006001613c5f84613f5e565b01905060008167ffffffffffffffff811115613c7e57613c7d6143ba565b5b6040519080825280601f01601f191660200182016040528015613cb05781602001600182028036833780820191505090505b509050600082602001820190505b600115613d13578080600190039150507f3031323334353637383961626364656600000000000000000000000000000000600a86061a8153600a8581613d0757613d06615e82565b5b04945060008503613cbe575b819350505050919050565b600073ffffffffffffffffffffffffffffffffffffffff168273ffffffffffffffffffffffffffffffffffffffff1603613d8d576040517f08c379a0000000000000000000000000000000000000000000000000000000008152600401613d8490615efd565b60405180910390fd5b613d9681613a21565b15613dd6576040517f08c379a0000000000000000000000000000000000000000000000000000000008152600401613dcd90615f69565b60405180910390fd5b613de4600083836001613a62565b613ded81613a21565b15613e2d576040517f08c379a0000000000000000000000000000000000000000000000000000000008152600401613e2490615f69565b60405180910390fd5b6001600360008473ffffffffffffffffffffffffffffffffffffffff1673ffffffffffffffffffffffffffffffffffffffff16815260200190815260200160002060008282540192505081905550816002600083815260200190815260200160002060006101000a81548173ffffffffffffffffffffffffffffffffffffffff021916908373ffffffffffffffffffffffffffffffffffffffff160217905550808273ffffffffffffffffffffffffffffffffffffffff16600073ffffffffffffffffffffffffffffffffffffffff167fddf252ad1be2c89b69c2b068fc378daa952ba7f163c4a11628f55a4df523b3ef60405160405180910390a4613f37600083836001613a68565b5050565b6000808273ffffffffffffffffffffffffffffffffffffffff163b119050919050565b600080600090507a184f03e93ff9f4daa797ed6e38ed64bf6a1f0100000000000000008310613fbc577a184f03e93ff9f4daa797ed6e38ed64bf6a1f0100000000000000008381613fb257613fb1615e82565b5b0492506040810190505b6d04ee2d6d415b85acef81000000008310613ff9576d04ee2d6d415b85acef81000000008381613fef57613fee615e82565b5b0492506020810190505b662386f26fc10000831061402857662386f26fc10000838161401e5761401d615e82565b5b0492506010810190505b6305f5e1008310614051576305f5e100838161404757614046615e82565b5b0492506008810190505b612710831061407657612710838161406c5761406b615e82565b5b0492506004810190505b60648310614099576064838161408f5761408e615e82565b5b0492506002810190505b600a83106140a8576001810190505b80915050919050565b6000604051905090565b600080fd5b600080fd5b60007fffffffff0000000000000000000000000000000000000000000000000000000082169050919050565b6140fa816140c5565b811461410557600080fd5b50565b600081359050614117816140f1565b92915050565b600060208284031215614133576141326140bb565b5b600061414184828501614108565b91505092915050565b60008115159050919050565b61415f8161414a565b82525050565b600060208201905061417a6000830184614156565b92915050565b600081519050919050565b600082825260208201905092915050565b60005b838110156141ba57808201518184015260208101905061419f565b60008484015250505050565b6000601f19601f8301169050919050565b60006141e282614180565b6141ec818561418b565b93506141fc81856020860161419c565b614205816141c6565b840191505092915050565b6000602082019050818103600083015261422a81846141d7565b905092915050565b6000819050919050565b61424581614232565b811461425057600080fd5b50565b6000813590506142628161423c565b92915050565b60006020828403121561427e5761427d6140bb565b5b600061428c84828501614253565b91505092915050565b600073ffffffffffffffffffffffffffffffffffffffff82169050919050565b60006142c082614295565b9050919050565b6142d0816142b5565b82525050565b60006020820190506142eb60008301846142c7565b92915050565b6142fa816142b5565b811461430557600080fd5b50565b600081359050614317816142f1565b92915050565b60008060408385031215614334576143336140bb565b5b600061434285828601614308565b925050602061435385828601614253565b9150509250929050565b600080600060608486031215614376576143756140bb565b5b600061438486828701614308565b935050602061439586828701614308565b92505060406143a686828701614253565b9150509250925092565b600080fd5b600080fd5b7f4e487b7100000000000000000000000000000000000000000000000000000000600052604160045260246000fd5b6143f2826141c6565b810181811067ffffffffffffffff82111715614411576144106143ba565b5b80604052505050565b60006144246140b1565b905061443082826143e9565b919050565b600067ffffffffffffffff8211156144505761444f6143ba565b5b614459826141c6565b9050602081019050919050565b82818337600083830152505050565b600061448861448384614435565b61441a565b9050828152602081018484840111156144a4576144a36143b5565b5b6144af848285614466565b509392505050565b600082601f8301126144cc576144cb6143b0565b5b81356144dc848260208601614475565b91505092915050565b600080600080608085870312156144ff576144fe6140bb565b5b600061450d87828801614253565b945050602085013567ffffffffffffffff81111561452e5761452d6140c0565b5b61453a878288016144b7565b935050604085013567ffffffffffffffff81111561455b5761455a6140c0565b5b614567878288016144b7565b925050606085013567ffffffffffffffff811115614588576145876140c0565b5b614594878288016144b7565b91505092959194509250565b6145a981614232565b82525050565b60006101408201905081810360008301526145ca818d6141d7565b90506145d9602083018c6145a0565b81810360408301526145eb818b6141d7565b905081810360608301526145ff818a6141d7565b9050818103608083015261461381896141d7565b905081810360a083015261462781886141d7565b905081810360c083015261463b81876141d7565b905081810360e083015261464f81866141d7565b905081810361010083015261466481856141d7565b905081810361012083015261467981846141d7565b90509b9a5050505050505050505050565b600080604083850312156146a1576146a06140bb565b5b60006146af85828601614253565b925050602083013567ffffffffffffffff8111156146d0576146cf6140c0565b5b6146dc858286016144b7565b9150509250929050565b60008060008060008060c08789031215614703576147026140bb565b5b600087013567ffffffffffffffff811115614721576147206140c0565b5b61472d89828a016144b7565b965050602087013567ffffffffffffffff81111561474e5761474d6140c0565b5b61475a89828a016144b7565b955050604087013567ffffffffffffffff81111561477b5761477a6140c0565b5b61478789828a016144b7565b945050606087013567ffffffffffffffff8111156147a8576147a76140c0565b5b6147b489828a016144b7565b935050608087013567ffffffffffffffff8111156147d5576147d46140c0565b5b6147e189828a016144b7565b92505060a087013567ffffffffffffffff811115614802576148016140c0565b5b61480e89828a016144b7565b9150509295509295509295565b600060c082019050818103600083015261483581896141d7565b9050818103602083015261484981886141d7565b9050818103604083015261485d81876141d7565b9050818103606083015261487181866141d7565b9050818103608083015261488581856141d7565b905081810360a083015261489981846141d7565b9050979650505050505050565b600081519050919050565b600082825260208201905092915050565b6000819050602082019050919050565b6148db81614232565b82525050565b60006148ed83836148d2565b60208301905092915050565b6000602082019050919050565b6000614911826148a6565b61491b81856148b1565b9350614926836148c2565b8060005b8381101561495757815161493e88826148e1565b9750614949836148f9565b92505060018101905061492a565b5085935050505092915050565b6000602082019050818103600083015261497e8184614906565b905092915050565b6000806040838503121561499d5761499c6140bb565b5b60006149ab85828601614253565b92505060206149bc85828601614308565b9150509250929050565b600080600080600080600060e0888a0312156149e5576149e46140bb565b5b600088013567ffffffffffffffff811115614a0357614a026140c0565b5b614a0f8a828b016144b7565b9750506020614a208a828b01614253565b965050604088013567ffffffffffffffff811115614a4157614a406140c0565b5b614a4d8a828b016144b7565b955050606088013567ffffffffffffffff811115614a6e57614a6d6140c0565b5b614a7a8a828b016144b7565b945050608088013567ffffffffffffffff811115614a9b57614a9a6140c0565b5b614aa78a828b016144b7565b93505060a088013567ffffffffffffffff811115614ac857614ac76140c0565b5b614ad48a828b016144b7565b92505060c088013567ffffffffffffffff811115614af557614af46140c0565b5b614b018a828b016144b7565b91505092959891949750929550565b6000602082019050614b2560008301846145a0565b92915050565b600060208284031215614b4157614b406140bb565b5b6000614b4f84828501614308565b91505092915050565b60006060820190508181036000830152614b7281866141d7565b90508181036020830152614b8681856141d7565b90508181036040830152614b9a81846141d7565b9050949350505050565b614bad8161414a565b8114614bb857600080fd5b50565b600081359050614bca81614ba4565b92915050565b60008060408385031215614be757614be66140bb565b5b6000614bf585828601614308565b9250506020614c0685828601614bbb565b9150509250929050565b600067ffffffffffffffff821115614c2b57614c2a6143ba565b5b614c34826141c6565b9050602081019050919050565b6000614c54614c4f84614c10565b61441a565b905082815260208101848484011115614c7057614c6f6143b5565b5b614c7b848285614466565b509392505050565b600082601f830112614c9857614c976143b0565b5b8135614ca8848260208601614c41565b91505092915050565b60008060008060808587031215614ccb57614cca6140bb565b5b6000614cd987828801614308565b9450506020614cea87828801614308565b9350506040614cfb87828801614253565b925050606085013567ffffffffffffffff811115614d1c57614d1b6140c0565b5b614d2887828801614c83565b91505092959194509250565b600081519050919050565b600082825260208201905092915050565b6000819050602082019050919050565b600082825260208201905092915050565b6000614d7c82614180565b614d868185614d60565b9350614d9681856020860161419c565b614d9f816141c6565b840191505092915050565b6000614db68383614d71565b905092915050565b6000602082019050919050565b6000614dd682614d34565b614de08185614d3f565b935083602082028501614df285614d50565b8060005b85811015614e2e5784840389528151614e0f8582614daa565b9450614e1a83614dbe565b925060208a01995050600181019050614df6565b50829750879550505050505092915050565b60006020820190508181036000830152614e5a8184614dcb565b905092915050565b60008060408385031215614e7957614e786140bb565b5b6000614e8785828601614308565b9250506020614e9885828601614308565b9150509250929050565b7f4e487b7100000000000000000000000000000000000000000000000000000000600052602260045260246000fd5b60006002820490506001821680614ee957607f821691505b602082108103614efc57614efb614ea2565b5b50919050565b7f4552433732313a20617070726f76616c20746f2063757272656e74206f776e6560008201527f7200000000000000000000000000000000000000000000000000000000000000602082015250565b6000614f5e60218361418b565b9150614f6982614f02565b604082019050919050565b60006020820190508181036000830152614f8d81614f51565b9050919050565b7f4552433732313a20617070726f76652063616c6c6572206973206e6f7420746f60008201527f6b656e206f776e6572206f7220617070726f76656420666f7220616c6c000000602082015250565b6000614ff0603d8361418b565b9150614ffb82614f94565b604082019050919050565b6000602082019050818103600083015261501f81614fe3565b9050919050565b7f4552433732313a2063616c6c6572206973206e6f7420746f6b656e206f776e6560008201527f72206f7220617070726f76656400000000000000000000000000000000000000602082015250565b6000615082602d8361418b565b915061508d82615026565b604082019050919050565b600060208201905081810360008301526150b181615075565b9050919050565b7f4e6f7420746865206f776e6572206f66207468652070617469656e742072656360008201527f6f72640000000000000000000000000000000000000000000000000000000000602082015250565b600061511460238361418b565b915061511f826150b8565b604082019050919050565b6000602082019050818103600083015261514381615107565b9050919050565b60008190508160005260206000209050919050565b60006020601f8301049050919050565b600082821b905092915050565b6000600883026151ac7fffffffffffffffffffffffffffffffffffffffffffffffffffffffffffffffff8261516f565b6151b6868361516f565b95508019841693508086168417925050509392505050565b6000819050919050565b60006151f36151ee6151e984614232565b6151ce565b614232565b9050919050565b6000819050919050565b61520d836151d8565b615221615219826151fa565b84845461517c565b825550505050565b600090565b615236615229565b615241818484615204565b505050565b5b818110156152655761525a60008261522e565b600181019050615247565b5050565b601f8211156152aa5761527b8161514a565b6152848461515f565b81016020851015615293578190505b6152a761529f8561515f565b830182615246565b50505b505050565b600082821c905092915050565b60006152cd600019846008026152af565b1980831691505092915050565b60006152e683836152bc565b9150826002028217905092915050565b6152ff82614180565b67ffffffffffffffff811115615318576153176143ba565b5b6153228254614ed1565b61532d828285615269565b600060209050601f831160018114615360576000841561534e578287015190505b61535885826152da565b8655506153c0565b601f19841661536e8661514a565b60005b8281101561539657848901518255600182019150602085019450602081019050615371565b868310156153b357848901516153af601f8916826152bc565b8355505b6001600288020188555050505b505050505050565b7f4e6f7420617574686f72697a656420746f20766965772070617469656e74206460008201527f657461696c730000000000000000000000000000000000000000000000000000602082015250565b600061542460268361418b565b915061542f826153c8565b604082019050919050565b6000602082019050818103600083015261545381615417565b9050919050565b600061010082019050615470600083018b6145a0565b8181036020830152615482818a6141d7565b9050818103604083015261549681896141d7565b905081810360608301526154aa81886141d7565b905081810360808301526154be81876141d7565b905081810360a08301526154d281866141d7565b905081810360c08301526154e681856141d7565b90506154f560e08301846142c7565b9998505050505050505050565b7f4e487b7100000000000000000000000000000000000000000000000000000000600052601160045260246000fd5b600061553c82614232565b915061554783614232565b925082820390508181111561555f5761555e615502565b5b92915050565b7f4e487b7100000000000000000000000000000000000000000000000000000000600052603260045260246000fd5b600061559f82614232565b91507fffffffffffffffffffffffffffffffffffffffffffffffffffffffffffffffff82036155d1576155d0615502565b5b600182019050919050565b7f4552433732313a20696e76616c696420746f6b656e2049440000000000000000600082015250565b600061561260188361418b565b915061561d826155dc565b602082019050919050565b6000602082019050818103600083015261564181615605565b9050919050565b7f50617469656e74206e616d652063616e6e6f7420626520656d70747900000000600082015250565b600061567e601c8361418b565b915061568982615648565b602082019050919050565b600060208201905081810360008301526156ad81615671565b9050919050565b7f50617469656e7420697320616c72656164792072656769737465726564000000600082015250565b60006156ea601d8361418b565b91506156f5826156b4565b602082019050919050565b60006020820190508181036000830152615719816156dd565b9050919050565b600061010082019050615736600083018b6145a0565b8181036020830152615748818a6141d7565b905061575760408301896145a0565b818103606083015261576981886141d7565b9050818103608083015261577d81876141d7565b905081810360a083015261579181866141d7565b905081810360c08301526157a581856141d7565b90506157b460e08301846142c7565b9998505050505050505050565b7f50617469656e74206e6f7420666f756e64000000000000000000000000000000600082015250565b60006157f760118361418b565b9150615802826157c1565b602082019050919050565b60006020820190508181036000830152615826816157ea565b9050919050565b7f4552433732313a2061646472657373207a65726f206973206e6f74206120766160008201527f6c6964206f776e65720000000000000000000000000000000000000000000000602082015250565b600061588960298361418b565b91506158948261582d565b604082019050919050565b600060208201905081810360008301526158b88161587c565b9050919050565b7f486f73706974616c206e6f7420666f756e640000000000000000000000000000600082015250565b60006158f560128361418b565b9150615900826158bf565b602082019050919050565b60006020820190508181036000830152615924816158e8565b9050919050565b600060408201905061594060008301856145a0565b818103602083015261595281846141d7565b90509392505050565b600081905092915050565b600061597182614180565b61597b818561595b565b935061598b81856020860161419c565b80840191505092915050565b60006159a38285615966565b91506159af8284615966565b91508190509392505050565b7f496e76616c696420766965776572206164647265737300000000000000000000600082015250565b60006159f160168361418b565b91506159fc826159bb565b602082019050919050565b60006020820190508181036000830152615a20816159e4565b9050919050565b7f4e487b7100000000000000000000000000000000000000000000000000000000600052603160045260246000fd5b6000604082019050615a6b60008301856145a0565b615a7860208301846142c7565b9392505050565b7f4f776e61626c653a206e6577206f776e657220697320746865207a65726f206160008201527f6464726573730000000000000000000000000000000000000000000000000000602082015250565b6000615adb60268361418b565b9150615ae682615a7f565b604082019050919050565b60006020820190508181036000830152615b0a81615ace565b9050919050565b7f4552433732313a207472616e736665722066726f6d20696e636f72726563742060008201527f6f776e6572000000000000000000000000000000000000000000000000000000602082015250565b6000615b6d60258361418b565b9150615b7882615b11565b604082019050919050565b60006020820190508181036000830152615b9c81615b60565b9050919050565b7f4552433732313a207472616e7366657220746f20746865207a65726f2061646460008201527f7265737300000000000000000000000000000000000000000000000000000000602082015250565b6000615bff60248361418b565b9150615c0a82615ba3565b604082019050919050565b60006020820190508181036000830152615c2e81615bf2565b9050919050565b7f4f776e61626c653a2063616c6c6572206973206e6f7420746865206f776e6572600082015250565b6000615c6b60208361418b565b9150615c7682615c35565b602082019050919050565b60006020820190508181036000830152615c9a81615c5e565b9050919050565b7f4552433732313a20617070726f766520746f2063616c6c657200000000000000600082015250565b6000615cd760198361418b565b9150615ce282615ca1565b602082019050919050565b60006020820190508181036000830152615d0681615cca565b9050919050565b7f4552433732313a207472616e7366657220746f206e6f6e20455243373231526560008201527f63656976657220696d706c656d656e7465720000000000000000000000000000602082015250565b6000615d6960328361418b565b9150615d7482615d0d565b604082019050919050565b60006020820190508181036000830152615d9881615d5c565b9050919050565b600081519050919050565b600082825260208201905092915050565b6000615dc682615d9f565b615dd08185615daa565b9350615de081856020860161419c565b615de9816141c6565b840191505092915050565b6000608082019050615e0960008301876142c7565b615e1660208301866142c7565b615e2360408301856145a0565b8181036060830152615e358184615dbb565b905095945050505050565b600081519050615e4f816140f1565b92915050565b600060208284031215615e6b57615e6a6140bb565b5b6000615e7984828501615e40565b91505092915050565b7f4e487b7100000000000000000000000000000000000000000000000000000000600052601260045260246000fd5b7f4552433732313a206d696e7420746f20746865207a65726f2061646472657373600082015250565b6000615ee760208361418b565b9150615ef282615eb1565b602082019050919050565b60006020820190508181036000830152615f1681615eda565b9050919050565b7f4552433732313a20746f6b656e20616c7265616479206d696e74656400000000600082015250565b6000615f53601c8361418b565b9150615f5e82615f1d565b602082019050919050565b60006020820190508181036000830152615f8281615f46565b905091905056fea2646970667358221220866f0b4260e8c38d076f62b2d951cec5b8850ccad7352368618855dfd191065f64736f6c63430008110033",
  "linkReferences": {},
  "deployedLinkReferences": {}
}