{
  "_format": "hh-sol-artifact-1",
  "contractName": "MyNFT",
  "sourceName": "contracts/MyNFT.sol",
  "abi": [
    {
      "inputs": [],
      "stateMutability": "nonpayable",
      "type": "constructor"
    },
    {
      "anonymous": false,
      "inputs": [
        {
          "indexed": true,
          "internalType": "address",
          "name": "owner",
          "type": "address"
        },
        {
          "indexed": true,
          "internalType": "address",
          "name": "approved",
          "type": "address"
        },
        {
          "indexed": true,
          "internalType": "uint256",
          "name": "tokenId",
          "type": "uint256"
        }
      ],
      "name": "Approval",
      "type": "event"
    },
    {
      "anonymous": false,
      "inputs": [
        {
          "indexed": true,
          "internalType": "address",
          "name": "owner",
          "type": "address"
        },
        {
          "indexed": true,
          "internalType": "address",
          "name": "operator",
          "type": "address"
        },
        {
          "indexed": false,
          "internalType": "bool",
          "name": "approved",
          "type": "bool"
        }
      ],
      "name": "ApprovalForAll",
      "type": "event"
    },
    {
      "anonymous": false,
      "inputs": [
        {
          "indexed": false,
          "internalType": "uint256",
          "name": "patientId",
          "type": "uint256"
        },
        {
          "indexed": false,
          "internalType": "address",
          "name": "viewer",
          "type": "address"
        }
      ],
      "name": "AuthorizedViewerAdded",
      "type": "event"
    },
    {
      "anonymous": false,
      "inputs": [
        {
          "indexed": false,
          "internalType": "uint256",
          "name": "patientId",
          "type": "uint256"
        },
        {
          "indexed": false,
          "internalType": "address",
          "name": "viewer",
          "type": "address"
        }
      ],
      "name": "AuthorizedViewerRemoved",
      "type": "event"
    },
    {
      "anonymous": false,
      "inputs": [
        {
          "indexed": false,
          "internalType": "uint256",
          "name": "_fromTokenId",
          "type": "uint256"
        },
        {
          "indexed": false,
          "internalType": "uint256",
          "name": "_toTokenId",
          "type": "uint256"
        }
      ],
      "name": "BatchMetadataUpdate",
      "type": "event"
    },
    {
      "anonymous": false,
      "inputs": [
        {
          "indexed": false,
          "internalType": "uint256",
          "name": "patientId",
          "type": "uint256"
        },
        {
          "indexed": false,
          "internalType": "string",
          "name": "ipfsHash",
          "type": "string"
        }
      ],
      "name": "HealthRecordAdded",
      "type": "event"
    },
    {
      "anonymous": false,
      "inputs": [
        {
          "indexed": false,
          "internalType": "uint256",
          "name": "hospitalId",
          "type": "uint256"
        },
        {
          "indexed": false,
          "internalType": "string",
          "name": "name",
          "type": "string"
        },
        {
          "indexed": false,
          "internalType": "string",
          "name": "h_type",
          "type": "string"
        },
        {
          "indexed": false,
          "internalType": "string",
          "name": "hospitalAddress",
          "type": "string"
        },
        {
          "indexed": false,
          "internalType": "string",
          "name": "state",
          "type": "string"
        },
        {
          "indexed": false,
          "internalType": "string",
          "name": "district",
          "type": "string"
        },
        {
          "indexed": false,
          "internalType": "string",
          "name": "link",
          "type": "string"
        },
        {
          "indexed": false,
          "internalType": "address",
          "name": "hospitalWallet",
          "type": "address"
        }
      ],
      "name": "HospitalRegistered",
      "type": "event"
    },
    {
      "anonymous": false,
      "inputs": [
        {
          "indexed": false,
          "internalType": "uint256",
          "name": "_tokenId",
          "type": "uint256"
        }
      ],
      "name": "MetadataUpdate",
      "type": "event"
    },
    {
      "anonymous": false,
      "inputs": [
        {
          "indexed": true,
          "internalType": "address",
          "name": "previousOwner",
          "type": "address"
        },
        {
          "indexed": true,
          "internalType": "address",
          "name": "newOwner",
          "type": "address"
        }
      ],
      "name": "OwnershipTransferred",
      "type": "event"
    },
    {
      "anonymous": false,
      "inputs": [
        {
          "indexed": false,
          "internalType": "uint256",
          "name": "patientId",
          "type": "uint256"
        },
        {
          "indexed": false,
          "internalType": "string",
          "name": "name",
          "type": "string"
        },
        {
          "indexed": false,
          "internalType": "uint256",
          "name": "age",
          "type": "uint256"
        },
        {
          "indexed": false,
          "internalType": "string",
          "name": "dob",
          "type": "string"
        },
        {
          "indexed": false,
          "internalType": "string",
          "name": "gender",
          "type": "string"
        },
        {
          "indexed": false,
          "internalType": "string",
          "name": "contactNumber",
          "type": "string"
        },
        {
          "indexed": false,
          "internalType": "string",
          "name": "email",
          "type": "string"
        },
        {
          "indexed": false,
          "internalType": "address",
          "name": "patientWallet",
          "type": "address"
        }
      ],
      "name": "PatientRegistered",
      "type": "event"
    },
    {
      "anonymous": false,
      "inputs": [
        {
          "indexed": true,
          "internalType": "address",
          "name": "from",
          "type": "address"
        },
        {
          "indexed": true,
          "internalType": "address",
          "name": "to",
          "type": "address"
        },
        {
          "indexed": true,
          "internalType": "uint256",
          "name": "tokenId",
          "type": "uint256"
        }
      ],
      "name": "Transfer",
      "type": "event"
    },
    {
      "inputs": [
        {
          "internalType": "uint256",
          "name": "_patientId",
          "type": "uint256"
        },
        {
          "internalType": "address",
          "name": "_viewer",
          "type": "address"
        }
      ],
      "name": "addAuthorizedViewer",
      "outputs": [],
      "stateMutability": "nonpayable",
      "type": "function"
    },
    {
      "inputs": [
        {
          "internalType": "uint256",
          "name": "_patientId",
          "type": "uint256"
        },
        {
          "internalType": "string",
          "name": "_ipfsHash",
          "type": "string"
        }
      ],
      "name": "addHealthRecord",
      "outputs": [],
      "stateMutability": "nonpayable",
      "type": "function"
    },
    {
      "inputs": [
        {
          "internalType": "address",
          "name": "to",
          "type": "address"
        },
        {
          "internalType": "uint256",
          "name": "tokenId",
          "type": "uint256"
        }
      ],
      "name": "approve",
      "outputs": [],
      "stateMutability": "nonpayable",
      "type": "function"
    },
    {
      "inputs": [
        {
          "internalType": "address",
          "name": "owner",
          "type": "address"
        }
      ],
      "name": "balanceOf",
      "outputs": [
        {
          "internalType": "uint256",
          "name": "",
          "type": "uint256"
        }
      ],
      "stateMutability": "view",
      "type": "function"
    },
    {
      "inputs": [],
      "name": "checkPatientRegistration",
      "outputs": [
        {
          "internalType": "bool",
          "name": "",
          "type": "bool"
        }
      ],
      "stateMutability": "view",
      "type": "function"
    },
    {
      "inputs": [
        {
          "internalType": "uint256",
          "name": "_patientId",
          "type": "uint256"
        },
        {
          "internalType": "string",
          "name": "_height",
          "type": "string"
        },
        {
          "internalType": "string",
          "name": "_weight",
          "type": "string"
        },
        {
          "internalType": "string",
          "name": "_bloodPressure",
          "type": "string"
        }
      ],
      "name": "createHealthRecord",
      "outputs": [],
      "stateMutability": "nonpayable",
      "type": "function"
    },
    {
      "inputs": [],
      "name": "getAllHospitals",
      "outputs": [
        {
          "internalType": "uint256[]",
          "name": "",
          "type": "uint256[]"
        }
      ],
      "stateMutability": "view",
      "type": "function"
    },
    {
      "inputs": [
        {
          "internalType": "uint256",
          "name": "tokenId",
          "type": "uint256"
        }
      ],
      "name": "getApproved",
      "outputs": [
        {
          "internalType": "address",
          "name": "",
          "type": "address"
        }
      ],
      "stateMutability": "view",
      "type": "function"
    },
    {
      "inputs": [
        {
          "internalType": "uint256",
          "name": "_patientId",
          "type": "uint256"
        }
      ],
      "name": "getHealthRecordIpfsHashes",
      "outputs": [
        {
          "internalType": "string[]",
          "name": "",
          "type": "string[]"
        }
      ],
      "stateMutability": "view",
      "type": "function"
    },
    {
      "inputs": [
        {
          "internalType": "uint256",
          "name": "_patientId",
          "type": "uint256"
        }
      ],
      "name": "getHealthRecords",
      "outputs": [
        {
          "internalType": "string[]",
          "name": "",
          "type": "string[]"
        }
      ],
      "stateMutability": "view",
      "type": "function"
    },
    {
      "inputs": [
        {
          "internalType": "uint256",
          "name": "_hospitalId",
          "type": "uint256"
        }
      ],
      "name": "getHospitalDetails",
      "outputs": [
        {
          "internalType": "string",
          "name": "name",
          "type": "string"
        },
        {
          "internalType": "string",
          "name": "h_type",
          "type": "string"
        },
        {
          "internalType": "string",
          "name": "hospitalAddress",
          "type": "string"
        },
        {
          "internalType": "string",
          "name": "state",
          "type": "string"
        },
        {
          "internalType": "string",
          "name": "district",
          "type": "string"
        },
        {
          "internalType": "string",
          "name": "link",
          "type": "string"
        }
      ],
      "stateMutability": "view",
      "type": "function"
    },
    {
      "inputs": [],
      "name": "getHospitalDetailsByAddress",
      "outputs": [
        {
          "internalType": "string",
          "name": "name",
          "type": "string"
        },
        {
          "internalType": "string",
          "name": "h_type",
          "type": "string"
        },
        {
          "internalType": "string",
          "name": "hospitalAddress",
          "type": "string"
        }
      ],
      "stateMutability": "view",
      "type": "function"
    },
    {
      "inputs": [],
      "name": "getHospitalIdByAddress",
      "outputs": [
        {
          "internalType": "uint256",
          "name": "",
          "type": "uint256"
        }
      ],
      "stateMutability": "view",
      "type": "function"
    },
    {
      "inputs": [
        {
          "internalType": "uint256",
          "name": "_patientId",
          "type": "uint256"
        }
      ],
      "name": "getPatientDetails",
      "outputs": [
        {
          "internalType": "string",
          "name": "name",
          "type": "string"
        },
        {
          "internalType": "uint256",
          "name": "age",
          "type": "uint256"
        },
        {
          "internalType": "string",
          "name": "dob",
          "type": "string"
        },
        {
          "internalType": "string",
          "name": "gender",
          "type": "string"
        },
        {
          "internalType": "string",
          "name": "contactNumber",
          "type": "string"
        },
        {
          "internalType": "string",
          "name": "email",
          "type": "string"
        },
        {
          "internalType": "string",
          "name": "medicalHistory",
          "type": "string"
        },
        {
          "internalType": "string",
          "name": "height",
          "type": "string"
        },
        {
          "internalType": "string",
          "name": "weight",
          "type": "string"
        },
        {
          "internalType": "string",
          "name": "bloodPressure",
          "type": "string"
        }
      ],
      "stateMutability": "view",
      "type": "function"
    },
    {
      "inputs": [],
      "name": "getPatientDetailsByAddress",
      "outputs": [
        {
          "internalType": "string",
          "name": "name",
          "type": "string"
        },
        {
          "internalType": "uint256",
          "name": "age",
          "type": "uint256"
        },
        {
          "internalType": "string",
          "name": "dob",
          "type": "string"
        },
        {
          "internalType": "string",
          "name": "gender",
          "type": "string"
        },
        {
          "internalType": "string",
          "name": "contactNumber",
          "type": "string"
        },
        {
          "internalType": "string",
          "name": "email",
          "type": "string"
        },
        {
          "internalType": "string",
          "name": "medicalHistory",
          "type": "string"
        },
        {
          "internalType": "string",
          "name": "height",
          "type": "string"
        },
        {
          "internalType": "string",
          "name": "weight",
          "type": "string"
        },
        {
          "internalType": "string",
          "name": "bloodPressure",
          "type": "string"
        }
      ],
      "stateMutability": "view",
      "type": "function"
    },
    {
      "inputs": [],
      "name": "getPatientIdByAddress",
      "outputs": [
        {
          "internalType": "uint256",
          "name": "",
          "type": "uint256"
        }
      ],
      "stateMutability": "view",
      "type": "function"
    },
    {
      "inputs": [
        {
          "internalType": "address",
          "name": "owner",
          "type": "address"
        },
        {
          "internalType": "address",
          "name": "operator",
          "type": "address"
        }
      ],
      "name": "isApprovedForAll",
      "outputs": [
        {
          "internalType": "bool",
          "name": "",
          "type": "bool"
        }
      ],
      "stateMutability": "view",
      "type": "function"
    },
    {
      "inputs": [
        {
          "internalType": "uint256",
          "name": "_patientId",
          "type": "uint256"
        },
        {
          "internalType": "address",
          "name": "_viewer",
          "type": "address"
        }
      ],
      "name": "isAuthorizedViewer",
      "outputs": [
        {
          "internalType": "bool",
          "name": "",
          "type": "bool"
        }
      ],
      "stateMutability": "view",
      "type": "function"
    },
    {
      "inputs": [],
      "name": "name",
      "outputs": [
        {
          "internalType": "string",
          "name": "",
          "type": "string"
        }
      ],
      "stateMutability": "view",
      "type": "function"
    },
    {
      "inputs": [],
      "name": "owner",
      "outputs": [
        {
          "internalType": "address",
          "name": "",
          "type": "address"
        }
      ],
      "stateMutability": "view",
      "type": "function"
    },
    {
      "inputs": [
        {
          "internalType": "uint256",
          "name": "tokenId",
          "type": "uint256"
        }
      ],
      "name": "ownerOf",
      "outputs": [
        {
          "internalType": "address",
          "name": "",
          "type": "address"
        }
      ],
      "stateMutability": "view",
      "type": "function"
    },
    {
      "inputs": [
        {
          "internalType": "string",
          "name": "_name",
          "type": "string"
        },
        {
          "internalType": "string",
          "name": "_h_type",
          "type": "string"
        },
        {
          "internalType": "string",
          "name": "_address",
          "type": "string"
        },
        {
          "internalType": "string",
          "name": "_state",
          "type": "string"
        },
        {
          "internalType": "string",
          "name": "_district",
          "type": "string"
        },
        {
          "internalType": "string",
          "name": "_link",
          "type": "string"
        }
      ],
      "name": "registerHospital",
      "outputs": [],
      "stateMutability": "nonpayable",
      "type": "function"
    },
    {
      "inputs": [
        {
          "internalType": "string",
          "name": "_name",
          "type": "string"
        },
        {
          "internalType": "uint256",
          "name": "_age",
          "type": "uint256"
        },
        {
          "internalType": "string",
          "name": "_dob",
          "type": "string"
        },
        {
          "internalType": "string",
          "name": "_gender",
          "type": "string"
        },
        {
          "internalType": "string",
          "name": "_contactNumber",
          "type": "string"
        },
        {
          "internalType": "string",
          "name": "_email",
          "type": "string"
        },
        {
          "internalType": "string",
          "name": "_medicalHistory",
          "type": "string"
        }
      ],
      "name": "registerPatient",
      "outputs": [
        {
          "internalType": "uint256",
          "name": "",
          "type": "uint256"
        }
      ],
      "stateMutability": "nonpayable",
      "type": "function"
    },
    {
      "inputs": [
        {
          "internalType": "uint256",
          "name": "_patientId",
          "type": "uint256"
        },
        {
          "internalType": "address",
          "name": "_viewer",
          "type": "address"
        }
      ],
      "name": "removeAuthorizedViewer",
      "outputs": [],
      "stateMutability": "nonpayable",
      "type": "function"
    },
    {
      "inputs": [],
      "name": "renounceOwnership",
      "outputs": [],
      "stateMutability": "nonpayable",
      "type": "function"
    },
    {
      "inputs": [
        {
          "internalType": "address",
          "name": "from",
          "type": "address"
        },
        {
          "internalType": "address",
          "name": "to",
          "type": "address"
        },
        {
          "internalType": "uint256",
          "name": "tokenId",
          "type": "uint256"
        }
      ],
      "name": "safeTransferFrom",
      "outputs": [],
      "stateMutability": "nonpayable",
      "type": "function"
    },
    {
      "inputs": [
        {
          "internalType": "address",
          "name": "from",
          "type": "address"
        },
        {
          "internalType": "address",
          "name": "to",
          "type": "address"
        },
        {
          "internalType": "uint256",
          "name": "tokenId",
          "type": "uint256"
        },
        {
          "internalType": "bytes",
          "name": "data",
          "type": "bytes"
        }
      ],
      "name": "safeTransferFrom",
      "outputs": [],
      "stateMutability": "nonpayable",
      "type": "function"
    },
    {
      "inputs": [
        {
          "internalType": "address",
          "name": "operator",
          "type": "address"
        },
        {
          "internalType": "bool",
          "name": "approved",
          "type": "bool"
        }
      ],
      "name": "setApprovalForAll",
      "outputs": [],
      "stateMutability": "nonpayable",
      "type": "function"
    },
    {
      "inputs": [
        {
          "internalType": "bytes4",
          "name": "interfaceId",
          "type": "bytes4"
        }
      ],
      "name": "supportsInterface",
      "outputs": [
        {
          "internalType": "bool",
          "name": "",
          "type": "bool"
        }
      ],
      "stateMutability": "view",
      "type": "function"
    },
    {
      "inputs": [],
      "name": "symbol",
      "outputs": [
        {
          "internalType": "string",
          "name": "",
          "type": "string"
        }
      ],
      "stateMutability": "view",
      "type": "function"
    },
    {
      "inputs": [
        {
          "internalType": "uint256",
          "name": "tokenId",
          "type": "uint256"
        }
      ],
      "name": "tokenURI",
      "outputs": [
        {
          "internalType": "string",
          "name": "",
          "type": "string"
        }
      ],
      "stateMutability": "view",
      "type": "function"
    },
    {
      "inputs": [
        {
          "internalType": "address",
          "name": "from",
          "type": "address"
        },
        {
          "internalType": "address",
          "name": "to",
          "type": "address"
        },
        {
          "internalType": "uint256",
          "name": "tokenId",
          "type": "uint256"
        }
      ],
      "name": "transferFrom",
      "outputs": [],
      "stateMutability": "nonpayable",
      "type": "function"
    },
    {
      "inputs": [
        {
          "internalType": "address",
          "name": "newOwner",
          "type": "address"
        }
      ],
      "name": "transferOwnership",
      "outputs": [],
      "stateMutability": "nonpayable",
      "type": "function"
    },
    {
      "inputs": [
        {
          "internalType": "uint256",
          "name": "_patientId",
          "type": "uint256"
        },
        {
          "internalType": "string",
          "name": "_newMedicalHistory",
          "type": "string"
        }
      ],
      "name": "updateMedicalHistory",
      "outputs": [],
      "stateMutability": "nonpayable",
      "type": "function"
    }
  ],
  "bytecode": "0x60806040523480156200001157600080fd5b506040518060400160405280600d81526020016c1219585b1d1a18d85c99539195609a1b815250604051806040016040528060038152602001622421a760e91b815250816000908162000065919062000192565b50600162000074828262000192565b505050620000916200008b6200009760201b60201c565b6200009b565b6200025e565b3390565b600780546001600160a01b038381166001600160a01b0319831681179093556040519116919082907f8be0079c531659141344cd1fd0a4f28419497f9722a3daafe3b4186f6b6457e090600090a35050565b634e487b7160e01b600052604160045260246000fd5b600181811c908216806200011857607f821691505b6020821081036200013957634e487b7160e01b600052602260045260246000fd5b50919050565b601f8211156200018d57600081815260208120601f850160051c81016020861015620001685750805b601f850160051c820191505b81811015620001895782815560010162000174565b5050505b505050565b81516001600160401b03811115620001ae57620001ae620000ed565b620001c681620001bf845462000103565b846200013f565b602080601f831160018114620001fe5760008415620001e55750858301515b600019600386901b1c1916600185901b17855562000189565b600085815260208120601f198616915b828110156200022f578886015182559484019460019091019084016200020e565b50858210156200024e5787850151600019600388901b60f8161c191681555b5050505050600190811b01905550565b613cad806200026e6000396000f3fe608060405234801561001057600080fd5b50600436106102065760003560e01c8063715018a61161011a578063a98cd9e7116100ad578063e0f496f81161007c578063e0f496f814610468578063e985e9c51461047b578063ef1017c3146104b7578063f2fde38b146104ca578063feb8cef3146104dd57600080fd5b8063a98cd9e71461041c578063b88d4fde1461042f578063c87b56dd14610442578063d95a19a51461045557600080fd5b806395d89b41116100e957806395d89b41146103f15780639a837c97146103f9578063a22cb46514610401578063a4705d641461041457600080fd5b8063715018a6146103b957806389149296146103c15780638c1f28f3146103c95780638da5cb5b146103e057600080fd5b806342842e0e1161019d5780636352211e1161016c5780636352211e14610357578063652d7ded1461036a578063675ec7511461037d5780636ccda1b51461039e57806370a08231146103a657600080fd5b806342842e0e146102ea5780634b0a7573146102fd5780634e9f7154146103225780635deb444b1461033757600080fd5b806323b872dd116101d957806323b872dd14610288578063300c601c1461029b5780633343696c146102c4578063389aec7f146102d757600080fd5b806301ffc9a71461020b57806306fdde0314610233578063081812fc14610248578063095ea7b314610273575b600080fd5b61021e61021936600461304e565b6104f0565b60405190151581526020015b60405180910390f35b61023b61051b565b60405161022a91906130bb565b61025b6102563660046130ce565b6105ad565b6040516001600160a01b03909116815260200161022a565b610286610281366004613103565b6105d4565b005b61028661029636600461312d565b6106ee565b6102ae6102a93660046130ce565b61071f565b60405161022a9a99989796959493929190613169565b6102866102d23660046132e2565b610cf4565b6102866102e5366004613329565b610d52565b6102866102f836600461312d565b610e39565b61031061030b3660046130ce565b610e54565b60405161022a9695949392919061341e565b61032a6111ea565b60405161022a91906134a0565b61034a6103453660046130ce565b611287565b60405161022a91906134e4565b61025b6103653660046130ce565b6113f4565b61021e610378366004613546565b611454565b61039061038b366004613572565b6114d1565b60405190815260200161022a565b6102ae611681565b6103906103b4366004613672565b611c27565b610286611cad565b61021e611cc1565b6103d1611cd5565b60405161022a9392919061368d565b6007546001600160a01b031661025b565b61023b611ef7565b610390611f06565b61028661040f3660046136d0565b611f16565b610390611f25565b61028661042a3660046132e2565b611f30565b61028661043d36600461370c565b611fd9565b61023b6104503660046130ce565b612011565b61034a6104633660046130ce565b612121565b610286610476366004613546565b612248565b61021e610489366004613788565b6001600160a01b03918216600090815260056020908152604080832093909416825291909152205460ff1690565b6102866104c53660046137b2565b61243e565b6102866104d8366004613672565b6124bc565b6102866104eb366004613546565b612535565b60006001600160e01b03198216632483248360e11b1480610515575061051582612637565b92915050565b60606000805461052a90613838565b80601f016020809104026020016040519081016040528092919081815260200182805461055690613838565b80156105a35780601f10610578576101008083540402835291602001916105a3565b820191906000526020600020905b81548152906001019060200180831161058657829003601f168201915b5050505050905090565b60006105b882612687565b506000908152600460205260409020546001600160a01b031690565b60006105df826113f4565b9050806001600160a01b0316836001600160a01b0316036106515760405162461bcd60e51b815260206004820152602160248201527f4552433732313a20617070726f76616c20746f2063757272656e74206f776e656044820152603960f91b60648201526084015b60405180910390fd5b336001600160a01b038216148061066d575061066d8133610489565b6106df5760405162461bcd60e51b815260206004820152603d60248201527f4552433732313a20617070726f76652063616c6c6572206973206e6f7420746f60448201527f6b656e206f776e6572206f7220617070726f76656420666f7220616c6c0000006064820152608401610648565b6106e983836126e6565b505050565b6106f83382612754565b6107145760405162461bcd60e51b81526004016106489061386c565b6106e98383836127d2565b6000818152600a6020526040812060078101546060929183918291829182918291829182918291906001600160a01b031633148061076257506107628c33611454565b6107bd5760405162461bcd60e51b815260206004820152602660248201527f4e6f7420617574686f72697a656420746f20766965772070617469656e742064604482015265657461696c7360d01b6064820152608401610648565b80600001816001015482600201836003018460040185600501866006018760090188600a0189600b018980546107f290613838565b80601f016020809104026020016040519081016040528092919081815260200182805461081e90613838565b801561086b5780601f106108405761010080835404028352916020019161086b565b820191906000526020600020905b81548152906001019060200180831161084e57829003601f168201915b5050505050995087805461087e90613838565b80601f01602080910402602001604051908101604052809291908181526020018280546108aa90613838565b80156108f75780601f106108cc576101008083540402835291602001916108f7565b820191906000526020600020905b8154815290600101906020018083116108da57829003601f168201915b5050505050975086805461090a90613838565b80601f016020809104026020016040519081016040528092919081815260200182805461093690613838565b80156109835780601f1061095857610100808354040283529160200191610983565b820191906000526020600020905b81548152906001019060200180831161096657829003601f168201915b5050505050965085805461099690613838565b80601f01602080910402602001604051908101604052809291908181526020018280546109c290613838565b8015610a0f5780601f106109e457610100808354040283529160200191610a0f565b820191906000526020600020905b8154815290600101906020018083116109f257829003601f168201915b50505050509550848054610a2290613838565b80601f0160208091040260200160405190810160405280929190818152602001828054610a4e90613838565b8015610a9b5780601f10610a7057610100808354040283529160200191610a9b565b820191906000526020600020905b815481529060010190602001808311610a7e57829003601f168201915b50505050509450838054610aae90613838565b80601f0160208091040260200160405190810160405280929190818152602001828054610ada90613838565b8015610b275780601f10610afc57610100808354040283529160200191610b27565b820191906000526020600020905b815481529060010190602001808311610b0a57829003601f168201915b50505050509350828054610b3a90613838565b80601f0160208091040260200160405190810160405280929190818152602001828054610b6690613838565b8015610bb35780601f10610b8857610100808354040283529160200191610bb3565b820191906000526020600020905b815481529060010190602001808311610b9657829003601f168201915b50505050509250818054610bc690613838565b80601f0160208091040260200160405190810160405280929190818152602001828054610bf290613838565b8015610c3f5780601f10610c1457610100808354040283529160200191610c3f565b820191906000526020600020905b815481529060010190602001808311610c2257829003601f168201915b50505050509150808054610c5290613838565b80601f0160208091040260200160405190810160405280929190818152602001828054610c7e90613838565b8015610ccb5780601f10610ca057610100808354040283529160200191610ccb565b820191906000526020600020905b815481529060010190602001808311610cae57829003601f168201915b505050505090509a509a509a509a509a509a509a509a509a509a50509193959799509193959799565b6000828152600a602052604090206007015482906001600160a01b03163314610d2f5760405162461bcd60e51b8152600401610648906138b9565b6000838152600a6020526040902060068101610d4b848261394a565b5050505050565b610d60600980546001019055565b6000610d6b60095490565b6000818152600b6020526040902090915080610d87898261394a565b5060018101610d96888261394a565b5060028101610da5878261394a565b5060038101610db4868261394a565b5060048101610dc3858261394a565b5060058101610dd2848261394a565b506006810180546001600160a01b031916339081179091556040517f54477a198cd7bd702e1bd40898d7605acfe83e3d6c753840135f61088802ab1b91610e279185918c918c918c918c918c918c9190613a0a565b60405180910390a15050505050505050565b6106e983838360405180602001604052806000815250611fd9565b6060806060806060806000600b60008981526020019081526020016000209050806000018160010182600201836003018460040185600501858054610e9890613838565b80601f0160208091040260200160405190810160405280929190818152602001828054610ec490613838565b8015610f115780601f10610ee657610100808354040283529160200191610f11565b820191906000526020600020905b815481529060010190602001808311610ef457829003601f168201915b50505050509550848054610f2490613838565b80601f0160208091040260200160405190810160405280929190818152602001828054610f5090613838565b8015610f9d5780601f10610f7257610100808354040283529160200191610f9d565b820191906000526020600020905b815481529060010190602001808311610f8057829003601f168201915b50505050509450838054610fb090613838565b80601f0160208091040260200160405190810160405280929190818152602001828054610fdc90613838565b80156110295780601f10610ffe57610100808354040283529160200191611029565b820191906000526020600020905b81548152906001019060200180831161100c57829003601f168201915b5050505050935082805461103c90613838565b80601f016020809104026020016040519081016040528092919081815260200182805461106890613838565b80156110b55780601f1061108a576101008083540402835291602001916110b5565b820191906000526020600020905b81548152906001019060200180831161109857829003601f168201915b505050505092508180546110c890613838565b80601f01602080910402602001604051908101604052809291908181526020018280546110f490613838565b80156111415780601f1061111657610100808354040283529160200191611141565b820191906000526020600020905b81548152906001019060200180831161112457829003601f168201915b5050505050915080805461115490613838565b80601f016020809104026020016040519081016040528092919081815260200182805461118090613838565b80156111cd5780601f106111a2576101008083540402835291602001916111cd565b820191906000526020600020905b8154815290600101906020018083116111b057829003601f168201915b505050505090509650965096509650965096505091939550919395565b606060006111f760095490565b67ffffffffffffffff81111561120f5761120f613236565b604051908082528060200260200182016040528015611238578160200160208202803683370190505b50905060015b6009548111611281578082611254600183613abc565b8151811061126457611264613acf565b60209081029190910101528061127981613ae5565b91505061123e565b50919050565b6000818152600a60205260409020600701546060906001600160a01b03163314806112b757506112b78233611454565b6113115760405162461bcd60e51b815260206004820152602560248201527f4e6f7420617574686f72697a656420746f2076696577206865616c7468207265604482015264636f72647360d81b6064820152608401610648565b6000828152600a60209081526040808320600c0180548251818502810185019093528083529193909284015b828210156113e957838290600052602060002001805461135c90613838565b80601f016020809104026020016040519081016040528092919081815260200182805461138890613838565b80156113d55780601f106113aa576101008083540402835291602001916113d5565b820191906000526020600020905b8154815290600101906020018083116113b857829003601f168201915b50505050508152602001906001019061133d565b505050509050919050565b6000818152600260205260408120546001600160a01b0316806105155760405162461bcd60e51b8152602060048201526018602482015277115490cdcc8c4e881a5b9d985b1a59081d1bdad95b88125160421b6044820152606401610648565b6000828152600a60205260408120815b60088201548110156114c657836001600160a01b031682600801828154811061148f5761148f613acf565b6000918252602090912001546001600160a01b0316036114b457600192505050610515565b806114be81613ae5565b915050611464565b506000949350505050565b6000808851116115235760405162461bcd60e51b815260206004820152601c60248201527f50617469656e74206e616d652063616e6e6f7420626520656d707479000000006044820152606401610648565b61152c33612936565b156115795760405162461bcd60e51b815260206004820152601d60248201527f50617469656e7420697320616c726561647920726567697374657265640000006044820152606401610648565b611587600880546001019055565b600061159260085490565b905061159e3382612989565b6000818152600a60205260409020806115b78b8261394a565b5060018101899055600281016115cd898261394a565b50600381016115dc888261394a565b50600481016115eb878261394a565b50600581016115fa868261394a565b5060068101611609858261394a565b506007810180546001600160a01b031916339081179091556040517fd97b83316548098fb626d0b4c8bcd18e016277a4f778ec3540d1efa8f469516a9161165e9185918e918e918e918e918e918e9190613afe565b60405180910390a1611674600880546001019055565b5098975050505050505050565b60606000606080606080606080606080600061169c33612936565b6000818152600a602052604081209192508290036116f05760405162461bcd60e51b815260206004820152601160248201527014185d1a595b9d081b9bdd08199bdd5b99607a1b6044820152606401610648565b80600001816001015482600201836003018460040185600501866006018760090188600a0189600b0189805461172590613838565b80601f016020809104026020016040519081016040528092919081815260200182805461175190613838565b801561179e5780601f106117735761010080835404028352916020019161179e565b820191906000526020600020905b81548152906001019060200180831161178157829003601f168201915b505050505099508780546117b190613838565b80601f01602080910402602001604051908101604052809291908181526020018280546117dd90613838565b801561182a5780601f106117ff5761010080835404028352916020019161182a565b820191906000526020600020905b81548152906001019060200180831161180d57829003601f168201915b5050505050975086805461183d90613838565b80601f016020809104026020016040519081016040528092919081815260200182805461186990613838565b80156118b65780601f1061188b576101008083540402835291602001916118b6565b820191906000526020600020905b81548152906001019060200180831161189957829003601f168201915b505050505096508580546118c990613838565b80601f01602080910402602001604051908101604052809291908181526020018280546118f590613838565b80156119425780601f1061191757610100808354040283529160200191611942565b820191906000526020600020905b81548152906001019060200180831161192557829003601f168201915b5050505050955084805461195590613838565b80601f016020809104026020016040519081016040528092919081815260200182805461198190613838565b80156119ce5780601f106119a3576101008083540402835291602001916119ce565b820191906000526020600020905b8154815290600101906020018083116119b157829003601f168201915b505050505094508380546119e190613838565b80601f0160208091040260200160405190810160405280929190818152602001828054611a0d90613838565b8015611a5a5780601f10611a2f57610100808354040283529160200191611a5a565b820191906000526020600020905b815481529060010190602001808311611a3d57829003601f168201915b50505050509350828054611a6d90613838565b80601f0160208091040260200160405190810160405280929190818152602001828054611a9990613838565b8015611ae65780601f10611abb57610100808354040283529160200191611ae6565b820191906000526020600020905b815481529060010190602001808311611ac957829003601f168201915b50505050509250818054611af990613838565b80601f0160208091040260200160405190810160405280929190818152602001828054611b2590613838565b8015611b725780601f10611b4757610100808354040283529160200191611b72565b820191906000526020600020905b815481529060010190602001808311611b5557829003601f168201915b50505050509150808054611b8590613838565b80601f0160208091040260200160405190810160405280929190818152602001828054611bb190613838565b8015611bfe5780601f10611bd357610100808354040283529160200191611bfe565b820191906000526020600020905b815481529060010190602001808311611be157829003601f168201915b505050505090509b509b509b509b509b509b509b509b509b509b50505090919293949596979899565b60006001600160a01b038216611c915760405162461bcd60e51b815260206004820152602960248201527f4552433732313a2061646472657373207a65726f206973206e6f7420612076616044820152683634b21037bbb732b960b91b6064820152608401610648565b506001600160a01b031660009081526003602052604090205490565b611cb56129a3565b611cbf60006129fd565b565b600080611ccd33612936565b151592915050565b60608060606000611ce533612a4f565b6000818152600b60205260408120919250829003611d3a5760405162461bcd60e51b8152602060048201526012602482015271121bdcdc1a5d185b081b9bdd08199bdd5b9960721b6044820152606401610648565b806000018160010182600201828054611d5290613838565b80601f0160208091040260200160405190810160405280929190818152602001828054611d7e90613838565b8015611dcb5780601f10611da057610100808354040283529160200191611dcb565b820191906000526020600020905b815481529060010190602001808311611dae57829003601f168201915b50505050509250818054611dde90613838565b80601f0160208091040260200160405190810160405280929190818152602001828054611e0a90613838565b8015611e575780601f10611e2c57610100808354040283529160200191611e57565b820191906000526020600020905b815481529060010190602001808311611e3a57829003601f168201915b50505050509150808054611e6a90613838565b80601f0160208091040260200160405190810160405280929190818152602001828054611e9690613838565b8015611ee35780601f10611eb857610100808354040283529160200191611ee3565b820191906000526020600020905b815481529060010190602001808311611ec657829003601f168201915b505050505090509450945094505050909192565b60606001805461052a90613838565b6000611f1133612936565b905090565b611f21338383612a99565b5050565b6000611f1133612a4f565b6000828152600a602052604090206007015482906001600160a01b03163314611f6b5760405162461bcd60e51b8152600401610648906138b9565b6000838152600a602090815260408220600c810180546001810182559084529190922001611f99848261394a565b507f7753ae1630faa78a291b1cd31bc43c1fcbba106a1666394a44fadaab2a1dc0fe8484604051611fcb929190613b32565b60405180910390a150505050565b611fe33383612754565b611fff5760405162461bcd60e51b81526004016106489061386c565b61200b84848484612b67565b50505050565b606061201c82612687565b6000828152600660205260408120805461203590613838565b80601f016020809104026020016040519081016040528092919081815260200182805461206190613838565b80156120ae5780601f10612083576101008083540402835291602001916120ae565b820191906000526020600020905b81548152906001019060200180831161209157829003601f168201915b5050505050905060006120cc60408051602081019091526000815290565b905080516000036120de575092915050565b8151156121105780826040516020016120f8929190613b4b565b60405160208183030381529060405292505050919050565b61211984612b9a565b949350505050565b6000818152600a602052604090206007015460609082906001600160a01b0316331461215f5760405162461bcd60e51b8152600401610648906138b9565b6000838152600a60209081526040808320600c810180548351818602810186019094528084529194929390929084015b8282101561223b5783829060005260206000200180546121ae90613838565b80601f01602080910402602001604051908101604052809291908181526020018280546121da90613838565b80156122275780601f106121fc57610100808354040283529160200191612227565b820191906000526020600020905b81548152906001019060200180831161220a57829003601f168201915b50505050508152602001906001019061218f565b5050505092505050919050565b6000828152600a602052604090206007015482906001600160a01b031633146122835760405162461bcd60e51b8152600401610648906138b9565b6000838152600a602052604090206001600160a01b0383166122e05760405162461bcd60e51b8152602060048201526016602482015275496e76616c696420766965776572206164647265737360501b6044820152606401610648565b60005b6008820154811015610d4b57836001600160a01b031682600801828154811061230e5761230e613acf565b6000918252602090912001546001600160a01b03160361242c5760088201805461233a90600190613abc565b8154811061234a5761234a613acf565b6000918252602090912001546008830180546001600160a01b03909216918390811061237857612378613acf565b9060005260206000200160006101000a8154816001600160a01b0302191690836001600160a01b03160217905550816008018054806123b9576123b9613b7a565b600082815260209020810160001990810180546001600160a01b03191690550190556040517f5dbe2203a32c28f0202307d2aaf701d7927539cf61569040ae884fffb37e09829061241f90879087909182526001600160a01b0316602082015260400190565b60405180910390a1610d4b565b8061243681613ae5565b9150506122e3565b6000848152600a602052604090206007015484906001600160a01b031633146124795760405162461bcd60e51b8152600401610648906138b9565b6000858152600a6020526040902060098101612495868261394a565b50600a81016124a4858261394a565b50600b81016124b3848261394a565b50505050505050565b6124c46129a3565b6001600160a01b0381166125295760405162461bcd60e51b815260206004820152602660248201527f4f776e61626c653a206e6577206f776e657220697320746865207a65726f206160448201526564647265737360d01b6064820152608401610648565b612532816129fd565b50565b6000828152600a602052604090206007015482906001600160a01b031633146125705760405162461bcd60e51b8152600401610648906138b9565b6000838152600a602052604090206001600160a01b0383166125cd5760405162461bcd60e51b8152602060048201526016602482015275496e76616c696420766965776572206164647265737360501b6044820152606401610648565b60088101805460018101825560009182526020918290200180546001600160a01b0319166001600160a01b03861690811790915560408051878152928301919091527ff16e9a03b0c54bb809a906ea44c85061c5b52ccbf9d5b6fe883ab548d5e31d8a9101611fcb565b60006001600160e01b031982166380ac58cd60e01b148061266857506001600160e01b03198216635b5e139f60e01b145b8061051557506301ffc9a760e01b6001600160e01b0319831614610515565b6000818152600260205260409020546001600160a01b03166125325760405162461bcd60e51b8152602060048201526018602482015277115490cdcc8c4e881a5b9d985b1a59081d1bdad95b88125160421b6044820152606401610648565b600081815260046020526040902080546001600160a01b0319166001600160a01b038416908117909155819061271b826113f4565b6001600160a01b03167f8c5be1e5ebec7d5bd14f71427d1e84f3dd0314c0f7b2291e5b200ac8c7c3b92560405160405180910390a45050565b600080612760836113f4565b9050806001600160a01b0316846001600160a01b031614806127a757506001600160a01b0380821660009081526005602090815260408083209388168352929052205460ff165b806121195750836001600160a01b03166127c0846105ad565b6001600160a01b031614949350505050565b826001600160a01b03166127e5826113f4565b6001600160a01b03161461280b5760405162461bcd60e51b815260040161064890613b90565b6001600160a01b03821661286d5760405162461bcd60e51b8152602060048201526024808201527f4552433732313a207472616e7366657220746f20746865207a65726f206164646044820152637265737360e01b6064820152608401610648565b826001600160a01b0316612880826113f4565b6001600160a01b0316146128a65760405162461bcd60e51b815260040161064890613b90565b600081815260046020908152604080832080546001600160a01b03199081169091556001600160a01b0387811680865260038552838620805460001901905590871680865283862080546001019055868652600290945282852080549092168417909155905184937fddf252ad1be2c89b69c2b068fc378daa952ba7f163c4a11628f55a4df523b3ef91a4505050565b600060015b6008548111612980576000818152600a60205260409020600701546001600160a01b0380851691160361296e5792915050565b8061297881613ae5565b91505061293b565b50600092915050565b611f21828260405180602001604052806000815250612c0e565b6007546001600160a01b03163314611cbf5760405162461bcd60e51b815260206004820181905260248201527f4f776e61626c653a2063616c6c6572206973206e6f7420746865206f776e65726044820152606401610648565b600780546001600160a01b038381166001600160a01b0319831681179093556040519116919082907f8be0079c531659141344cd1fd0a4f28419497f9722a3daafe3b4186f6b6457e090600090a35050565b600060015b6009548111612980576000818152600b60205260409020600601546001600160a01b03808516911603612a875792915050565b80612a9181613ae5565b915050612a54565b816001600160a01b0316836001600160a01b031603612afa5760405162461bcd60e51b815260206004820152601960248201527f4552433732313a20617070726f766520746f2063616c6c6572000000000000006044820152606401610648565b6001600160a01b03838116600081815260056020908152604080832094871680845294825291829020805460ff191686151590811790915591519182527f17307eab39ab6107e8899845ad3d59bd9653f200f220920489ca2b5937696c31910160405180910390a3505050565b612b728484846127d2565b612b7e84848484612c41565b61200b5760405162461bcd60e51b815260040161064890613bd5565b6060612ba582612687565b6000612bbc60408051602081019091526000815290565b90506000815111612bdc5760405180602001604052806000815250612c07565b80612be684612d42565b604051602001612bf7929190613b4b565b6040516020818303038152906040525b9392505050565b612c188383612dd5565b612c256000848484612c41565b6106e95760405162461bcd60e51b815260040161064890613bd5565b60006001600160a01b0384163b15612d3757604051630a85bd0160e11b81526001600160a01b0385169063150b7a0290612c85903390899088908890600401613c27565b6020604051808303816000875af1925050508015612cc0575060408051601f3d908101601f19168201909252612cbd91810190613c5a565b60015b612d1d573d808015612cee576040519150601f19603f3d011682016040523d82523d6000602084013e612cf3565b606091505b508051600003612d155760405162461bcd60e51b815260040161064890613bd5565b805181602001fd5b6001600160e01b031916630a85bd0160e11b149050612119565b506001949350505050565b60606000612d4f83612f60565b600101905060008167ffffffffffffffff811115612d6f57612d6f613236565b6040519080825280601f01601f191660200182016040528015612d99576020820181803683370190505b5090508181016020015b600019016f181899199a1a9b1b9c1cb0b131b232b360811b600a86061a8153600a8504945084612da357509392505050565b6001600160a01b038216612e2b5760405162461bcd60e51b815260206004820181905260248201527f4552433732313a206d696e7420746f20746865207a65726f20616464726573736044820152606401610648565b6000818152600260205260409020546001600160a01b031615612e905760405162461bcd60e51b815260206004820152601c60248201527f4552433732313a20746f6b656e20616c7265616479206d696e746564000000006044820152606401610648565b6000818152600260205260409020546001600160a01b031615612ef55760405162461bcd60e51b815260206004820152601c60248201527f4552433732313a20746f6b656e20616c7265616479206d696e746564000000006044820152606401610648565b6001600160a01b038216600081815260036020908152604080832080546001019055848352600290915280822080546001600160a01b0319168417905551839291907fddf252ad1be2c89b69c2b068fc378daa952ba7f163c4a11628f55a4df523b3ef908290a45050565b60008072184f03e93ff9f4daa797ed6e38ed64bf6a1f0160401b8310612f9f5772184f03e93ff9f4daa797ed6e38ed64bf6a1f0160401b830492506040015b6d04ee2d6d415b85acef81000000008310612fcb576d04ee2d6d415b85acef8100000000830492506020015b662386f26fc100008310612fe957662386f26fc10000830492506010015b6305f5e1008310613001576305f5e100830492506008015b612710831061301557612710830492506004015b60648310613027576064830492506002015b600a83106105155760010192915050565b6001600160e01b03198116811461253257600080fd5b60006020828403121561306057600080fd5b8135612c0781613038565b60005b8381101561308657818101518382015260200161306e565b50506000910152565b600081518084526130a781602086016020860161306b565b601f01601f19169290920160200192915050565b602081526000612c07602083018461308f565b6000602082840312156130e057600080fd5b5035919050565b80356001600160a01b03811681146130fe57600080fd5b919050565b6000806040838503121561311657600080fd5b61311f836130e7565b946020939093013593505050565b60008060006060848603121561314257600080fd5b61314b846130e7565b9250613159602085016130e7565b9150604084013590509250925092565b600061014080835261317d8184018e61308f565b90508b60208401528281036040840152613197818c61308f565b905082810360608401526131ab818b61308f565b905082810360808401526131bf818a61308f565b905082810360a08401526131d3818961308f565b905082810360c08401526131e7818861308f565b905082810360e08401526131fb818761308f565b9050828103610100840152613210818661308f565b9050828103610120840152613225818561308f565b9d9c50505050505050505050505050565b634e487b7160e01b600052604160045260246000fd5b600067ffffffffffffffff8084111561326757613267613236565b604051601f8501601f19908116603f0116810190828211818310171561328f5761328f613236565b816040528093508581528686860111156132a857600080fd5b858560208301376000602087830101525050509392505050565b600082601f8301126132d357600080fd5b612c078383356020850161324c565b600080604083850312156132f557600080fd5b82359150602083013567ffffffffffffffff81111561331357600080fd5b61331f858286016132c2565b9150509250929050565b60008060008060008060c0878903121561334257600080fd5b863567ffffffffffffffff8082111561335a57600080fd5b6133668a838b016132c2565b9750602089013591508082111561337c57600080fd5b6133888a838b016132c2565b9650604089013591508082111561339e57600080fd5b6133aa8a838b016132c2565b955060608901359150808211156133c057600080fd5b6133cc8a838b016132c2565b945060808901359150808211156133e257600080fd5b6133ee8a838b016132c2565b935060a089013591508082111561340457600080fd5b5061341189828a016132c2565b9150509295509295509295565b60c08152600061343160c083018961308f565b8281036020840152613443818961308f565b90508281036040840152613457818861308f565b9050828103606084015261346b818761308f565b9050828103608084015261347f818661308f565b905082810360a0840152613493818561308f565b9998505050505050505050565b6020808252825182820181905260009190848201906040850190845b818110156134d8578351835292840192918401916001016134bc565b50909695505050505050565b6000602080830181845280855180835260408601915060408160051b870101925083870160005b8281101561353957603f1988860301845261352785835161308f565b9450928501929085019060010161350b565b5092979650505050505050565b6000806040838503121561355957600080fd5b82359150613569602084016130e7565b90509250929050565b600080600080600080600060e0888a03121561358d57600080fd5b873567ffffffffffffffff808211156135a557600080fd5b6135b18b838c016132c2565b985060208a0135975060408a01359150808211156135ce57600080fd5b6135da8b838c016132c2565b965060608a01359150808211156135f057600080fd5b6135fc8b838c016132c2565b955060808a013591508082111561361257600080fd5b61361e8b838c016132c2565b945060a08a013591508082111561363457600080fd5b6136408b838c016132c2565b935060c08a013591508082111561365657600080fd5b506136638a828b016132c2565b91505092959891949750929550565b60006020828403121561368457600080fd5b612c07826130e7565b6060815260006136a0606083018661308f565b82810360208401526136b2818661308f565b905082810360408401526136c6818561308f565b9695505050505050565b600080604083850312156136e357600080fd5b6136ec836130e7565b91506020830135801515811461370157600080fd5b809150509250929050565b6000806000806080858703121561372257600080fd5b61372b856130e7565b9350613739602086016130e7565b925060408501359150606085013567ffffffffffffffff81111561375c57600080fd5b8501601f8101871361376d57600080fd5b61377c8782356020840161324c565b91505092959194509250565b6000806040838503121561379b57600080fd5b6137a4836130e7565b9150613569602084016130e7565b600080600080608085870312156137c857600080fd5b84359350602085013567ffffffffffffffff808211156137e757600080fd5b6137f3888389016132c2565b9450604087013591508082111561380957600080fd5b613815888389016132c2565b9350606087013591508082111561382b57600080fd5b5061377c878288016132c2565b600181811c9082168061384c57607f821691505b60208210810361128157634e487b7160e01b600052602260045260246000fd5b6020808252602d908201527f4552433732313a2063616c6c6572206973206e6f7420746f6b656e206f776e6560408201526c1c881bdc88185c1c1c9bdd9959609a1b606082015260800190565b60208082526023908201527f4e6f7420746865206f776e6572206f66207468652070617469656e74207265636040820152621bdc9960ea1b606082015260800190565b601f8211156106e957600081815260208120601f850160051c810160208610156139235750805b601f850160051c820191505b818110156139425782815560010161392f565b505050505050565b815167ffffffffffffffff81111561396457613964613236565b613978816139728454613838565b846138fc565b602080601f8311600181146139ad57600084156139955750858301515b600019600386901b1c1916600185901b178555613942565b600085815260208120601f198616915b828110156139dc578886015182559484019460019091019084016139bd565b50858210156139fa5787850151600019600388901b60f8161c191681555b5050505050600190811b01905550565b60006101008a8352806020840152613a248184018b61308f565b90508281036040840152613a38818a61308f565b90508281036060840152613a4c818961308f565b90508281036080840152613a60818861308f565b905082810360a0840152613a74818761308f565b905082810360c0840152613a88818661308f565b91505060018060a01b03831660e08301529998505050505050505050565b634e487b7160e01b600052601160045260246000fd5b8181038181111561051557610515613aa6565b634e487b7160e01b600052603260045260246000fd5b600060018201613af757613af7613aa6565b5060010190565b60006101008a8352806020840152613b188184018b61308f565b90508860408401528281036060840152613a4c818961308f565b828152604060208201526000612119604083018461308f565b60008351613b5d81846020880161306b565b835190830190613b7181836020880161306b565b01949350505050565b634e487b7160e01b600052603160045260246000fd5b60208082526025908201527f4552433732313a207472616e736665722066726f6d20696e636f72726563742060408201526437bbb732b960d91b606082015260800190565b60208082526032908201527f4552433732313a207472616e7366657220746f206e6f6e20455243373231526560408201527131b2b4bb32b91034b6b83632b6b2b73a32b960711b606082015260800190565b6001600160a01b03858116825284166020820152604081018390526080606082018190526000906136c69083018461308f565b600060208284031215613c6c57600080fd5b8151612c078161303856fea26469706673582212201e514f745e9ba12a85d065930ca97f26f56e6621fe9c3ee231e29a48f4c25eae64736f6c63430008110033",
  "linkReferences": {},
  "deployedLinkReferences": {}
}