{
  "_format": "hh-sol-artifact-1",
  "contractName": "MyNFT",
  "sourceName": "contracts/MyNFT.sol",
  "abi": [
    {
      "inputs": [],
      "stateMutability": "nonpayable",
      "type": "constructor"
    },
    {
      "anonymous": false,
      "inputs": [
        {
          "indexed": true,
          "internalType": "address",
          "name": "owner",
          "type": "address"
        },
        {
          "indexed": true,
          "internalType": "address",
          "name": "approved",
          "type": "address"
        },
        {
          "indexed": true,
          "internalType": "uint256",
          "name": "tokenId",
          "type": "uint256"
        }
      ],
      "name": "Approval",
      "type": "event"
    },
    {
      "anonymous": false,
      "inputs": [
        {
          "indexed": true,
          "internalType": "address",
          "name": "owner",
          "type": "address"
        },
        {
          "indexed": true,
          "internalType": "address",
          "name": "operator",
          "type": "address"
        },
        {
          "indexed": false,
          "internalType": "bool",
          "name": "approved",
          "type": "bool"
        }
      ],
      "name": "ApprovalForAll",
      "type": "event"
    },
    {
      "anonymous": false,
      "inputs": [
        {
          "indexed": false,
          "internalType": "uint256",
          "name": "patientId",
          "type": "uint256"
        },
        {
          "indexed": false,
          "internalType": "address",
          "name": "viewer",
          "type": "address"
        }
      ],
      "name": "AuthorizedViewerAdded",
      "type": "event"
    },
    {
      "anonymous": false,
      "inputs": [
        {
          "indexed": false,
          "internalType": "uint256",
          "name": "patientId",
          "type": "uint256"
        },
        {
          "indexed": false,
          "internalType": "address",
          "name": "viewer",
          "type": "address"
        }
      ],
      "name": "AuthorizedViewerRemoved",
      "type": "event"
    },
    {
      "anonymous": false,
      "inputs": [
        {
          "indexed": false,
          "internalType": "uint256",
          "name": "_fromTokenId",
          "type": "uint256"
        },
        {
          "indexed": false,
          "internalType": "uint256",
          "name": "_toTokenId",
          "type": "uint256"
        }
      ],
      "name": "BatchMetadataUpdate",
      "type": "event"
    },
    {
      "anonymous": false,
      "inputs": [
        {
          "indexed": false,
          "internalType": "uint256",
          "name": "patientId",
          "type": "uint256"
        },
        {
          "indexed": false,
          "internalType": "string",
          "name": "ipfsHash",
          "type": "string"
        }
      ],
      "name": "HealthRecordAdded",
      "type": "event"
    },
    {
      "anonymous": false,
      "inputs": [
        {
          "indexed": false,
          "internalType": "uint256",
          "name": "_tokenId",
          "type": "uint256"
        }
      ],
      "name": "MetadataUpdate",
      "type": "event"
    },
    {
      "anonymous": false,
      "inputs": [
        {
          "indexed": true,
          "internalType": "address",
          "name": "previousOwner",
          "type": "address"
        },
        {
          "indexed": true,
          "internalType": "address",
          "name": "newOwner",
          "type": "address"
        }
      ],
      "name": "OwnershipTransferred",
      "type": "event"
    },
    {
      "anonymous": false,
      "inputs": [
        {
          "indexed": false,
          "internalType": "uint256",
          "name": "patientId",
          "type": "uint256"
        },
        {
          "indexed": false,
          "internalType": "string",
          "name": "name",
          "type": "string"
        },
        {
          "indexed": false,
          "internalType": "uint256",
          "name": "age",
          "type": "uint256"
        },
        {
          "indexed": false,
          "internalType": "string",
          "name": "dob",
          "type": "string"
        },
        {
          "indexed": false,
          "internalType": "string",
          "name": "gender",
          "type": "string"
        },
        {
          "indexed": false,
          "internalType": "string",
          "name": "contactNumber",
          "type": "string"
        },
        {
          "indexed": false,
          "internalType": "string",
          "name": "email",
          "type": "string"
        },
        {
          "indexed": false,
          "internalType": "address",
          "name": "patientWallet",
          "type": "address"
        }
      ],
      "name": "PatientRegistered",
      "type": "event"
    },
    {
      "anonymous": false,
      "inputs": [
        {
          "indexed": true,
          "internalType": "address",
          "name": "from",
          "type": "address"
        },
        {
          "indexed": true,
          "internalType": "address",
          "name": "to",
          "type": "address"
        },
        {
          "indexed": true,
          "internalType": "uint256",
          "name": "tokenId",
          "type": "uint256"
        }
      ],
      "name": "Transfer",
      "type": "event"
    },
    {
      "inputs": [
        {
          "internalType": "uint256",
          "name": "_patientId",
          "type": "uint256"
        },
        {
          "internalType": "address",
          "name": "_viewer",
          "type": "address"
        }
      ],
      "name": "addAuthorizedViewer",
      "outputs": [],
      "stateMutability": "nonpayable",
      "type": "function"
    },
    {
      "inputs": [
        {
          "internalType": "uint256",
          "name": "_patientId",
          "type": "uint256"
        },
        {
          "internalType": "string",
          "name": "_ipfsHash",
          "type": "string"
        }
      ],
      "name": "addHealthRecord",
      "outputs": [],
      "stateMutability": "nonpayable",
      "type": "function"
    },
    {
      "inputs": [
        {
          "internalType": "address",
          "name": "to",
          "type": "address"
        },
        {
          "internalType": "uint256",
          "name": "tokenId",
          "type": "uint256"
        }
      ],
      "name": "approve",
      "outputs": [],
      "stateMutability": "nonpayable",
      "type": "function"
    },
    {
      "inputs": [
        {
          "internalType": "address",
          "name": "owner",
          "type": "address"
        }
      ],
      "name": "balanceOf",
      "outputs": [
        {
          "internalType": "uint256",
          "name": "",
          "type": "uint256"
        }
      ],
      "stateMutability": "view",
      "type": "function"
    },
    {
      "inputs": [],
      "name": "checkPatientRegistration",
      "outputs": [
        {
          "internalType": "bool",
          "name": "",
          "type": "bool"
        }
      ],
      "stateMutability": "view",
      "type": "function"
    },
    {
      "inputs": [
        {
          "internalType": "uint256",
          "name": "_patientId",
          "type": "uint256"
        },
        {
          "internalType": "string",
          "name": "_height",
          "type": "string"
        },
        {
          "internalType": "string",
          "name": "_weight",
          "type": "string"
        },
        {
          "internalType": "string",
          "name": "_bloodPressure",
          "type": "string"
        }
      ],
      "name": "createHealthRecord",
      "outputs": [],
      "stateMutability": "nonpayable",
      "type": "function"
    },
    {
      "inputs": [
        {
          "internalType": "uint256",
          "name": "tokenId",
          "type": "uint256"
        }
      ],
      "name": "getApproved",
      "outputs": [
        {
          "internalType": "address",
          "name": "",
          "type": "address"
        }
      ],
      "stateMutability": "view",
      "type": "function"
    },
    {
      "inputs": [
        {
          "internalType": "uint256",
          "name": "_patientId",
          "type": "uint256"
        }
      ],
      "name": "getHealthRecords",
      "outputs": [
        {
          "internalType": "string[]",
          "name": "",
          "type": "string[]"
        }
      ],
      "stateMutability": "view",
      "type": "function"
    },
    {
      "inputs": [
        {
          "internalType": "uint256",
          "name": "_patientId",
          "type": "uint256"
        }
      ],
      "name": "getPatientDetails",
      "outputs": [
        {
          "internalType": "string",
          "name": "name",
          "type": "string"
        },
        {
          "internalType": "uint256",
          "name": "age",
          "type": "uint256"
        },
        {
          "internalType": "string",
          "name": "dob",
          "type": "string"
        },
        {
          "internalType": "string",
          "name": "gender",
          "type": "string"
        },
        {
          "internalType": "string",
          "name": "contactNumber",
          "type": "string"
        },
        {
          "internalType": "string",
          "name": "email",
          "type": "string"
        },
        {
          "internalType": "string",
          "name": "medicalHistory",
          "type": "string"
        },
        {
          "internalType": "string",
          "name": "height",
          "type": "string"
        },
        {
          "internalType": "string",
          "name": "weight",
          "type": "string"
        },
        {
          "internalType": "string",
          "name": "bloodPressure",
          "type": "string"
        }
      ],
      "stateMutability": "view",
      "type": "function"
    },
    {
      "inputs": [],
      "name": "getPatientDetailsByAddress",
      "outputs": [
        {
          "internalType": "string",
          "name": "name",
          "type": "string"
        },
        {
          "internalType": "uint256",
          "name": "age",
          "type": "uint256"
        },
        {
          "internalType": "string",
          "name": "dob",
          "type": "string"
        },
        {
          "internalType": "string",
          "name": "gender",
          "type": "string"
        },
        {
          "internalType": "string",
          "name": "contactNumber",
          "type": "string"
        },
        {
          "internalType": "string",
          "name": "email",
          "type": "string"
        },
        {
          "internalType": "string",
          "name": "medicalHistory",
          "type": "string"
        },
        {
          "internalType": "string",
          "name": "height",
          "type": "string"
        },
        {
          "internalType": "string",
          "name": "weight",
          "type": "string"
        },
        {
          "internalType": "string",
          "name": "bloodPressure",
          "type": "string"
        }
      ],
      "stateMutability": "view",
      "type": "function"
    },
    {
      "inputs": [
        {
          "internalType": "address",
          "name": "owner",
          "type": "address"
        },
        {
          "internalType": "address",
          "name": "operator",
          "type": "address"
        }
      ],
      "name": "isApprovedForAll",
      "outputs": [
        {
          "internalType": "bool",
          "name": "",
          "type": "bool"
        }
      ],
      "stateMutability": "view",
      "type": "function"
    },
    {
      "inputs": [
        {
          "internalType": "uint256",
          "name": "_patientId",
          "type": "uint256"
        },
        {
          "internalType": "address",
          "name": "_viewer",
          "type": "address"
        }
      ],
      "name": "isAuthorizedViewer",
      "outputs": [
        {
          "internalType": "bool",
          "name": "",
          "type": "bool"
        }
      ],
      "stateMutability": "view",
      "type": "function"
    },
    {
      "inputs": [],
      "name": "name",
      "outputs": [
        {
          "internalType": "string",
          "name": "",
          "type": "string"
        }
      ],
      "stateMutability": "view",
      "type": "function"
    },
    {
      "inputs": [],
      "name": "owner",
      "outputs": [
        {
          "internalType": "address",
          "name": "",
          "type": "address"
        }
      ],
      "stateMutability": "view",
      "type": "function"
    },
    {
      "inputs": [
        {
          "internalType": "uint256",
          "name": "tokenId",
          "type": "uint256"
        }
      ],
      "name": "ownerOf",
      "outputs": [
        {
          "internalType": "address",
          "name": "",
          "type": "address"
        }
      ],
      "stateMutability": "view",
      "type": "function"
    },
    {
      "inputs": [
        {
          "internalType": "string",
          "name": "_name",
          "type": "string"
        },
        {
          "internalType": "uint256",
          "name": "_age",
          "type": "uint256"
        },
        {
          "internalType": "string",
          "name": "_dob",
          "type": "string"
        },
        {
          "internalType": "string",
          "name": "_gender",
          "type": "string"
        },
        {
          "internalType": "string",
          "name": "_contactNumber",
          "type": "string"
        },
        {
          "internalType": "string",
          "name": "_email",
          "type": "string"
        },
        {
          "internalType": "string",
          "name": "_medicalHistory",
          "type": "string"
        }
      ],
      "name": "registerPatient",
      "outputs": [
        {
          "internalType": "uint256",
          "name": "",
          "type": "uint256"
        }
      ],
      "stateMutability": "nonpayable",
      "type": "function"
    },
    {
      "inputs": [
        {
          "internalType": "uint256",
          "name": "_patientId",
          "type": "uint256"
        },
        {
          "internalType": "address",
          "name": "_viewer",
          "type": "address"
        }
      ],
      "name": "removeAuthorizedViewer",
      "outputs": [],
      "stateMutability": "nonpayable",
      "type": "function"
    },
    {
      "inputs": [],
      "name": "renounceOwnership",
      "outputs": [],
      "stateMutability": "nonpayable",
      "type": "function"
    },
    {
      "inputs": [
        {
          "internalType": "address",
          "name": "from",
          "type": "address"
        },
        {
          "internalType": "address",
          "name": "to",
          "type": "address"
        },
        {
          "internalType": "uint256",
          "name": "tokenId",
          "type": "uint256"
        }
      ],
      "name": "safeTransferFrom",
      "outputs": [],
      "stateMutability": "nonpayable",
      "type": "function"
    },
    {
      "inputs": [
        {
          "internalType": "address",
          "name": "from",
          "type": "address"
        },
        {
          "internalType": "address",
          "name": "to",
          "type": "address"
        },
        {
          "internalType": "uint256",
          "name": "tokenId",
          "type": "uint256"
        },
        {
          "internalType": "bytes",
          "name": "data",
          "type": "bytes"
        }
      ],
      "name": "safeTransferFrom",
      "outputs": [],
      "stateMutability": "nonpayable",
      "type": "function"
    },
    {
      "inputs": [
        {
          "internalType": "address",
          "name": "operator",
          "type": "address"
        },
        {
          "internalType": "bool",
          "name": "approved",
          "type": "bool"
        }
      ],
      "name": "setApprovalForAll",
      "outputs": [],
      "stateMutability": "nonpayable",
      "type": "function"
    },
    {
      "inputs": [
        {
          "internalType": "bytes4",
          "name": "interfaceId",
          "type": "bytes4"
        }
      ],
      "name": "supportsInterface",
      "outputs": [
        {
          "internalType": "bool",
          "name": "",
          "type": "bool"
        }
      ],
      "stateMutability": "view",
      "type": "function"
    },
    {
      "inputs": [],
      "name": "symbol",
      "outputs": [
        {
          "internalType": "string",
          "name": "",
          "type": "string"
        }
      ],
      "stateMutability": "view",
      "type": "function"
    },
    {
      "inputs": [
        {
          "internalType": "uint256",
          "name": "tokenId",
          "type": "uint256"
        }
      ],
      "name": "tokenURI",
      "outputs": [
        {
          "internalType": "string",
          "name": "",
          "type": "string"
        }
      ],
      "stateMutability": "view",
      "type": "function"
    },
    {
      "inputs": [
        {
          "internalType": "address",
          "name": "from",
          "type": "address"
        },
        {
          "internalType": "address",
          "name": "to",
          "type": "address"
        },
        {
          "internalType": "uint256",
          "name": "tokenId",
          "type": "uint256"
        }
      ],
      "name": "transferFrom",
      "outputs": [],
      "stateMutability": "nonpayable",
      "type": "function"
    },
    {
      "inputs": [
        {
          "internalType": "address",
          "name": "newOwner",
          "type": "address"
        }
      ],
      "name": "transferOwnership",
      "outputs": [],
      "stateMutability": "nonpayable",
      "type": "function"
    },
    {
      "inputs": [
        {
          "internalType": "uint256",
          "name": "_patientId",
          "type": "uint256"
        },
        {
          "internalType": "string",
          "name": "_height",
          "type": "string"
        },
        {
          "internalType": "string",
          "name": "_weight",
          "type": "string"
        },
        {
          "internalType": "string",
          "name": "_bloodPressure",
          "type": "string"
        }
      ],
      "name": "updateHealthRecord",
      "outputs": [],
      "stateMutability": "nonpayable",
      "type": "function"
    },
    {
      "inputs": [
        {
          "internalType": "uint256",
          "name": "_patientId",
          "type": "uint256"
        },
        {
          "internalType": "string",
          "name": "_newMedicalHistory",
          "type": "string"
        }
      ],
      "name": "updateMedicalHistory",
      "outputs": [],
      "stateMutability": "nonpayable",
      "type": "function"
    }
  ],
  "bytecode": "0x60806040523480156200001157600080fd5b506040518060400160405280600d81526020017f4865616c7468636172654e4654000000000000000000000000000000000000008152506040518060400160405280600381526020017f48434e000000000000000000000000000000000000000000000000000000000081525081600090816200008f919062000412565b508060019081620000a1919062000412565b505050620000c4620000b8620000ca60201b60201c565b620000d260201b60201c565b620004f9565b600033905090565b6000600760009054906101000a900473ffffffffffffffffffffffffffffffffffffffff16905081600760006101000a81548173ffffffffffffffffffffffffffffffffffffffff021916908373ffffffffffffffffffffffffffffffffffffffff1602179055508173ffffffffffffffffffffffffffffffffffffffff168173ffffffffffffffffffffffffffffffffffffffff167f8be0079c531659141344cd1fd0a4f28419497f9722a3daafe3b4186f6b6457e060405160405180910390a35050565b600081519050919050565b7f4e487b7100000000000000000000000000000000000000000000000000000000600052604160045260246000fd5b7f4e487b7100000000000000000000000000000000000000000000000000000000600052602260045260246000fd5b600060028204905060018216806200021a57607f821691505b60208210810362000230576200022f620001d2565b5b50919050565b60008190508160005260206000209050919050565b60006020601f8301049050919050565b600082821b905092915050565b6000600883026200029a7fffffffffffffffffffffffffffffffffffffffffffffffffffffffffffffffff826200025b565b620002a686836200025b565b95508019841693508086168417925050509392505050565b6000819050919050565b6000819050919050565b6000620002f3620002ed620002e784620002be565b620002c8565b620002be565b9050919050565b6000819050919050565b6200030f83620002d2565b620003276200031e82620002fa565b84845462000268565b825550505050565b600090565b6200033e6200032f565b6200034b81848462000304565b505050565b5b8181101562000373576200036760008262000334565b60018101905062000351565b5050565b601f821115620003c2576200038c8162000236565b62000397846200024b565b81016020851015620003a7578190505b620003bf620003b6856200024b565b83018262000350565b50505b505050565b600082821c905092915050565b6000620003e760001984600802620003c7565b1980831691505092915050565b6000620004028383620003d4565b9150826002028217905092915050565b6200041d8262000198565b67ffffffffffffffff811115620004395762000438620001a3565b5b62000445825462000201565b6200045282828562000377565b600060209050601f8311600181146200048a576000841562000475578287015190505b620004818582620003f4565b865550620004f1565b601f1984166200049a8662000236565b60005b82811015620004c4578489015182556001820191506020850194506020810190506200049d565b86831015620004e45784890151620004e0601f891682620003d4565b8355505b6001600288020188555050505b505050505050565b6150d880620005096000396000f3fe608060405234801561001057600080fd5b50600436106101c45760003560e01c8063715018a6116100f9578063c87b56dd11610097578063e985e9c511610071578063e985e9c514610527578063ef1017c314610557578063f2fde38b14610573578063feb8cef31461058f576101c4565b8063c87b56dd146104ab578063d95a19a5146104db578063e0f496f81461050b576101c4565b806395d89b41116100d357806395d89b4114610439578063a22cb46514610457578063a98cd9e714610473578063b88d4fde1461048f576101c4565b8063715018a6146103f357806389149296146103fd5780638da5cb5b1461041b576101c4565b80633343696c11610166578063652d7ded11610140578063652d7ded1461033c578063675ec7511461036c5780636ccda1b51461039c57806370a08231146103c3576101c4565b80633343696c146102d457806342842e0e146102f05780636352211e1461030c576101c4565b8063095ea7b3116101a2578063095ea7b31461024757806323b872dd1461026357806324d413c51461027f578063300c601c1461029b576101c4565b806301ffc9a7146101c957806306fdde03146101f9578063081812fc14610217575b600080fd5b6101e360048036038101906101de9190613636565b6105ab565b6040516101f0919061367e565b60405180910390f35b61020161060c565b60405161020e9190613729565b60405180910390f35b610231600480360381019061022c9190613781565b61069e565b60405161023e91906137ef565b60405180910390f35b610261600480360381019061025c9190613836565b6106e4565b005b61027d60048036038101906102789190613876565b6107fb565b005b610299600480360381019061029491906139fe565b61085b565b005b6102b560048036038101906102b09190613781565b610927565b6040516102cb9a99989796959493929190613ac8565b60405180910390f35b6102ee60048036038101906102e99190613ba3565b610f0c565b005b61030a60048036038101906103059190613876565b610fb2565b005b61032660048036038101906103219190613781565b610fd2565b60405161033391906137ef565b60405180910390f35b61035660048036038101906103519190613bff565b611058565b604051610363919061367e565b60405180910390f35b61038660048036038101906103819190613c3f565b611120565b6040516103939190613d89565b60405180910390f35b6103a4611300565b6040516103ba9a99989796959493929190613ac8565b60405180910390f35b6103dd60048036038101906103d89190613da4565b6118ae565b6040516103ea9190613d89565b60405180910390f35b6103fb611965565b005b610405611979565b604051610412919061367e565b60405180910390f35b610423611992565b60405161043091906137ef565b60405180910390f35b6104416119bc565b60405161044e9190613729565b60405180910390f35b610471600480360381019061046c9190613dfd565b611a4e565b005b61048d60048036038101906104889190613ba3565b611a64565b005b6104a960048036038101906104a49190613ede565b611b68565b005b6104c560048036038101906104c09190613781565b611bca565b6040516104d29190613729565b60405180910390f35b6104f560048036038101906104f09190613781565b611cdc565b604051610502919061406d565b60405180910390f35b61052560048036038101906105209190613bff565b611e49565b005b610541600480360381019061053c919061408f565b61211e565b60405161054e919061367e565b60405180910390f35b610571600480360381019061056c91906139fe565b6121b2565b005b61058d60048036038101906105889190613da4565b61227e565b005b6105a960048036038101906105a49190613bff565b612301565b005b6000634906490660e01b7bffffffffffffffffffffffffffffffffffffffffffffffffffffffff1916827bffffffffffffffffffffffffffffffffffffffffffffffffffffffff191614806106055750610604826124a2565b5b9050919050565b60606000805461061b906140fe565b80601f0160208091040260200160405190810160405280929190818152602001828054610647906140fe565b80156106945780601f1061066957610100808354040283529160200191610694565b820191906000526020600020905b81548152906001019060200180831161067757829003601f168201915b5050505050905090565b60006106a982612584565b6004600083815260200190815260200160002060009054906101000a900473ffffffffffffffffffffffffffffffffffffffff169050919050565b60006106ef82610fd2565b90508073ffffffffffffffffffffffffffffffffffffffff168373ffffffffffffffffffffffffffffffffffffffff160361075f576040517f08c379a0000000000000000000000000000000000000000000000000000000008152600401610756906141a1565b60405180910390fd5b8073ffffffffffffffffffffffffffffffffffffffff1661077e6125cf565b73ffffffffffffffffffffffffffffffffffffffff1614806107ad57506107ac816107a76125cf565b61211e565b5b6107ec576040517f08c379a00000000000000000000000000000000000000000000000000000000081526004016107e390614233565b60405180910390fd5b6107f683836125d7565b505050565b61080c6108066125cf565b82612690565b61084b576040517f08c379a0000000000000000000000000000000000000000000000000000000008152600401610842906142c5565b60405180910390fd5b610856838383612725565b505050565b833373ffffffffffffffffffffffffffffffffffffffff1661087c82610fd2565b73ffffffffffffffffffffffffffffffffffffffff16146108d2576040517f08c379a00000000000000000000000000000000000000000000000000000000081526004016108c990614357565b60405180910390fd5b6000600960008781526020019081526020016000209050848160090190816108fa9190614523565b508381600a01908161090c9190614523565b508281600b01908161091e9190614523565b50505050505050565b606060006060806060806060806060806000600960008d815260200190815260200160002090506109578c610fd2565b73ffffffffffffffffffffffffffffffffffffffff163373ffffffffffffffffffffffffffffffffffffffff16148061099657506109958c33611058565b5b6109d5576040517f08c379a00000000000000000000000000000000000000000000000000000000081526004016109cc90614667565b60405180910390fd5b80600001816001015482600201836003018460040185600501866006018760090188600a0189600b01898054610a0a906140fe565b80601f0160208091040260200160405190810160405280929190818152602001828054610a36906140fe565b8015610a835780601f10610a5857610100808354040283529160200191610a83565b820191906000526020600020905b815481529060010190602001808311610a6657829003601f168201915b50505050509950878054610a96906140fe565b80601f0160208091040260200160405190810160405280929190818152602001828054610ac2906140fe565b8015610b0f5780601f10610ae457610100808354040283529160200191610b0f565b820191906000526020600020905b815481529060010190602001808311610af257829003601f168201915b50505050509750868054610b22906140fe565b80601f0160208091040260200160405190810160405280929190818152602001828054610b4e906140fe565b8015610b9b5780601f10610b7057610100808354040283529160200191610b9b565b820191906000526020600020905b815481529060010190602001808311610b7e57829003601f168201915b50505050509650858054610bae906140fe565b80601f0160208091040260200160405190810160405280929190818152602001828054610bda906140fe565b8015610c275780601f10610bfc57610100808354040283529160200191610c27565b820191906000526020600020905b815481529060010190602001808311610c0a57829003601f168201915b50505050509550848054610c3a906140fe565b80601f0160208091040260200160405190810160405280929190818152602001828054610c66906140fe565b8015610cb35780601f10610c8857610100808354040283529160200191610cb3565b820191906000526020600020905b815481529060010190602001808311610c9657829003601f168201915b50505050509450838054610cc6906140fe565b80601f0160208091040260200160405190810160405280929190818152602001828054610cf2906140fe565b8015610d3f5780601f10610d1457610100808354040283529160200191610d3f565b820191906000526020600020905b815481529060010190602001808311610d2257829003601f168201915b50505050509350828054610d52906140fe565b80601f0160208091040260200160405190810160405280929190818152602001828054610d7e906140fe565b8015610dcb5780601f10610da057610100808354040283529160200191610dcb565b820191906000526020600020905b815481529060010190602001808311610dae57829003601f168201915b50505050509250818054610dde906140fe565b80601f0160208091040260200160405190810160405280929190818152602001828054610e0a906140fe565b8015610e575780601f10610e2c57610100808354040283529160200191610e57565b820191906000526020600020905b815481529060010190602001808311610e3a57829003601f168201915b50505050509150808054610e6a906140fe565b80601f0160208091040260200160405190810160405280929190818152602001828054610e96906140fe565b8015610ee35780601f10610eb857610100808354040283529160200191610ee3565b820191906000526020600020905b815481529060010190602001808311610ec657829003601f168201915b505050505090509a509a509a509a509a509a509a509a509a509a50509193959799509193959799565b813373ffffffffffffffffffffffffffffffffffffffff16610f2d82610fd2565b73ffffffffffffffffffffffffffffffffffffffff1614610f83576040517f08c379a0000000000000000000000000000000000000000000000000000000008152600401610f7a90614357565b60405180910390fd5b600060096000858152602001908152602001600020905082816006019081610fab9190614523565b5050505050565b610fcd83838360405180602001604052806000815250611b68565b505050565b600080610fde83612a1e565b9050600073ffffffffffffffffffffffffffffffffffffffff168173ffffffffffffffffffffffffffffffffffffffff160361104f576040517f08c379a0000000000000000000000000000000000000000000000000000000008152600401611046906146d3565b60405180910390fd5b80915050919050565b60008060096000858152602001908152602001600020905060005b8160080180549050811015611113578373ffffffffffffffffffffffffffffffffffffffff168260080182815481106110af576110ae6146f3565b5b9060005260206000200160009054906101000a900473ffffffffffffffffffffffffffffffffffffffff1673ffffffffffffffffffffffffffffffffffffffff16036111005760019250505061111a565b808061110b90614751565b915050611073565b5060009150505b92915050565b600080885111611165576040517f08c379a000000000000000000000000000000000000000000000000000000000815260040161115c906147e5565b60405180910390fd5b600061117033612a5b565b146111b0576040517f08c379a00000000000000000000000000000000000000000000000000000000081526004016111a790614851565b60405180910390fd5b6111ba6008612b03565b60006111c66008612b19565b90506111d23382612b27565b6000600960008381526020019081526020016000209050898160000190816111fa9190614523565b50888160010181905550878160020190816112159190614523565b50868160030190816112279190614523565b50858160040190816112399190614523565b508481600501908161124b9190614523565b508381600601908161125d9190614523565b50338160070160006101000a81548173ffffffffffffffffffffffffffffffffffffffff021916908373ffffffffffffffffffffffffffffffffffffffff1602179055507fd97b83316548098fb626d0b4c8bcd18e016277a4f778ec3540d1efa8f469516a828b8b8b8b8b8b336040516112de989796959493929190614871565b60405180910390a16112f06008612b03565b8192505050979650505050505050565b60606000606080606080606080606080600061131b33612a5b565b9050600060096000838152602001908152602001600020905060008203611377576040517f08c379a000000000000000000000000000000000000000000000000000000000815260040161136e9061495e565b60405180910390fd5b80600001816001015482600201836003018460040185600501866006018760090188600a0189600b018980546113ac906140fe565b80601f01602080910402602001604051908101604052809291908181526020018280546113d8906140fe565b80156114255780601f106113fa57610100808354040283529160200191611425565b820191906000526020600020905b81548152906001019060200180831161140857829003601f168201915b50505050509950878054611438906140fe565b80601f0160208091040260200160405190810160405280929190818152602001828054611464906140fe565b80156114b15780601f10611486576101008083540402835291602001916114b1565b820191906000526020600020905b81548152906001019060200180831161149457829003601f168201915b505050505097508680546114c4906140fe565b80601f01602080910402602001604051908101604052809291908181526020018280546114f0906140fe565b801561153d5780601f106115125761010080835404028352916020019161153d565b820191906000526020600020905b81548152906001019060200180831161152057829003601f168201915b50505050509650858054611550906140fe565b80601f016020809104026020016040519081016040528092919081815260200182805461157c906140fe565b80156115c95780601f1061159e576101008083540402835291602001916115c9565b820191906000526020600020905b8154815290600101906020018083116115ac57829003601f168201915b505050505095508480546115dc906140fe565b80601f0160208091040260200160405190810160405280929190818152602001828054611608906140fe565b80156116555780601f1061162a57610100808354040283529160200191611655565b820191906000526020600020905b81548152906001019060200180831161163857829003601f168201915b50505050509450838054611668906140fe565b80601f0160208091040260200160405190810160405280929190818152602001828054611694906140fe565b80156116e15780601f106116b6576101008083540402835291602001916116e1565b820191906000526020600020905b8154815290600101906020018083116116c457829003601f168201915b505050505093508280546116f4906140fe565b80601f0160208091040260200160405190810160405280929190818152602001828054611720906140fe565b801561176d5780601f106117425761010080835404028352916020019161176d565b820191906000526020600020905b81548152906001019060200180831161175057829003601f168201915b50505050509250818054611780906140fe565b80601f01602080910402602001604051908101604052809291908181526020018280546117ac906140fe565b80156117f95780601f106117ce576101008083540402835291602001916117f9565b820191906000526020600020905b8154815290600101906020018083116117dc57829003601f168201915b5050505050915080805461180c906140fe565b80601f0160208091040260200160405190810160405280929190818152602001828054611838906140fe565b80156118855780601f1061185a57610100808354040283529160200191611885565b820191906000526020600020905b81548152906001019060200180831161186857829003601f168201915b505050505090509b509b509b509b509b509b509b509b509b509b50505090919293949596979899565b60008073ffffffffffffffffffffffffffffffffffffffff168273ffffffffffffffffffffffffffffffffffffffff160361191e576040517f08c379a0000000000000000000000000000000000000000000000000000000008152600401611915906149f0565b60405180910390fd5b600360008373ffffffffffffffffffffffffffffffffffffffff1673ffffffffffffffffffffffffffffffffffffffff168152602001908152602001600020549050919050565b61196d612b45565b6119776000612bc3565b565b60008061198533612a5b565b9050600081141591505090565b6000600760009054906101000a900473ffffffffffffffffffffffffffffffffffffffff16905090565b6060600180546119cb906140fe565b80601f01602080910402602001604051908101604052809291908181526020018280546119f7906140fe565b8015611a445780601f10611a1957610100808354040283529160200191611a44565b820191906000526020600020905b815481529060010190602001808311611a2757829003601f168201915b5050505050905090565b611a60611a596125cf565b8383612c89565b5050565b813373ffffffffffffffffffffffffffffffffffffffff16611a8582610fd2565b73ffffffffffffffffffffffffffffffffffffffff1614611adb576040517f08c379a0000000000000000000000000000000000000000000000000000000008152600401611ad290614357565b60405180910390fd5b600060096000858152602001908152602001600020905080600c0183908060018154018082558091505060019003906000526020600020016000909190919091509081611b289190614523565b507f7753ae1630faa78a291b1cd31bc43c1fcbba106a1666394a44fadaab2a1dc0fe8484604051611b5a929190614a10565b60405180910390a150505050565b611b79611b736125cf565b83612690565b611bb8576040517f08c379a0000000000000000000000000000000000000000000000000000000008152600401611baf906142c5565b60405180910390fd5b611bc484848484612df5565b50505050565b6060611bd582612584565b6000600660008481526020019081526020016000208054611bf5906140fe565b80601f0160208091040260200160405190810160405280929190818152602001828054611c21906140fe565b8015611c6e5780601f10611c4357610100808354040283529160200191611c6e565b820191906000526020600020905b815481529060010190602001808311611c5157829003601f168201915b505050505090506000611c7f612e51565b90506000815103611c94578192505050611cd7565b600082511115611cc9578082604051602001611cb1929190614a7c565b60405160208183030381529060405292505050611cd7565b611cd284612e68565b925050505b919050565b6060813373ffffffffffffffffffffffffffffffffffffffff16611cff82610fd2565b73ffffffffffffffffffffffffffffffffffffffff1614611d55576040517f08c379a0000000000000000000000000000000000000000000000000000000008152600401611d4c90614357565b60405180910390fd5b600060096000858152602001908152602001600020905080600c01805480602002602001604051908101604052809291908181526020016000905b82821015611e3c578382906000526020600020018054611daf906140fe565b80601f0160208091040260200160405190810160405280929190818152602001828054611ddb906140fe565b8015611e285780601f10611dfd57610100808354040283529160200191611e28565b820191906000526020600020905b815481529060010190602001808311611e0b57829003601f168201915b505050505081526020019060010190611d90565b5050505092505050919050565b813373ffffffffffffffffffffffffffffffffffffffff16611e6a82610fd2565b73ffffffffffffffffffffffffffffffffffffffff1614611ec0576040517f08c379a0000000000000000000000000000000000000000000000000000000008152600401611eb790614357565b60405180910390fd5b6000600960008581526020019081526020016000209050600073ffffffffffffffffffffffffffffffffffffffff168373ffffffffffffffffffffffffffffffffffffffff1603611f46576040517f08c379a0000000000000000000000000000000000000000000000000000000008152600401611f3d90614aec565b60405180910390fd5b60005b8160080180549050811015612117578373ffffffffffffffffffffffffffffffffffffffff16826008018281548110611f8557611f846146f3565b5b9060005260206000200160009054906101000a900473ffffffffffffffffffffffffffffffffffffffff1673ffffffffffffffffffffffffffffffffffffffff1603612104578160080160018360080180549050611fe39190614b0c565b81548110611ff457611ff36146f3565b5b9060005260206000200160009054906101000a900473ffffffffffffffffffffffffffffffffffffffff16826008018281548110612035576120346146f3565b5b9060005260206000200160006101000a81548173ffffffffffffffffffffffffffffffffffffffff021916908373ffffffffffffffffffffffffffffffffffffffff1602179055508160080180548061209157612090614b40565b5b6001900381819060005260206000200160006101000a81549073ffffffffffffffffffffffffffffffffffffffff021916905590557f5dbe2203a32c28f0202307d2aaf701d7927539cf61569040ae884fffb37e098285856040516120f7929190614b6f565b60405180910390a1612117565b808061210f90614751565b915050611f49565b5050505050565b6000600560008473ffffffffffffffffffffffffffffffffffffffff1673ffffffffffffffffffffffffffffffffffffffff16815260200190815260200160002060008373ffffffffffffffffffffffffffffffffffffffff1673ffffffffffffffffffffffffffffffffffffffff16815260200190815260200160002060009054906101000a900460ff16905092915050565b833373ffffffffffffffffffffffffffffffffffffffff166121d382610fd2565b73ffffffffffffffffffffffffffffffffffffffff1614612229576040517f08c379a000000000000000000000000000000000000000000000000000000000815260040161222090614357565b60405180910390fd5b6000600960008781526020019081526020016000209050848160090190816122519190614523565b508381600a0190816122639190614523565b508281600b0190816122759190614523565b50505050505050565b612286612b45565b600073ffffffffffffffffffffffffffffffffffffffff168173ffffffffffffffffffffffffffffffffffffffff16036122f5576040517f08c379a00000000000000000000000000000000000000000000000000000000081526004016122ec90614c0a565b60405180910390fd5b6122fe81612bc3565b50565b813373ffffffffffffffffffffffffffffffffffffffff1661232282610fd2565b73ffffffffffffffffffffffffffffffffffffffff1614612378576040517f08c379a000000000000000000000000000000000000000000000000000000000815260040161236f90614357565b60405180910390fd5b6000600960008581526020019081526020016000209050600073ffffffffffffffffffffffffffffffffffffffff168373ffffffffffffffffffffffffffffffffffffffff16036123fe576040517f08c379a00000000000000000000000000000000000000000000000000000000081526004016123f590614aec565b60405180910390fd5b80600801839080600181540180825580915050600190039060005260206000200160009091909190916101000a81548173ffffffffffffffffffffffffffffffffffffffff021916908373ffffffffffffffffffffffffffffffffffffffff1602179055507ff16e9a03b0c54bb809a906ea44c85061c5b52ccbf9d5b6fe883ab548d5e31d8a8484604051612494929190614b6f565b60405180910390a150505050565b60007f80ac58cd000000000000000000000000000000000000000000000000000000007bffffffffffffffffffffffffffffffffffffffffffffffffffffffff1916827bffffffffffffffffffffffffffffffffffffffffffffffffffffffff1916148061256d57507f5b5e139f000000000000000000000000000000000000000000000000000000007bffffffffffffffffffffffffffffffffffffffffffffffffffffffff1916827bffffffffffffffffffffffffffffffffffffffffffffffffffffffff1916145b8061257d575061257c82612ed0565b5b9050919050565b61258d81612f3a565b6125cc576040517f08c379a00000000000000000000000000000000000000000000000000000000081526004016125c3906146d3565b60405180910390fd5b50565b600033905090565b816004600083815260200190815260200160002060006101000a81548173ffffffffffffffffffffffffffffffffffffffff021916908373ffffffffffffffffffffffffffffffffffffffff160217905550808273ffffffffffffffffffffffffffffffffffffffff1661264a83610fd2565b73ffffffffffffffffffffffffffffffffffffffff167f8c5be1e5ebec7d5bd14f71427d1e84f3dd0314c0f7b2291e5b200ac8c7c3b92560405160405180910390a45050565b60008061269c83610fd2565b90508073ffffffffffffffffffffffffffffffffffffffff168473ffffffffffffffffffffffffffffffffffffffff1614806126de57506126dd818561211e565b5b8061271c57508373ffffffffffffffffffffffffffffffffffffffff166127048461069e565b73ffffffffffffffffffffffffffffffffffffffff16145b91505092915050565b8273ffffffffffffffffffffffffffffffffffffffff1661274582610fd2565b73ffffffffffffffffffffffffffffffffffffffff161461279b576040517f08c379a000000000000000000000000000000000000000000000000000000000815260040161279290614c9c565b60405180910390fd5b600073ffffffffffffffffffffffffffffffffffffffff168273ffffffffffffffffffffffffffffffffffffffff160361280a576040517f08c379a000000000000000000000000000000000000000000000000000000000815260040161280190614d2e565b60405180910390fd5b6128178383836001612f7b565b8273ffffffffffffffffffffffffffffffffffffffff1661283782610fd2565b73ffffffffffffffffffffffffffffffffffffffff161461288d576040517f08c379a000000000000000000000000000000000000000000000000000000000815260040161288490614c9c565b60405180910390fd5b6004600082815260200190815260200160002060006101000a81549073ffffffffffffffffffffffffffffffffffffffff02191690556001600360008573ffffffffffffffffffffffffffffffffffffffff1673ffffffffffffffffffffffffffffffffffffffff168152602001908152602001600020600082825403925050819055506001600360008473ffffffffffffffffffffffffffffffffffffffff1673ffffffffffffffffffffffffffffffffffffffff16815260200190815260200160002060008282540192505081905550816002600083815260200190815260200160002060006101000a81548173ffffffffffffffffffffffffffffffffffffffff021916908373ffffffffffffffffffffffffffffffffffffffff160217905550808273ffffffffffffffffffffffffffffffffffffffff168473ffffffffffffffffffffffffffffffffffffffff167fddf252ad1be2c89b69c2b068fc378daa952ba7f163c4a11628f55a4df523b3ef60405160405180910390a4612a198383836001612f81565b505050565b60006002600083815260200190815260200160002060009054906101000a900473ffffffffffffffffffffffffffffffffffffffff169050919050565b600080600190505b612a6d6008612b19565b8111612af8578273ffffffffffffffffffffffffffffffffffffffff166009600083815260200190815260200160002060070160009054906101000a900473ffffffffffffffffffffffffffffffffffffffff1673ffffffffffffffffffffffffffffffffffffffff1603612ae55780915050612afe565b8080612af090614751565b915050612a63565b50600090505b919050565b6001816000016000828254019250508190555050565b600081600001549050919050565b612b41828260405180602001604052806000815250612f87565b5050565b612b4d6125cf565b73ffffffffffffffffffffffffffffffffffffffff16612b6b611992565b73ffffffffffffffffffffffffffffffffffffffff1614612bc1576040517f08c379a0000000000000000000000000000000000000000000000000000000008152600401612bb890614d9a565b60405180910390fd5b565b6000600760009054906101000a900473ffffffffffffffffffffffffffffffffffffffff16905081600760006101000a81548173ffffffffffffffffffffffffffffffffffffffff021916908373ffffffffffffffffffffffffffffffffffffffff1602179055508173ffffffffffffffffffffffffffffffffffffffff168173ffffffffffffffffffffffffffffffffffffffff167f8be0079c531659141344cd1fd0a4f28419497f9722a3daafe3b4186f6b6457e060405160405180910390a35050565b8173ffffffffffffffffffffffffffffffffffffffff168373ffffffffffffffffffffffffffffffffffffffff1603612cf7576040517f08c379a0000000000000000000000000000000000000000000000000000000008152600401612cee90614e06565b60405180910390fd5b80600560008573ffffffffffffffffffffffffffffffffffffffff1673ffffffffffffffffffffffffffffffffffffffff16815260200190815260200160002060008473ffffffffffffffffffffffffffffffffffffffff1673ffffffffffffffffffffffffffffffffffffffff16815260200190815260200160002060006101000a81548160ff0219169083151502179055508173ffffffffffffffffffffffffffffffffffffffff168373ffffffffffffffffffffffffffffffffffffffff167f17307eab39ab6107e8899845ad3d59bd9653f200f220920489ca2b5937696c3183604051612de8919061367e565b60405180910390a3505050565b612e00848484612725565b612e0c84848484612fe2565b612e4b576040517f08c379a0000000000000000000000000000000000000000000000000000000008152600401612e4290614e98565b60405180910390fd5b50505050565b606060405180602001604052806000815250905090565b6060612e7382612584565b6000612e7d612e51565b90506000815111612e9d5760405180602001604052806000815250612ec8565b80612ea784613169565b604051602001612eb8929190614a7c565b6040516020818303038152906040525b915050919050565b60007f01ffc9a7000000000000000000000000000000000000000000000000000000007bffffffffffffffffffffffffffffffffffffffffffffffffffffffff1916827bffffffffffffffffffffffffffffffffffffffffffffffffffffffff1916149050919050565b60008073ffffffffffffffffffffffffffffffffffffffff16612f5c83612a1e565b73ffffffffffffffffffffffffffffffffffffffff1614159050919050565b50505050565b50505050565b612f918383613237565b612f9e6000848484612fe2565b612fdd576040517f08c379a0000000000000000000000000000000000000000000000000000000008152600401612fd490614e98565b60405180910390fd5b505050565b60006130038473ffffffffffffffffffffffffffffffffffffffff16613454565b1561315c578373ffffffffffffffffffffffffffffffffffffffff1663150b7a0261302c6125cf565b8786866040518563ffffffff1660e01b815260040161304e9493929190614f0d565b6020604051808303816000875af192505050801561308a57506040513d601f19601f820116820180604052508101906130879190614f6e565b60015b61310c573d80600081146130ba576040519150601f19603f3d011682016040523d82523d6000602084013e6130bf565b606091505b506000815103613104576040517f08c379a00000000000000000000000000000000000000000000000000000000081526004016130fb90614e98565b60405180910390fd5b805181602001fd5b63150b7a0260e01b7bffffffffffffffffffffffffffffffffffffffffffffffffffffffff1916817bffffffffffffffffffffffffffffffffffffffffffffffffffffffff191614915050613161565b600190505b949350505050565b60606000600161317884613477565b01905060008167ffffffffffffffff811115613197576131966138d3565b5b6040519080825280601f01601f1916602001820160405280156131c95781602001600182028036833780820191505090505b509050600082602001820190505b60011561322c578080600190039150507f3031323334353637383961626364656600000000000000000000000000000000600a86061a8153600a85816132205761321f614f9b565b5b049450600085036131d7575b819350505050919050565b600073ffffffffffffffffffffffffffffffffffffffff168273ffffffffffffffffffffffffffffffffffffffff16036132a6576040517f08c379a000000000000000000000000000000000000000000000000000000000815260040161329d90615016565b60405180910390fd5b6132af81612f3a565b156132ef576040517f08c379a00000000000000000000000000000000000000000000000000000000081526004016132e690615082565b60405180910390fd5b6132fd600083836001612f7b565b61330681612f3a565b15613346576040517f08c379a000000000000000000000000000000000000000000000000000000000815260040161333d90615082565b60405180910390fd5b6001600360008473ffffffffffffffffffffffffffffffffffffffff1673ffffffffffffffffffffffffffffffffffffffff16815260200190815260200160002060008282540192505081905550816002600083815260200190815260200160002060006101000a81548173ffffffffffffffffffffffffffffffffffffffff021916908373ffffffffffffffffffffffffffffffffffffffff160217905550808273ffffffffffffffffffffffffffffffffffffffff16600073ffffffffffffffffffffffffffffffffffffffff167fddf252ad1be2c89b69c2b068fc378daa952ba7f163c4a11628f55a4df523b3ef60405160405180910390a4613450600083836001612f81565b5050565b6000808273ffffffffffffffffffffffffffffffffffffffff163b119050919050565b600080600090507a184f03e93ff9f4daa797ed6e38ed64bf6a1f01000000000000000083106134d5577a184f03e93ff9f4daa797ed6e38ed64bf6a1f01000000000000000083816134cb576134ca614f9b565b5b0492506040810190505b6d04ee2d6d415b85acef81000000008310613512576d04ee2d6d415b85acef8100000000838161350857613507614f9b565b5b0492506020810190505b662386f26fc10000831061354157662386f26fc10000838161353757613536614f9b565b5b0492506010810190505b6305f5e100831061356a576305f5e10083816135605761355f614f9b565b5b0492506008810190505b612710831061358f57612710838161358557613584614f9b565b5b0492506004810190505b606483106135b257606483816135a8576135a7614f9b565b5b0492506002810190505b600a83106135c1576001810190505b80915050919050565b6000604051905090565b600080fd5b600080fd5b60007fffffffff0000000000000000000000000000000000000000000000000000000082169050919050565b613613816135de565b811461361e57600080fd5b50565b6000813590506136308161360a565b92915050565b60006020828403121561364c5761364b6135d4565b5b600061365a84828501613621565b91505092915050565b60008115159050919050565b61367881613663565b82525050565b6000602082019050613693600083018461366f565b92915050565b600081519050919050565b600082825260208201905092915050565b60005b838110156136d35780820151818401526020810190506136b8565b60008484015250505050565b6000601f19601f8301169050919050565b60006136fb82613699565b61370581856136a4565b93506137158185602086016136b5565b61371e816136df565b840191505092915050565b6000602082019050818103600083015261374381846136f0565b905092915050565b6000819050919050565b61375e8161374b565b811461376957600080fd5b50565b60008135905061377b81613755565b92915050565b600060208284031215613797576137966135d4565b5b60006137a58482850161376c565b91505092915050565b600073ffffffffffffffffffffffffffffffffffffffff82169050919050565b60006137d9826137ae565b9050919050565b6137e9816137ce565b82525050565b600060208201905061380460008301846137e0565b92915050565b613813816137ce565b811461381e57600080fd5b50565b6000813590506138308161380a565b92915050565b6000806040838503121561384d5761384c6135d4565b5b600061385b85828601613821565b925050602061386c8582860161376c565b9150509250929050565b60008060006060848603121561388f5761388e6135d4565b5b600061389d86828701613821565b93505060206138ae86828701613821565b92505060406138bf8682870161376c565b9150509250925092565b600080fd5b600080fd5b7f4e487b7100000000000000000000000000000000000000000000000000000000600052604160045260246000fd5b61390b826136df565b810181811067ffffffffffffffff8211171561392a576139296138d3565b5b80604052505050565b600061393d6135ca565b90506139498282613902565b919050565b600067ffffffffffffffff821115613969576139686138d3565b5b613972826136df565b9050602081019050919050565b82818337600083830152505050565b60006139a161399c8461394e565b613933565b9050828152602081018484840111156139bd576139bc6138ce565b5b6139c884828561397f565b509392505050565b600082601f8301126139e5576139e46138c9565b5b81356139f584826020860161398e565b91505092915050565b60008060008060808587031215613a1857613a176135d4565b5b6000613a268782880161376c565b945050602085013567ffffffffffffffff811115613a4757613a466135d9565b5b613a53878288016139d0565b935050604085013567ffffffffffffffff811115613a7457613a736135d9565b5b613a80878288016139d0565b925050606085013567ffffffffffffffff811115613aa157613aa06135d9565b5b613aad878288016139d0565b91505092959194509250565b613ac28161374b565b82525050565b6000610140820190508181036000830152613ae3818d6136f0565b9050613af2602083018c613ab9565b8181036040830152613b04818b6136f0565b90508181036060830152613b18818a6136f0565b90508181036080830152613b2c81896136f0565b905081810360a0830152613b4081886136f0565b905081810360c0830152613b5481876136f0565b905081810360e0830152613b6881866136f0565b9050818103610100830152613b7d81856136f0565b9050818103610120830152613b9281846136f0565b90509b9a5050505050505050505050565b60008060408385031215613bba57613bb96135d4565b5b6000613bc88582860161376c565b925050602083013567ffffffffffffffff811115613be957613be86135d9565b5b613bf5858286016139d0565b9150509250929050565b60008060408385031215613c1657613c156135d4565b5b6000613c248582860161376c565b9250506020613c3585828601613821565b9150509250929050565b600080600080600080600060e0888a031215613c5e57613c5d6135d4565b5b600088013567ffffffffffffffff811115613c7c57613c7b6135d9565b5b613c888a828b016139d0565b9750506020613c998a828b0161376c565b965050604088013567ffffffffffffffff811115613cba57613cb96135d9565b5b613cc68a828b016139d0565b955050606088013567ffffffffffffffff811115613ce757613ce66135d9565b5b613cf38a828b016139d0565b945050608088013567ffffffffffffffff811115613d1457613d136135d9565b5b613d208a828b016139d0565b93505060a088013567ffffffffffffffff811115613d4157613d406135d9565b5b613d4d8a828b016139d0565b92505060c088013567ffffffffffffffff811115613d6e57613d6d6135d9565b5b613d7a8a828b016139d0565b91505092959891949750929550565b6000602082019050613d9e6000830184613ab9565b92915050565b600060208284031215613dba57613db96135d4565b5b6000613dc884828501613821565b91505092915050565b613dda81613663565b8114613de557600080fd5b50565b600081359050613df781613dd1565b92915050565b60008060408385031215613e1457613e136135d4565b5b6000613e2285828601613821565b9250506020613e3385828601613de8565b9150509250929050565b600067ffffffffffffffff821115613e5857613e576138d3565b5b613e61826136df565b9050602081019050919050565b6000613e81613e7c84613e3d565b613933565b905082815260208101848484011115613e9d57613e9c6138ce565b5b613ea884828561397f565b509392505050565b600082601f830112613ec557613ec46138c9565b5b8135613ed5848260208601613e6e565b91505092915050565b60008060008060808587031215613ef857613ef76135d4565b5b6000613f0687828801613821565b9450506020613f1787828801613821565b9350506040613f288782880161376c565b925050606085013567ffffffffffffffff811115613f4957613f486135d9565b5b613f5587828801613eb0565b91505092959194509250565b600081519050919050565b600082825260208201905092915050565b6000819050602082019050919050565b600082825260208201905092915050565b6000613fa982613699565b613fb38185613f8d565b9350613fc38185602086016136b5565b613fcc816136df565b840191505092915050565b6000613fe38383613f9e565b905092915050565b6000602082019050919050565b600061400382613f61565b61400d8185613f6c565b93508360208202850161401f85613f7d565b8060005b8581101561405b578484038952815161403c8582613fd7565b945061404783613feb565b925060208a01995050600181019050614023565b50829750879550505050505092915050565b600060208201905081810360008301526140878184613ff8565b905092915050565b600080604083850312156140a6576140a56135d4565b5b60006140b485828601613821565b92505060206140c585828601613821565b9150509250929050565b7f4e487b7100000000000000000000000000000000000000000000000000000000600052602260045260246000fd5b6000600282049050600182168061411657607f821691505b602082108103614129576141286140cf565b5b50919050565b7f4552433732313a20617070726f76616c20746f2063757272656e74206f776e6560008201527f7200000000000000000000000000000000000000000000000000000000000000602082015250565b600061418b6021836136a4565b91506141968261412f565b604082019050919050565b600060208201905081810360008301526141ba8161417e565b9050919050565b7f4552433732313a20617070726f76652063616c6c6572206973206e6f7420746f60008201527f6b656e206f776e6572206f7220617070726f76656420666f7220616c6c000000602082015250565b600061421d603d836136a4565b9150614228826141c1565b604082019050919050565b6000602082019050818103600083015261424c81614210565b9050919050565b7f4552433732313a2063616c6c6572206973206e6f7420746f6b656e206f776e6560008201527f72206f7220617070726f76656400000000000000000000000000000000000000602082015250565b60006142af602d836136a4565b91506142ba82614253565b604082019050919050565b600060208201905081810360008301526142de816142a2565b9050919050565b7f4e6f7420746865206f776e6572206f66207468652070617469656e742072656360008201527f6f72640000000000000000000000000000000000000000000000000000000000602082015250565b60006143416023836136a4565b915061434c826142e5565b604082019050919050565b6000602082019050818103600083015261437081614334565b9050919050565b60008190508160005260206000209050919050565b60006020601f8301049050919050565b600082821b905092915050565b6000600883026143d97fffffffffffffffffffffffffffffffffffffffffffffffffffffffffffffffff8261439c565b6143e3868361439c565b95508019841693508086168417925050509392505050565b6000819050919050565b600061442061441b6144168461374b565b6143fb565b61374b565b9050919050565b6000819050919050565b61443a83614405565b61444e61444682614427565b8484546143a9565b825550505050565b600090565b614463614456565b61446e818484614431565b505050565b5b818110156144925761448760008261445b565b600181019050614474565b5050565b601f8211156144d7576144a881614377565b6144b18461438c565b810160208510156144c0578190505b6144d46144cc8561438c565b830182614473565b50505b505050565b600082821c905092915050565b60006144fa600019846008026144dc565b1980831691505092915050565b600061451383836144e9565b9150826002028217905092915050565b61452c82613699565b67ffffffffffffffff811115614545576145446138d3565b5b61454f82546140fe565b61455a828285614496565b600060209050601f83116001811461458d576000841561457b578287015190505b6145858582614507565b8655506145ed565b601f19841661459b86614377565b60005b828110156145c35784890151825560018201915060208501945060208101905061459e565b868310156145e057848901516145dc601f8916826144e9565b8355505b6001600288020188555050505b505050505050565b7f4e6f7420617574686f72697a656420746f20766965772070617469656e74206460008201527f657461696c730000000000000000000000000000000000000000000000000000602082015250565b60006146516026836136a4565b915061465c826145f5565b604082019050919050565b6000602082019050818103600083015261468081614644565b9050919050565b7f4552433732313a20696e76616c696420746f6b656e2049440000000000000000600082015250565b60006146bd6018836136a4565b91506146c882614687565b602082019050919050565b600060208201905081810360008301526146ec816146b0565b9050919050565b7f4e487b7100000000000000000000000000000000000000000000000000000000600052603260045260246000fd5b7f4e487b7100000000000000000000000000000000000000000000000000000000600052601160045260246000fd5b600061475c8261374b565b91507fffffffffffffffffffffffffffffffffffffffffffffffffffffffffffffffff820361478e5761478d614722565b5b600182019050919050565b7f50617469656e74206e616d652063616e6e6f7420626520656d70747900000000600082015250565b60006147cf601c836136a4565b91506147da82614799565b602082019050919050565b600060208201905081810360008301526147fe816147c2565b9050919050565b7f50617469656e7420697320616c72656164792072656769737465726564000000600082015250565b600061483b601d836136a4565b915061484682614805565b602082019050919050565b6000602082019050818103600083015261486a8161482e565b9050919050565b600061010082019050614887600083018b613ab9565b8181036020830152614899818a6136f0565b90506148a86040830189613ab9565b81810360608301526148ba81886136f0565b905081810360808301526148ce81876136f0565b905081810360a08301526148e281866136f0565b905081810360c08301526148f681856136f0565b905061490560e08301846137e0565b9998505050505050505050565b7f50617469656e74206e6f7420666f756e64000000000000000000000000000000600082015250565b60006149486011836136a4565b915061495382614912565b602082019050919050565b600060208201905081810360008301526149778161493b565b9050919050565b7f4552433732313a2061646472657373207a65726f206973206e6f74206120766160008201527f6c6964206f776e65720000000000000000000000000000000000000000000000602082015250565b60006149da6029836136a4565b91506149e58261497e565b604082019050919050565b60006020820190508181036000830152614a09816149cd565b9050919050565b6000604082019050614a256000830185613ab9565b8181036020830152614a3781846136f0565b90509392505050565b600081905092915050565b6000614a5682613699565b614a608185614a40565b9350614a708185602086016136b5565b80840191505092915050565b6000614a888285614a4b565b9150614a948284614a4b565b91508190509392505050565b7f496e76616c696420766965776572206164647265737300000000000000000000600082015250565b6000614ad66016836136a4565b9150614ae182614aa0565b602082019050919050565b60006020820190508181036000830152614b0581614ac9565b9050919050565b6000614b178261374b565b9150614b228361374b565b9250828203905081811115614b3a57614b39614722565b5b92915050565b7f4e487b7100000000000000000000000000000000000000000000000000000000600052603160045260246000fd5b6000604082019050614b846000830185613ab9565b614b9160208301846137e0565b9392505050565b7f4f776e61626c653a206e6577206f776e657220697320746865207a65726f206160008201527f6464726573730000000000000000000000000000000000000000000000000000602082015250565b6000614bf46026836136a4565b9150614bff82614b98565b604082019050919050565b60006020820190508181036000830152614c2381614be7565b9050919050565b7f4552433732313a207472616e736665722066726f6d20696e636f72726563742060008201527f6f776e6572000000000000000000000000000000000000000000000000000000602082015250565b6000614c866025836136a4565b9150614c9182614c2a565b604082019050919050565b60006020820190508181036000830152614cb581614c79565b9050919050565b7f4552433732313a207472616e7366657220746f20746865207a65726f2061646460008201527f7265737300000000000000000000000000000000000000000000000000000000602082015250565b6000614d186024836136a4565b9150614d2382614cbc565b604082019050919050565b60006020820190508181036000830152614d4781614d0b565b9050919050565b7f4f776e61626c653a2063616c6c6572206973206e6f7420746865206f776e6572600082015250565b6000614d846020836136a4565b9150614d8f82614d4e565b602082019050919050565b60006020820190508181036000830152614db381614d77565b9050919050565b7f4552433732313a20617070726f766520746f2063616c6c657200000000000000600082015250565b6000614df06019836136a4565b9150614dfb82614dba565b602082019050919050565b60006020820190508181036000830152614e1f81614de3565b9050919050565b7f4552433732313a207472616e7366657220746f206e6f6e20455243373231526560008201527f63656976657220696d706c656d656e7465720000000000000000000000000000602082015250565b6000614e826032836136a4565b9150614e8d82614e26565b604082019050919050565b60006020820190508181036000830152614eb181614e75565b9050919050565b600081519050919050565b600082825260208201905092915050565b6000614edf82614eb8565b614ee98185614ec3565b9350614ef98185602086016136b5565b614f02816136df565b840191505092915050565b6000608082019050614f2260008301876137e0565b614f2f60208301866137e0565b614f3c6040830185613ab9565b8181036060830152614f4e8184614ed4565b905095945050505050565b600081519050614f688161360a565b92915050565b600060208284031215614f8457614f836135d4565b5b6000614f9284828501614f59565b91505092915050565b7f4e487b7100000000000000000000000000000000000000000000000000000000600052601260045260246000fd5b7f4552433732313a206d696e7420746f20746865207a65726f2061646472657373600082015250565b60006150006020836136a4565b915061500b82614fca565b602082019050919050565b6000602082019050818103600083015261502f81614ff3565b9050919050565b7f4552433732313a20746f6b656e20616c7265616479206d696e74656400000000600082015250565b600061506c601c836136a4565b915061507782615036565b602082019050919050565b6000602082019050818103600083015261509b8161505f565b905091905056fea264697066735822122045b2d948e895470613b210b210dcdfeafecd82b89b1b9d705eb5100f4293d35064736f6c63430008110033",
  "linkReferences": {},
  "deployedLinkReferences": {}
}